:020000040800F2
:100000007806002089020008751C0008AD1500085C
:10001000711C0008731400087D2200080000000015
:10002000000000000000000000000000811E000829
:100030007714000800000000771C0008A51F0008C6
:10004000A3020008A3020008A3020008A3020008FC
:10005000A3020008A3020008A3020008A3020008EC
:10006000A3020008A3020008A3020008A3020008DC
:10007000A3020008A3020008A3020008A3020008CC
:10008000A3020008A3020008A3020008A3020008BC
:10009000A3020008A3020008A3020008A3020008AC
:1000A000A3020008A3020008A3020008A30200089C
:1000B000A3020008A3020008A3020008A30200088C
:1000C000A3020008A3020008A3020008A30200087C
:1000D000A3020008A3020008A3020008A30200086C
:1000E000A3020008A3020008A3020008A30200085C
:1000F000A3020008A3020008A3020008A30200084C
:10010000A3020008A3020008A3020008A30200083B
:10011000A3020008A3020008A3020008A30200082B
:10012000A3020008A3020008A3020008A30200081B
:10013000A30200080000000000000000A302000865
:10014000A3020008A3020008A3020008A3020008FB
:10015000A3020008A3020008A3020008A3020008EB
:10016000A3020008A3020008A3020008A3020008DB
:10017000A3020008A3020008A30200080000000078
:1001800000000000A30200080000000000000000C2
:10019000A30200080000000000000000A302000805
:1001A000000000000000000000000000A3020008A2
:1001B000A3020008A3020008A3020008A30200088B
:1001C000A302000800F002F800F04FF80AA090E83F
:1001D000000C82448344AAF10107DA4501D100F002
:1001E00044F8AFF2090EBAE80F0013F0010F18BF80
:1001F000FB1A43F001031847A0290000C0290000A2
:10020000103A24BF78C878C1FAD8520724BF30C842
:1002100030C144BF04680C60704700000023002414
:1002200000250026103A28BF78C1FBD8520728BF06
:1002300030C148BF0B607047662902F04C847829B2
:1002400000F07880732900F0A583002070471FB567
:1002500002F03CFC00F0B4FB04000020002102F09E
:10026000C9F8E0601FBD10B510BD00F0C5FC114617
:10027000FFF7EDFF02F058F800F0E3FC03B4FFF7DE
:10028000F2FF03BC00F026FD0948804709480047FB
:10029000FEE7FEE7FEE7FEE7FEE7FEE7FEE7FEE736
:1002A000FEE7FEE704480549054A064B7047000093
:1002B000A91F0008C501000878000020780600206A
:1002C00078020020780200200FB4044910B503AA78
:1002D000029800F063FB10BC5DF814FB00000020E6
:1002E00070B50C460546012A05D02878800600D551
:1002F000EA69002302E0012305E05B1C934202D27D
:10030000E05C0028F9D1A869E618C01AA861286A3B
:10031000184428622846AFF3008004E0D5E90121A3
:1003200014F8010B9047B442F8D32846AFF300808D
:1003300070BD000070B504460D4621461068AFF34D
:1003400000802188090502D50F4A7A4402E00E4A4E
:100350007A440E32002104F1240305E000F00F0678
:100360000009965D5E54491C0028F7D120780023CF
:10037000000704D5702D02D009B1022311322046A6
:10038000BDE8704000F08CB88C2700002DE9F047E4
:100390004FF0000A89460446C0F820A02046E168D4
:1003A0008847002876D0252806D0D4E90121904737
:1003B000206A401C2062F1E7E1682046002588475A
:1003C000C4F81CA006460027C4F818A02A2E09D09D
:1003D000304601F07DFF38B304EB8708303EC8F8A3
:1003E000186019E059F8041B204604EB870291615C
:1003F000E1688847012F064618D1E069002820DA15
:1004000025F020051DE0D8F8180000EB800006EB71
:1004100040003038C8F818002046E1688847064692
:1004200001F056FF0028EED1012F0AD02E2E08D160
:100430002046E16888477F1C0646022F45F02005CC
:10044000C4DBA069002803DA404245F00105A06141
:10045000E80701D025F01005B6B1A6F14100192832
:1004600002D8203645F400654A46314620462560CC
:100470004D46FFF7E1FE58B1012806D0ED1D25F0ED
:10048000070000F1080989E704E005F1040985E7A0
:1004900030468AE7206ABDE8F087704770477047AA
:1004A0002DE9F0470D4699469246044600F124088E
:1004B0000168880604D5E06921F01001216000E0A0
:1004C0000120A84201DD471B00E00027A1697A193D
:1004D00002EB0900081AA0612078C00602D4204669
:1004E000AFF30080002608E0D4E901211AF80600E5
:1004F0009047206A401C761C20624E45F4DB207831
:10050000C0060AD52046AFF3008006E0D4E90121F9
:1005100030209047206A401C2062381EA7F1010756
:10052000F4DC07E0D4E9012118F805009047206ABF
:10053000401C2062281EA5F10105F3DC2046AFF324
:1005400000802078000602D50220BDE8F087012057
:10055000FBE770472DE9FF4F0C461E464FF0FF3773
:100560008BB0D2E90001DDF860800A908A46C1F3C1
:100570000A5505B93D46002108464FF00000BAF182
:10058000000F00F4400005DA00EB80004FF440015A
:1005900001EA50004FEA9059B9F1010F00DDB94668
:1005A0000A9850EA4A000ED044F61050A5F2FF35E2
:1005B00045432F14B8F1000F1ED07542291E1EDDD1
:1005C000C9F100021CE0B8F1010F4FF0000001D0AA
:1005D000302103E0F24305E02154401CB042FBDB34
:1005E00030460022002121540B99C1F80880C1E94E
:1005F00000200FB0BDE8F08FBD1B6D1CDEE74A4642
:1006000000DA694206A800F07DFA06AB93E807001D
:1006100003AB83E8070050460A9900F062FB8DE8BF
:100620000700A0F500501F3800900398002D0ADD48
:1006300042F21F014A460844002303A9039068467A
:1006400000F0CBFD09E0A0F500504A461F3800231A
:1006500003A90390684600F0D5FD8DE8070000046B
:10066000000C03D04FF0FF30410800E01046B8F115
:10067000000F03D00022009215461EE0751E05D41F
:1006800000F0A2F9303262556D1EF9D5B346012251
:10069000084302D000227F1C04E02078302801D1DA
:1006A00000227F1E002A099784D01DE0112D07DA51
:1006B00000F08AF9303262556D1C50EA0102F5D122
:1006C000084302D00098C8B10EE00021681E05E082
:1006D000235C625C63542254401E491C8142F7DB58
:1006E000AB46A81B401E0990002004F80B000B9895
:1006F000099AC0F80880C0E9002B7AE711264FF06C
:10070000000857E72DE9F04F88460446D21D22F035
:10071000070191B0D1E90001CDE90A0101F0C0FD66
:1007200002460B98C00F01D02D2007E020688107FA
:1007300001D52B2002E0202101EAC000032A099004
:1007400001D0072A05DB03464146204600F09AF90E
:100750000BE12078800601D5E06900E00620B8F1C1
:10076000650F814606D0B8F1660F18D0B8F1670F53
:1007700070D131E00020B9F1110F009001DB11239D
:1007800001E009F101030AAA01A90CA8FFF7E2FEA2
:10079000DDE90C70002609F10105834647E00120E0
:1007A0004B4600904FF000470AAA01A90CA8FFF79A
:1007B000D1FEDDE90DB00C995D46002610B909F1B6
:1007C00001000D18B9EB050003D4C0F1FF3609F1A3
:1007D0000105A5EB09002BE0B9F1010F01DA4FF09B
:1007E00001090020B9F1110F0090484601DD1123E5
:1007F00000E003460AAA01A90CA8FFF7ABFEDDE959
:100800000C704D4600268346207800070AD4AB457D
:1008100000DA5D4601A8012D04DD411911F8011C23
:10082000302907D04F4502DA17F1040F04DA01200E
:1008300082460FE06D1EEEE7002F02DCED1B3E440A
:1008400003E0781CA84200DD7D1CB81B00F1010A02
:100850004FF000472078000703D4AA4501DB4FF092
:10086000FF3A0021B7F1004F0DF143088DF8431016
:1008700024D002202B23002F01DA7F422D230A21CE
:10088000021EA0F1010000DC5FB197FBF1FC97FBB9
:10089000F1F201FB1C7C17460CF1300C08F801CD7D
:1008A000EEE7A8F1010003702188090501D5452173
:1008B00000E06521A0F1010800F8011C09980FA9CA
:1008C000A1EB0807FF1D00B10120411901EBEA70FF
:1008D000A1693844081A401EA0612078C00602D4DD
:1008E0002046AFF30080099828B1D4E90121904750
:1008F000206A401C20622078C00622D52046AFF333
:1009000000801EE0002E04DBB34502DD01A8805DFF
:1009100000E03020D4E901219047206A401C206289
:10092000761CAAF101005FEA000A0AD100F048F83B
:10093000C0680168405CD4E901219047206A401CEE
:100940002062281EA5F10105DCDC07E0D4E90121C5
:1009500018F8010B9047206A401C2062381EA7F14E
:100960000107F3DC2046AFF30080032011B041E61D
:1009700010B5436913B1AFF3008001E0FFF7B0FC9D
:10098000012010BD127800F124010A7000224A7083
:100990000122EDE711684FF0FF32E9E7074B70B530
:1009A0000D467B4400F05BF80446284600F01CF935
:1009B00010B14FF0FF3070BD204670BD73190000BC
:1009C000004870473400002030B5B0F10A024FEA09
:1009D000900E71F100034EEA817EB0EB0E0061EBE8
:1009E00091014FEA101E4EEA017E10EB0E0041EB22
:1009F00011114FEA102E4EEA016E10EB0E0041EB82
:100A000011214FEA104E4EEA014E10EB0E0041EB61
:100A10001141401841F100014FEAD00040EA417015
:100A20004FEAD10110EB80054FEA810444EA90744B
:100A300044EB01046D1944EB0404521BA3414FF035
:100A4000000348BF0A3200D530BD401C41F100010F
:100A500030BD000001694A1C02610878704700B58A
:100A60008FB0CDE901310021059105497944CDE9E7
:100A7000031011466846FFF789FC0FB000BD000067
:100A8000E5FFFFFF2DE9F0411F46044603260168FC
:100A9000072A01F4006004DB08B116A505E016A5DD
:100AA00003E008B115A500E015A521F010002060B5
:100AB000A069C01EA0610FB1401EA0612046AFF327
:100AC00000804FB1D4E9012138469047206A401C8C
:100AD0002062C01C206206E0206AFAE7D4E9012106
:100AE00015F8010B9047761EF8D22046AFF3008030
:100AF000BDE8F0814E414E006E616E00494E4600E9
:100B0000696E66002DE9F047814616468AB0354881
:100B100078440DC88DE80D0032487844801C03AC41
:100B20000DC884E80D0041F69B300844372190FB46
:100B3000F1F290FBF1F5A5F1800501FB12041B3CDD
:100B400002D56442012000E00020DFF898A0804632
:100B50000027FA44AAF1BE0A0EE0E0070AD03246A6
:100B6000684607EB470101230AEB810100F04AFBCD
:100B70008DE8070064107F1C002CEED1194F7F44D4
:100B8000AE3F19E0E80715D007EB04100DF1180A85
:100B900090E80E008AE80E00C068F04201D1981972
:100BA00008903246012306A903A800F02BFB03ABF3
:100BB00083E807006D10641C002DE3D14FF00103A2
:100BC00032466946B8F1000F03A802D000F005FBD9
:100BD00001E000F017FBC9E90001C9F808200AB0DC
:100BE000BDE8F0876C200000007B00F080007047BB
:100BF00000487047140000207546FFF7F9FFAE4625
:100C000005006946534620F00700854618B020B518
:100C1000FFF748FBBDE820404FF000064FF000070B
:100C20004FF000084FF0000B21F00701AC46ACE894
:100C3000C009ACE8C009ACE8C009ACE8C0098D4601
:100C4000704710B50446AFF300802046BDE8104061
:100C5000FFF714BB4FF0013C50F8042B51F8043B54
:100C60009A4221D1A2EB0C03934313EACC1317D180
:100C700050F8042B51F8043B9A4215D1A2EB0C0317
:100C8000934313EACC130BD150F8042B51F8043BD7
:100C90009A4209D1A2EB0C03934313EACC13DBD0A5
:100CA0004FF00000704700BFD01A01BAB1FA81F1CD
:100CB00001F0180122FA01F0CB40C1F12001DBB2B2
:100CC000C0B2C01A2CFA01F3D11A914311EAC31130
:100CD000E6D1704701491820ABBEFEE726000200AE
:100CE00070475FEA400C08BF91F0000F4FEA8C2379
:100CF0004FEAC12243EA51514FEA1C5018BF00F598
:100D0000F0404FEA300018BF41F000415FEA6C5CF0
:100D100000F02980BCF1FF3F08BF40F080407047E1
:100D2000130C06BF12044FF0100C4FF0000C130E02
:100D300004BF12020CF1080C130F04BF12010CF1D6
:100D4000040C930F04BF92000CF1020CD30F04BFEC
:100D500052000CF1010C11464FF00002A0F11F00EF
:100D6000A0EB0C00704711F0004F08BF704731F046
:100D700000413FF4D5AF0B0C06BF09044FF0100C37
:100D80004FF0000C0B0E04BF09020CF1080C0B0F06
:100D900004BF09010CF1040C8B0F04BF89000CF196
:100DA000020CCB0F04BF49000CF1010CCCF1200365
:100DB000A0EB0C0022FA03F302FA0CF241EA030161
:100DC00000F10100704720F07F4C80EA030023F01F
:100DD0007F47ACEB070303F57C5300F0004003F1C1
:100DE000FF032DE980494FEA154B09B44FEA14433C
:100DF00025EA0B4E24EA03480FF2042606EB1327DC
:100E000049083E785FEA320203FB0667C7F5000730
:100E100007FB06F64FEA54374FEAD64606F10206BC
:100E200007FB066CCCF1005C4FEA1C472CEA074C30
:100E300007FB06F40CFB06F504EB15464FEA961685
:100E400034BF00204FF000404FEAD13706FB07FCCB
:100E50004FEA1C4C0CFB0BF7D21B03FB0CF761EBAE
:100E600007010CFB0EF7B0EB074072EB17420CFBCF
:100E700008F734BFA2EB0742B2EB074261EB174120
:100E80004FEA0C444FEA910706FB07FC4FEA1C4C63
:100E90000CFB0BF7B0EBC74072EB573203FB0CF7C0
:100EA00034BFA2EBC742B2EBC74261EB57310CFB38
:100EB0000EF7B0EBC70072EB57720CFB08F734BFAC
:100EC000A2EBC702B2EBC70261EB5771039F4FEA77
:100ED000816141EA921104EBCC044FEAD1374FEA29
:100EE000826206FB07FC42EA90124FEA80604FEAFA
:100EF0001C4C0CFB0BF7D21B03FB0CF761EB07013F
:100F00000CFB0EF7B0EB074072EB17420CFB08F737
:100F100034BFA2EB0742B2EB074261EB17414FEA45
:100F20008C554FEA910704EB9C2406FB07FC4FEA23
:100F30001C4C0CFB0BF7B0EBC74072EB573203FBBA
:100F40000CF734BFA2EBC742B2EBC74261EB57319B
:100F50000CFB0EF7B0EBC70072EB57720CFB08F7F7
:100F600034BFA2EBC702B2EBC70261EB577115EBBE
:100F70004C254FEA816141EA92114FEA82624FEAC1
:100F8000D13742EA901206FB07FC44F100044FEA15
:100F900080604FEA1C4C0CFB0BF7D21B03FB0CF7D9
:100FA00061EB07010CFB0EF7B0EB074072EB174249
:100FB0000CFB08F734BFA2EB0742B2EB074261EB30
:100FC000174115EB1C154FEA813141EA92414FEA76
:100FD000823242EA90424FEA80304FEA0C7644F186
:100FE000000448EA03434EEA0B484FF0000EB2EB10
:100FF000080C71EB030724BF624639464EEB0E0E18
:101000004FF0000B0018524149414BEB0B0BB2EB78
:10101000080C71EB03077BF1000B24BF62463946D5
:101020004EEB0E0E4FF0000B0018524149414BEBB6
:101030000B0BB2EB080C71EB03077BF1000B24BF29
:10104000624639464EEB0E0E51EA020718BF46F0D3
:10105000010616EB0E7655F1000254F1000103D59E
:10106000BDE88901BDE80088BDE88901BDE8004808
:10107000B619524141EB0101A3F101037047808091
:101080007F7E7D7C7B7A79787776767574737271E2
:1010900071706F6E6E6D6C6C6B6A6A69686867669A
:1010A00066656464636362616160605F5F5E5E5D2C
:1010B0005D5C5C5B5B5A5A595958585757565655A0
:1010C00055555454535352525251515050504F4F02
:1010D0004F4E4E4D4D4D4C4C4C4B4B4B4A4A4A4952
:1010E0004949484848474747474646464545454495
:1010F0004444444343434342424242414141002B22
:101100009C4630D477002BD01CB54FEA370703B488
:101110004FF010004FF01001BAF1000F06D0BCF1F3
:10112000000FDCBF40F0080040F008014FF0000065
:101130000FBCBDE810400BF1010BBBF1010F08BF64
:101140005FEA170722BF12F1010211F101014FF00E
:10115000004143F1000300F0004043EA0000704703
:10116000F9D35708D0E746EA064613F1400F4FEA95
:1011700016461FDD13F1200FDFBF16430A4600217C
:1011800020335B42BED0C3F1200746EA064602FA8E
:1011900007F74FEA164646EA0706C3F1200722FA88
:1011A00003F201FA07F721FA03F14FF0000342EAD4
:1011B0000702A7E746EA020646EA06464FEA16464F
:1011C00046EA0106BCBF46EA0646360C4FF000036D
:1011D0004FF000024FF0000194E72DE9804C9A4651
:1011E000934670B491E8380007C831EA400C48BF14
:1011F00034EA430C03D5FFF7E6FDFFF780FFF0BCB0
:10120000BDE8008C2DE9804C9A46934670B491E875
:10121000380007C810F0804F08BF13F0804F03D18B
:1012200000F005F8FFF76BFFF0BCBDE8008C20F084
:101230007F4780EA030023F07F4C07EB0C03A3F504
:101240007C5300F00040A3F1FE0392F0000F00F089
:10125000B38095F0000F00F077802DE901494FEA47
:1012600011404FEA144621EA004800FB06FC24EA3C
:10127000064708FB06F607FB08F800FB07F718EB24
:1012800006484CEB164C4FEA124B18EB07484FEA56
:1012900015464CEB174022EA0B4E0BFB06FC25EAE9
:1012A00006470EFB06F607FB0EFE0BFB07F71EEBD1
:1012B000064E4CEB164C4FF000061EEB074E4CEB67
:1012C000174B18EB0B0840F1000018EB0E0B58EB16
:1012D000000840F100008F1A4FF000013CBFC943E5
:1012E000661B14BFB5EB040C00213CBFC943F61BC1
:1012F0004FEA17444EEA8E0E27EA04454FEA1C4790
:1013000004FB07622CEA074C05FB07F70CFB05F60C
:1013100004FB0CFC16EB074642EB174216EB0C469F
:1013200042EB1C421BEB060658EB0202414146EA27
:101330009E0601D5BDE80189B619524141EB010174
:10134000A3F10103BDE801894FEA14454FEA1147B3
:1013500024EA054621EA074C05FB07F406FB07F7DC
:101360000CFB06F105FB0CFC11EB074144EB1744A9
:101370004FEA124711EB0C4144EB1C4422EA074CA4
:1013800005FB07F206FB07F70CFB06F605FB0CFC5A
:1013900016EB074642EB174216EB0C4642EB1C4598
:1013A0006A1854F1000148BF7047B619524141EB29
:1013B0000101A3F10103704795F0000F37D04FEA08
:1013C00011424FEA144721EA024624EA074C02FB85
:1013D00007F106FB07F70CFB06F402FB0CFC14EB11
:1013E000074441EB17414FEA154714EB0C4441EB1E
:1013F0001C4125EA074C02FB07F506FB07F70CFB2F
:1014000006F602FB0CFC16EB074645EB174516EB00
:101410000C4645EB1C42121951F1000148BF7047C0
:10142000B619524141EB0101A3F1010370474FEAA4
:1014300014454FEA114724EA054621EA074C05FB0B
:1014400007F106FB07F70CFB06F24FF0000605FB61
:101450000CFC12EB074241EB174112EB0C4251EB33
:101460001C4148BF7047921841EB0101A3F10103F1
:10147000704700BFFEE770471CB50121022000F055
:10148000FBFB01208DF8040000208DF8060044F2DB
:101490008100009000208DF8070002208DF80500E3
:1014A0006946094800F012F801221146064800F08A
:1014B00078F801228021044800F073F8012291039A
:1014C000014800F06EF81CBD00040240F0B50A4669
:1014D00000210023002400BF3DE0012505FA01F3AF
:1014E000156805EA03049C4234D105684F000326C1
:1014F000BE40B543056015794E00B54006683543DA
:1015000005601579012D02D01579022D16D1856857
:101510004F000326BE40B543856055794E00B54067
:10152000866835438560456801268E40B543456031
:10153000456896798E40B6B235434560C5684F0020
:101540000326BE40B543C560D5794E00B540C66898
:101550003543C560491C1029BFD3F0BDF0B5002349
:1015600000244D07ED0E02FA05F3CE1000F1200520
:1015700055F826504E07F70E0F26BE40B543CF1044
:1015800000F1200646F82750CE1000F1200555F84E
:10159000265045EA0304CE1000F1200545F8264008
:1015A000F0BD0AB1018300E04183704700BFFEE750
:1015B00021B1028842F48062028004E002884FF682
:1015C000FF331A400280704770B5024600240025A0
:1015D00000230020958A138B1B0445EA030626F09E
:1015E0007F4404EA01068E4201D1012000E0002080
:1015F00070BD000070B504460D46002600F09EF94F
:101600000021204600F074F900F0AEF906490748C1
:1016100000F03EF828B92A46214605A0FEF754FE00
:101620000126304670BD000002000010005400404A
:101630004144443A307825582025732D636F6E6EEF
:1016400065637465640A000021B1028842F00102FA
:10165000028004E002884FF6FE731A400280704751
:1016600021B1028842F48072028004E002884FF6C1
:10167000FF631A400280704721B1028842F4007271
:10168000028004E002884FF6FF531A400280704740
:101690000CB50246002000230193009300920B0F2B
:1016A000019321F07F41019B1BB1009B14330093F8
:1016B00003E0090C009B18330093009B1B680B4050
:1016C0000BB1012000E000200CBD00002DE9FF4718
:1016D00004460D460026B1460427DFF8CC80A688D4
:1016E0004FF6C0700640684600F0E6FADDF8088064
:1016F0002E48B8FBF0F01FFA80F946EA0906A680EA
:1017000020884FF6FE71084020800026284928686E
:1017100088420CD828684000B8FBF0F087B2042F4C
:1017200000DA04273E4309F10100208427E0E8881D
:101730004BF6FF71884206D1286800EB4000B8FBE9
:10174000F0F087B209E0286800EBC00101EB00105F
:10175000B8FBF0F087B247F48047C7F30B0008B935
:1017600047F0010747F4004006434FF4967009FB29
:1017700000F04FF47A7190FBF1F0401C2084A683B6
:10178000208840F00100208026884FF6F530064082
:10179000A8886989084306432680A88929890843BF
:1017A0002081BDE8FF87000000127A0040420F0050
:1017B000A086010000B587B00121480500F06CFA51
:1017C0000121022000F058FA02208DF818000120B3
:1017D0008DF81A004FF44070059001208DF81B0021
:1017E00003208DF8190005A91648FFF76FFE0422A3
:1017F00008211448FFF7B2FE042209211148FFF71F
:10180000ADFE4FF48060ADF80E000001ADF81000A1
:101810000D4801904BF6FF70ADF80A000020ADF8BE
:1018200008000120ADF80C0001A90848FFF74EFFA1
:1018300001210648FFF708FF01210448FFF7B8FE21
:1018400007B000BD00040240A08601000054004023
:1018500070B50446012C04D100210E48FFF7A8FE04
:1018600004E01CB901210B48FFF7A2FE00BF0A49A2
:101870000848FFF7A9FE0028F9D000BF074905482E
:10188000FFF706FF0028F9D0024800F023F80546CC
:10189000284670BD00540040400003004000001086
:1018A00070B505460C4600F049F80021284600F0C6
:1018B0001FF8204600F06AF800F040F801212846A1
:1018C00000F016F80120FFF7C3FF064600F04CF8C1
:1018D000304670BD0146088AC0B2704712B141F06F
:1018E000010101E001F0FE010182704701827047B1
:1018F00070B505460C4664B9002229460C48FFF72E
:10190000EDFF00BF0B490A48FFF75EFE0028F9D043
:101910000DE0012C0BD1012229460548FFF7DEFF1F
:1019200000BF05490248FFF74FFE0028F9D070BDFF
:1019300000540040820007000200030010B501219E
:101940000748FFF735FE01210548FFF789FE00BF74
:1019500004490348FFF738FE0028F9D010BD000005
:10196000005400400100030010B500BF05490648BF
:10197000FFF72AFE0028F9D101210348FFF77CFE7A
:1019800010BD0000840007000054004010B504465C
:1019900021460948FFF7AAFF00BF08490648FFF79C
:1019A00013FE0028F9D000BF05490348FFF770FE79
:1019B0000028F9D010BD000000540040800007004E
:1019C0008000001070B506460C461546FFF7B6FFBE
:1019D00000213046FFF78CFF2046FFF7D7FFFFF7C7
:1019E000ADFF00213046FFF783FF2846FFF7CEFF0B
:1019F000FFF7BAFF70BD00002DE9F0432DED028B1B
:101A000083B004460D4616463B21D020FFF748FF21
:101A10008DF804003B21D020FFF742FF8DF8050030
:101A20009DF805009DF8041040EA012007B23D2111
:101A3000D020FFF735FF8DF806003D21D020FFF7BD
:101A40002FFF8DF807009DF807009DF8061040EA6B
:101A500001200FFA80F83F21D020FFF721FF8DF8F9
:101A600008003F21D020FFF71BFF8DF809009DF8EB
:101A700009009DF8081040EA01200FFA80F9384665
:101A800000F0CEFE41EC180B9FED130B53EC102B26
:101A900000F06EFDC4E90001404600F0C1FE41ECDB
:101AA000180B9FED0D0B53EC102B00F061FDC5E9F9
:101AB0000001484600F0B4FE41EC180B9FED060B08
:101AC00053EC102B00F054FDC6E9000103B0BDEC4F
:101AD000028BBDE8F0830000000000000000D04051
:101AE0002DE9F0432DED028B83B004460D461646DA
:101AF0004321D020FFF7D4FE8DF804004321D020ED
:101B0000FFF7CEFE8DF805009DF805009DF8041046
:101B100040EA012007B24521D020FFF7C1FE8DF831
:101B200006004521D020FFF7BBFE8DF807009DF889
:101B300007009DF8061040EA01200FFA80F84721BF
:101B4000D020FFF7ADFE8DF808004721D020FFF729
:101B5000A7FE8DF809009DF809009DF8081040EADD
:101B600001200FFA80F9384600F05AFE41EC180BBC
:101B70009FED130B53EC102B00F0FAFCC4E90001AD
:101B8000404600F04DFE41EC180B9FED0D0B53EC61
:101B9000102B00F0EDFCC5E90001484600F040FEC6
:101BA00041EC180B9FED060B53EC102B00F0E0FC02
:101BB000C6E9000103B0BDEC028BBDE8F083000074
:101BC00000000000006060402DE9F0412DED048B25
:101BD00004464121D020FFF763FE05464121D02075
:101BE000FFF75EFE064646EA052007B2384600F0DB
:101BF00017FE41EC190B9FED0A0B53EC102B00F074
:101C0000B7FC41EC180B9FED080B53EC102B00F0C8
:101C100007FCC4E90001BDEC048BBDE8F0810000C5
:101C20000000000000407540A4703D0AD7434240C8
:101C300010B507221921D020FFF7C4FE01226B2125
:101C4000D020FFF7BFFE00221A21D020FFF7BAFEF6
:101C500000221C21D020FFF7B5FE18221B21D02026
:101C6000FFF7B0FE01223821D020FFF7ABFE10BDF8
:101C700000BFFEE77047704729B1064A1268024369
:101C8000044B1A6004E0034A12688243014B1A6055
:101C9000704700003038024029B1064A12680243FA
:101CA000044B1A6004E0034A12688243014B1A6035
:101CB00070470000403802402DE9F0410021002328
:101CC00000240226002502220227DFF8A4C1DCF846
:101CD00000C00CF00C0131B1042909D008290CD046
:101CE0000C297CD148E0DFF88CC1C0F800C089E045
:101CF000DFF884C1C0F800C084E0DFF874C1ACF143
:101D0000040CDCF800C0CCF38055DFF864C1ACF102
:101D1000040CDCF800C00CF03F0275B1DFF858C1CC
:101D2000BCFBF2FCDFF84881A8F10408D8F8008079
:101D3000C8F388180CFB08F40DE0DFF838C1BCFBD1
:101D4000F2FCDFF82C81A8F10408D8F80080C8F371
:101D500088180CFB08F4DFF818C1ACF1040CDCF8AF
:101D600000C0CCF3014C0CF1010C4FEA4C06B4FB63
:101D7000F6FCC0F800C045E0DFF8F4C0ACF1040C9C
:101D8000DCF800C0CCF38055DFF8E4C0ACF1040C03
:101D9000DCF800C00CF03F0275B1DFF8DCC0BCFB22
:101DA000F2FCDFF8CC80A8F10408D8F80080C8F372
:101DB00088180CFB08F40DE0DFF8B8C0BCFBF2FC9F
:101DC000DFF8AC80A8F10408D8F80080C8F38818C0
:101DD0000CFB08F4DFF898C0ACF1040C00E00CE058
:101DE000DCF800C0CCF3027C0CF1010C4FEA4C078C
:101DF000B4FBF7FCC0F800C004E0DFF878C0C0F81E
:101E000000C000BF00BFDFF868C0DCF800C00CF005
:101E1000F0010909DFF864C01CF80130D0F800C0F7
:101E20002CFA03FCC0F804C0DFF844C0DCF800C0A2
:101E30000CF4E051890ADFF844C01CF80130D0F8F6
:101E400004C02CFA03FCC0F808C0DFF824C0DCF89A
:101E500000C00CF46041490BDFF820C01CF80130D1
:101E6000D0F804C02CFA03FCC0F80CC0BDE8F08127
:101E7000083802400024F40000127A000400002018
:101E8000704700000CB500200190009041480068A8
:101E900040F480303F49086000BF3E48006800F4CD
:101EA000003000900198401C0190009818B90198EA
:101EB000B0F5A04FF1D13748006800F4003010B100
:101EC0000120009001E0002000900098012860D1DE
:101ED00030484030006840F080502E494031086062
:101EE0002D48006840F440402B49086029480830DC
:101EF00000682849083108600846006840F400403E
:101F000008600846006840F4A05008602348091F94
:101F10000860081F006840F08070091F086000BF5B
:101F20001C48006800F000700028F9D01A480068CA
:101F300040F480301849086000BF1748406800F43A
:101F400080300028F9D01448006840F4003012496D
:101F5000086000BF1048406800F400300028F9D045
:101F600040F205700E4908600A480830006820F009
:101F700003000849083108600846006840F0020084
:101F8000086000BF03480830006800F00C00082813
:101F9000F8D10CBD0038024000700040085A40776C
:101FA000003C02407047000010B51548006840F43E
:101FB0007000134908601348006840F0010011499F
:101FC000086000200F49083108600E4800680E497B
:101FD00008400C4908600D48091D0860081F00688A
:101FE00020F48020091F0860002006490C31086099
:101FF000FFF748FF4FF0006001498039086010BDCD
:1020000088ED00E000380240FFFFF6FE10300024AB
:1020100021B1028842F00102028004E002884FF6FA
:10202000FE731A40028070470146486A7047416259
:102030007047000000220288184B98420ED0184BBF
:1020400098420BD0B0F1804F08D0164B984205D083
:10205000154B984202D0154B984204D14FF68F731E
:102060001A404B881A43124B984207D0114B9842A2
:1020700004D04FF6FF431A400B891A4302804B6885
:10208000C3620B880385054B984202D0044B9842EB
:1020900001D18B7A038601238382704700000140BF
:1020A000000401400004004000080040000C004013
:1020B00000100040001400400EB501211020FFF771
:1020C000EBFD5320ADF800004FF6FF70019069461C
:1020D0000348FFF7AFFF01210148FFF799FF0EBD4D
:1020E0000010004000B587B001214804FFF7D4FD7F
:1020F00001210820FFF7C0FD02208DF81800002004
:102100008DF81A006020059000208DF81B00022039
:102110008DF8190005A91348FFF7D8F90722052102
:102120001048FFF71BFA072206210E48FFF716FAA0
:102130004FF4165001900020ADF810000C20ADF8BF
:102140000E000020ADF80C00ADF80A00ADF8080054
:1021500001A9054800F024F80121034800F006F821
:1021600007B000BD000C02400044004021B182894C
:1021700042F40052828104E082894DF6FF731A40D6
:102180008281704702460020B1F5007F00D100BF78
:1021900013880B400BB1012000E0002070470000C5
:1021A0002DE9FF4705460E460024A14600BFA04684
:1021B000B08900B100BF2C8A24F44054F088044355
:1021C0002C82AC8941F20C608443B0883189084389
:1021D000718908430443AC81AC8A24F44074B0890B
:1021E0000443AC826846FFF767FD2048854202D071
:1021F0001F48854202D1DDF80C9001E0DDF808901F
:10220000A88900F4004040B109EBC90000EB0910B7
:1022100031684900B0FBF1F707E009EBC90000EBBA
:10222000091031688900B0FBF1F76420B7FBF0F0CA
:1022300004012009642101FB1078A88900F4004002
:1022400040B1322000EBC800B0FBF1F000F0070015
:10225000044308E0322000EB08106421B0FBF1F0E9
:1022600000F00F0004432C81BDE8FF8700100140FF
:1022700000140140C1F308028280704700BFFEE7EE
:1022800001B59DF800100548FFF7F4FF00BF80215D
:102290000248FFF777FF0028F9D008BD004400404E
:1022A00003B401984100009850EAC12018BF0420EF
:1022B0004A0D18BF40F0010040F2FF72B2EB515FCF
:1022C00008BF40F00200012808BF052002B0704797
:1022D00030380A2801D2012070470020704770B5BD
:1022E0000446002504E04FF47A7000F005F86D1CF8
:1022F000A542F8D370BD000010B504460021054882
:10230000FFF795FE00BF0348FFF78EFEA042FAD309
:1023100010BD00000010004070B504460D46E0B24C
:10232000FFF7AEFF204670BD9AB0FFF7A5F8FFF7A4
:10233000C3FEFFF7D7FEFFF73DFA1CA1D020FFF741
:1023400059F9FFF775FC30E014AA16A918A8FFF791
:1023500053FB12A8FFF738FC0CAA0EA910A8FFF730
:10236000BFFB9DED0C0B8DED0A0B9DED0E0B8DED66
:10237000080B9DED100B8DED060B9DED120B8DEDF9
:10238000040B9DED140B8DED020B9DED160B8DEDE9
:10239000000B9DED180B53EC102B07A0FDF794FFDD
:1023A0004FF4FA70FFF79BFF00BFCDE74D50555F2C
:1023B000363035300000000041783A252E32662054
:1023C00041793A252E326620417A3A252E3266200E
:1023D00054656D703A252E32662047783A252E32A4
:1023E000662047793A252E326620477A3A252E32E2
:1023F000660A000010B500290AD00878002807D026
:1024000005487844FEF726FC002801D0002010BDC6
:102410000248784410BD0000B6070000AE07000077
:1024200010B591EA030F48BF83F0004300F16C82BE
:10243000841A71EB030C05D2121943EB0C03001B39
:1024400061EB0C01DFF824E14FEA1154A4EB135CBB
:102450001EEA430F18BF9EEA445F73D023EA0E03BF
:10246000DCF1200E21EA045143F4801332D322FA26
:102470000CFE10EB0E0023FA0CFE41EB0E01CCF12A
:10248000200E03FA0EFE10EB0E0051F10001B1F523
:10249000801FCCF1200E32D201EB045112FA0EF261
:1024A000BDE8104058BF7047401C38BF5FEA420289
:1024B00018BF7047002814BF20F0010041F100014F
:1024C0004FEA410313F5001F38BF7047A1F1C04127
:1024D00000F00BBA012A43EB0302ACF1200CDCF153
:1024E0001F0E32BF4FF0000E23FA0CF310EB030067
:1024F00041EB0451B4EB115FD0D0A1EB045101F5D5
:10250000801149085FEA300001EB04510ED350F10D
:10251000000038BF12FA0EFE08D1BDE81040C9E72E
:10252000401C38BF5FEA4202CAD1C3E7BDE8104091
:102530004FEA410313F5001F38BF7047A1F1C041B6
:1025400000F0D3B99EEA445F08D011EA5E0FBDE8FF
:10255000104004BF01F0004100207047BDE810406A
:1025600070B500F074F900BF64FBBE3E0000E0FFF0
:102570002DE9C04130B4DFF8A0C23CEA111418BF05
:102580003CEA131400F0EC8081EA03051CEA111404
:1025900044EAD57418BF1CEA131500F0C780A4EBF9
:1025A00005044FF0004545EAC12145EAC32341EA4D
:1025B000505143EA525304F17F74994204F50034B8
:1025C0004FEAC0204FEAC22208BF904200F09C8030
:1025D0004FEA13650FF24016765D4FEA134506FB8E
:1025E00005F7C7F1807706FB07F74FEAD737A7FB58
:1025F00003687642C8F58038A7FB06CE38BFA8F13D
:10260000010807FB08E64FF0000EA6FB028CE6FB74
:1026100003CEDCF1000CCEF1004E38BFAEF1010E5E
:10262000A6FB0C584FF000074FF00005E6FB0E87A5
:10263000A1FB08C6A0FB07CE16EB0E0645F1000570
:10264000E1FB076515F1E04E7EBFA4F580345FEA3B
:1026500046066D4116F1800745F100054FEA172740
:102660004FEA066647EA0567A6F1DE46B6F1805FE7
:102670004FEA15251FD9384624F0010C05EBC4712B
:10268000BCF1FE6F01EB0C1102D8F0BCBDE800817B
:1026900024425CBF01F5801E9EEAC47F02D4F0BCD8
:1026A000BDE80081244238D4F0BCA1F1C041BDE8AE
:1026B000004100F01AB94FEAD22242EA43524FEAEF
:1026C000D323A7FB02864FEAD02040EA415007FB04
:1026D00003661EEA0E0F4FEAD12105FB026658BFC2
:1026E000A6EB0056B6EB00564FEA520E4EEAC37EFA
:1026F00018EB0E0E56EB530EBDD518EB02085E41DB
:102700007F1C55F10005B6E74FF480154FF0000728
:102710004FF000064FF00008ADE7F0BC4FF00000AE
:1027200001F1C04101F00041BDE8008111EA0C1F38
:102730000CEA131500D00CE013EA0C1F00F0258002
:102740004FF00000F0BC81EA030101F00041BDE858
:102750000081F0BCBDE8004181EA030100F0C5B88A
:10276000F0BCBDE8004170B500F071F8097EFC3E98
:1027700000F007B881EA03014FF0000001F00041CA
:10278000704781EA030100F0B0B8F0BCBDE8004139
:102790004FF0000021497047FFFDFBF9F7F5F4F217
:1027A000F0EEEDEBE9E8E6E4E3E1E0DEDDDBDAD8EC
:1027B000D7D5D4D3D1D0CFCDCCCBCAC8C7C6C5C44A
:1027C000C2C1C0BFBEBDBCBBBAB9B8B7B6B5B4B361
:1027D000B2B1B0AFAEADACABAAA9A8A8A7A6A5A44C
:1027E000A3A3A2A1A09F9F9E9D9C9C9B9A99999810
:1027F0009797969595949393929191908F8F8E8EB3
:102800008D8C8C8B8B8A898988888787868585843F
:1028100084838382828181800000FF070000F87F2B
:1028200010F0004248BF4042B0FA80F310FA03F1C2
:102830000AD0C3F11D0303F580634FEA415002EB58
:10284000035202EBD12170474FF0000070470EF1A8
:10285000020E2EF0030E5EF8046B364205D4012AF8
:1028600043EB030515F5001F12D8012841EB010CBD
:102870001CF5001F0CD80ED14FEAD17C15F5001FB6
:102880000CEB4C0C0CF1020C08BF4CEBD37C04E0BD
:102890004FF0080C01E04FEAD37C0CEB4C0526FA14
:1028A00005F606F00706B6F1040C06D20EEB860C10
:1028B000BDE870404CF0010C6047DFE80CF0090BFC
:1028C00002024FF000414FF00000A1F5002170BD61
:1028D00019461046012851EB010418BFD4F5001425
:1028E00084BF002001F0004170BD0808A0F5001170
:1028F0004FEA31017047000010B591EA030F48BF5D
:1029000083F000433FF594AD841A71EB030C07D2BA
:1029100012198CF0004C43EB0C03001B61EB0C0113
:10292000DFF8A4E14FEA1154A4EB135C1EEA430F55
:1029300018BF9EEA445F00F0B08023EA6E03524263
:1029400021EA0451C3EB6E0338BF5B1EDCF1200E9D
:1029500025D322FA0CFE10EB0E0043FA0CFE41EBDD
:102960000E01CCF1200E03FA0EFE10EB0E0051F119
:102970000001CCF1200E29D412FA0EF201EB045121
:10298000BDE8104058BF7047401C1CBFB2F1004F5B
:10299000704700280CBF491C20F00100704712EB63
:1029A000020E43EB030218BF4FF0010E4EEA420243
:1029B000ACF1200CDCF11E0E54D943FA0CFE10EBE6
:1029C0000E0051F1FF31CCF11E0ED5D50EF1010EE6
:1029D00012FA0EFE404141EB010101EB445C5FEA5B
:1029E0005C5C10D910EBDE7001EB045138BFBEF116
:1029F000004FBDE8104018BF704700280CBF491CAD
:102A000020F00100704730D24FEAD42C11F50011AC
:102A100024F400641BD0B1FA81F20B3AA41AA41E6C
:102A2000D2F12003914030FA03F31943904001EBB7
:102A3000CC71002C01EB0451BDE81040A8BF7047D9
:102A400001F1C0414FF0000001F000417047B0FAC1
:102A500080F310FA03F100D110BDE41A173C4805C9
:102A6000C90AE4E701EB045110BD491001EB045120
:102A7000BDE810404FEA300002E04FF0000170471F
:102A80004A0008BF0042F8D0B2F5001F28BF7047C7
:102A900001F000414FF0000070479EEA445F07D00C
:102AA00011EA5E0FBDE8104004BF0021002070470E
:102AB000BDE8104070B5FFF7CAFE00BF40DFF63E2C
:102AC00083F00041104670470000E0FF4FF0407077
:102AD000E1EE100A7047FDF715BE30313233343560
:102AE000363738394142434445464030580030314A
:102AF0003233343536373839616263646566403065
:102B00007800000002400000000000A0000000006B
:102B100005400000000000C8000000000C4000005C
:102B20000000409C00000000194000000020BCBED6
:102B30000000000034400000BFC91B8E00000004EC
:102B4000B5400000504BCFD06607E2CF0100000037
:102B50006C4100003E8251AADFEEA7340100000064
:102B6000D9420000DCB5A0E23A301F97FFFFFFFF1B
:102B7000B4450000FD25A0C8E9A3C14FFFFFFFFF3A
:102B8000FF3F00000000008000000000FF3F000049
:102B90000000008000000000D42B0008000000208E
:102BA0001400000000020008E82B000814000020B8
:102BB000640600001C0200081C0000004300000026
:102BC000F8FFFFFF0C0000000E0000000F000000E7
:102BD0002E000000000000000000000001020304BD
:082BE0000102030406070809C5
:040000050800028964
:00000001FF
