:020000040800F2
:100000007806002065020008B5040008AD04000869
:10001000B10400081F0300086F0900080000000079
:10002000000000000000000000000000550500086E
:100030002303000800000000310500083D07000808
:100040007F0200087F0200087F0200087F0200088C
:100050007F0200087F0200087F0200087F0200087C
:100060007F0200087F0200087F0200087F0200086C
:100070007F0200087F0200087F0200087F0200085C
:100080007F0200087F0200087F0200087F0200084C
:100090007F0200087F0200087F0200087F0200083C
:1000A0007F0200087F0200087F0200087F0200082C
:1000B0007F0200087F0200087F0200087F0200081C
:1000C0007F0200087F0200087F0200087F0200080C
:1000D0007F0200087F020008990800087F020008DC
:1000E0007F0200087F0200087F0200087F020008EC
:1000F0007F0200087F0200087F0200087F020008DC
:100100007F0200087F0200087F0200087F020008CB
:100110007F0200087F0200087F0200087F020008BB
:100120007F0200087F0200087F0200087F020008AB
:100130007F02000800000000000000007F020008AD
:100140007F0200087F0200087F0200087F0200088B
:100150007F0200087F0200087F0200087F0200087B
:100160007F0200087F0200087F0200087F0200086B
:100170007F0200087F0200087F02000800000000E4
:10018000000000007F0200080000000000000000E6
:100190007F02000800000000000000007F0200084D
:1001A0000000000000000000000000007F020008C6
:1001B0007F0200087F0200087F0200087F0200081B
:1001C0007F02000800F002F800F03CF80AA090E876
:1001D000000C82448344AAF10107DA4501D100F002
:1001E00031F8AFF2090EBAE80F0013F0010F18BF93
:1001F000FB1A43F001031847D4090000F40900007A
:10020000103A24BF78C878C1FAD8520724BF30C842
:1002100030C144BF04680C60704700000023002414
:1002200000250026103A28BF78C1FBD8520728BF06
:1002300030C148BF0B6070471FB500F0C1FC1FBD47
:1002400010B510BD00F031F81146FFF7F5FF00F0D2
:10025000CFFB00F04FF803B4FFF7F2FF03BC00F050
:1002600057F800000948804709480047FEE7FEE7C5
:10027000FEE7FEE7FEE7FEE7FEE7FEE7FEE7FEE756
:1002800004480549054A064B704700004507000829
:10029000C5010008780000207806002078020020C0
:1002A00078020020704770477047754600F02CF8C0
:1002B000AE4605006946534620F00700854618B053
:1002C00020B5FFF7DDFFBDE820404FF000064FF0FE
:1002D00000074FF000084FF0000B21F00701AC467B
:1002E000ACE8C009ACE8C009ACE8C009ACE8C0099A
:1002F0008D46704710B50446AFF300802046BDE838
:100300001040FFF7A8BF0000004870471800002009
:1003100001491820ABBEFEE726000200704700BF6F
:10032000FEE770472DE9FC4704460D4616461F467A
:10033000DDE90A892E48844206D12E48006840F043
:1003400001002C49086044E02B48844206D129482A
:10035000006840F00200274908603AE027488442DC
:1003600006D12448006840F004002249086030E0CB
:100370002348844206D11F48006840F008001D4908
:10038000086026E01F48844206D11A48006840F001
:100390001000184908601CE01B48844206D115482B
:1003A000006840F020001349086012E017488442BA
:1003B00006D11048006840F040000E49086008E08F
:1003C0001348844205D10B48006840F08000094979
:1003D00008608DF804608DF8067000958DF8078030
:1003E0008DF805906946204600F014F8BDE8FC87BA
:1003F0000000024030380240000402400008024081
:10040000000C02400010024000140240001802409C
:10041000001C0240F0B50A4600210023002400BF62
:100420003DE0012505FA01F3156805EA03049C4245
:1004300034D105684F000326BE40B54305601579E9
:100440004E00B5400668354305601579012D02D090
:100450001579022D16D185684F000326BE40B5439D
:10046000856055794E00B54086683543856045689E
:1004700001268E40B5434560456896798E40B6B2F8
:1004800035434560C5684F000326BE40B543C5608F
:10049000D5794E00B540C6683543C560491C102962
:1004A000BFD3F0BD418370470183704700BFFEE7B3
:1004B00000BFFEE77047000070B5002100230F2247
:1004C000C4781CB3174C246804F4E064C4F5E064F9
:1004D000C4F30721C1F10404E3B20A4144789C400B
:1004E000E1B28478144021430C07210E0E4C0578AC
:1004F0006155047804F01F050124AC4005786D11A6
:10050000AD0005F1E025C5F8004109E0047804F0EC
:100510001F050124AC40054D0678761145F82640AC
:1005200070BD00000CED00E000E400E080E100E0C0
:100530007047000029B1064A12680243044B1A6052
:1005400004E0034A12688243014B1A6070470000BE
:1005500040380240704700000CB500200190009028
:100560004148006840F480303F49086000BF3E4881
:10057000006800F4003000900198401C0190009841
:1005800018B90198B0F5A04FF1D13748006800F4D0
:10059000003010B10120009001E000200090009890
:1005A000012860D130484030006840F080502E492A
:1005B000403108602D48006840F440402B490860F5
:1005C0002948083000682849083108600846006852
:1005D00040F4004008600846006840F4A0500860FD
:1005E0002348091F0860081F006840F08070091F39
:1005F000086000BF1C48006800F000700028F9D0B7
:100600001A48006840F480301849086000BF174855
:10061000406800F480300028F9D01448006840F4A5
:1006200000301249086000BF1048406800F40030F4
:100630000028F9D040F205700E4908600A480830D9
:10064000006820F003000849083108600846006887
:1006500040F00200086000BF03480830006800F066
:100660000C000828F8D10CBD003802400070004092
:10067000085A4077003C024038B52C4800684FF4D7
:100680007A72B0FBF2F1481EB0F1807F01D30120F5
:100690001BE0481E4FF0E022506150170F22002847
:1006A00007DA13071D0E224B00F00F04241F1D55FF
:1006B00003E013071C0E1F4B1C5400BF00204FF01B
:1006C000E0229061072010610020F8B100BF00BF58
:1006D00000BF00BF00BFBFF34F8F00BF00BF00BF10
:1006E00013480C38006800F4E06013490843001D0B
:1006F0000F490C39086000BF00BF00BFBFF34F8F28
:1007000000BF00BF00BF00E000BFFDE7FF208DF885
:10071000000001208DF8030000208DF801008DF805
:1007200002006846FFF7C8FE38BD00000000002048
:1007300018ED00E000E400E00000FA0500B500F06C
:100740009FF800BD10B51548006840F470001349CB
:1007500008601348006840F001001149086000205B
:100760000F49083108600E4800680E4908400C49DE
:1007700008600D48091D0860081F006820F48020EB
:10078000091F0860002006490C310860FFF7E4FEED
:100790004FF0006001498039086010BD88ED00E02D
:1007A00000380240FFFFF6FE1030002421B102881D
:1007B00042F00102028004E002884FF6FE731A4004
:1007C000028070470146486A7047416270470000E6
:1007D00000220288184B98420ED0184B98420BD03A
:1007E000B0F1804F08D0164B984205D0154B984277
:1007F00002D0154B984204D14FF68F731A404B88A4
:100800001A43124B984207D0114B984204D04FF62E
:10081000FF431A400B891A4302804B68C3620B885E
:100820000385054B984202D0044B984201D18B7A44
:1008300003860123838270470000014000040140C9
:100840000004004000080040000C00400010004080
:10085000001400400EB501211020FFF76BFE592057
:10086000ADF800004FF6FF70019069460348FFF7AE
:10087000AFFF01210148FFF799FF0EBD00100040B6
:100880000448006820B103480068401E0149086020
:10089000704700001400002010B540F225511648A2
:1008A00000F032F838B3144800F058F804462146F6
:1008B000114800F058F880211048FFF7F5FD9FED32
:1008C000100B00F057F880210C48FFF7EBFD9FED6F
:1008D0000C0B00F04FF880210848FFF7E5FD9FED75
:1008E000080B00F047F880210448FFF7DBFD9FED7F
:1008F000040B00F03FF810BD00440040000402402B
:100900000000000000408F4070B502460024002324
:100910000025002040F66A16B14200D100BFC1F3A5
:10092000421501F01F03012606FA03F3012D02D13F
:100930009689334006E0022D02D1168A334001E049
:10094000968A33400C12012606FA04F416883440C5
:1009500013B10CB1012000E0002070BD0146888871
:10096000C0F308007047C1F308028280704700BFDF
:10097000FEE7000010B52DED048BB0EE408AF0EEDE
:10098000608A002404E09FED090B00F013F8641C5A
:10099000204600F061F841EC190B53EC182B00F0E5
:1009A00085F8F0D3BDEC048B10BD00000000000002
:1009B00000408F4010B52DED048BB0EE408AF0EE74
:1009C000608A00210948FFF700FF00BF0748FFF7D2
:1009D000F9FE044600F057F841EC190B53EC182BC4
:1009E00000F064F8F2D3BDEC048B10BD00100040A1
:1009F0001CB5FFF72FFFFFF73FFE00200221034643
:100A00000122CDE9001008210948FFF78BFC0020E6
:100A1000009003460122802101900648FFF782FCE6
:100A200004E0054800680549C1F89C02F9E70000A8
:100A300000000240000C02400C0240420080414293
:100A4000491058BFC1F140415B1058BFC3F140434A
:100A50008B42EFF30080704710F0004248BF4042E5
:100A6000B0FA80F310FA03F10AD0C3F11D0303F5C5
:100A700080634FEA415002EB035202EBD1217047F1
:100A80004FF000007047B0FA80F310FA03F10AD07B
:100A9000C3F11D0303F580634FEA41504FEA03524F
:100AA00002EBD12170474FF00000704751EA030C70
:100AB00017D41CF5801F58BFBCF5801F00F10680BD
:100AC000994218BF704708BF9042704707D711F589
:100AD000801F58BF13F5801F19D49942704789426F
:100AE00070471CF5801F08D5BCF5801FF7D58B42D9
:100AF00018BF704708BF824270474FF4001C1CEBC0
:100B0000410F38BF1CEB430F01D28B42704770B5C9
:100B100000F008F8922449004FF000514FF0805344
:100B2000FFF78EBF0EF1020E2EF0030E5EF8046B7F
:100B3000364205D4012A43EB030515F5001F12D8F0
:100B4000012841EB010C1CF5001F0CD80ED14FEA17
:100B5000D17C15F5001F0CEB4C0C0CF1020C08BFFE
:100B60004CEBD37C04E04FF0080C01E04FEAD37C5F
:100B70000CEB4C0526FA05F606F00706B6F1040C58
:100B800006D20EEB860CBDE870404CF0010C6047BD
:100B9000DFE80CF0090B02024FF000414FF00000BB
:100BA000A1F5002170BD19461046012851EB010442
:100BB00018BFD4F5001484BF002001F0004170BDBF
:100BC0004FF04070E1EE100A70470000EC0B000897
:100BD000000000201800000000020008040C0008BB
:100BE00018000020600600001C0200080095BA0AE8
:100BF00000000000000000000102030406070809CD
:040C000000000000F0
:040000050800026588
:00000001FF
