:020000040800F2
:10000000000C0020850200081F2300080B1C0008BC
:100010001D2300081B170008F3360008000000002D
:10002000000000000000000000000000A5270008FC
:10003000271900080000000099230008E1280008A3
:100040009F0200089F0200089F0200089F0200080C
:100050009F0200089F0200089F0200089F020008FC
:100060009F0200089F0200089F0200089F020008EC
:100070009F0200089F0200089F0200089F020008DC
:100080009F0200089F0200089F0200089F020008CC
:100090009F0200089F0200089F0200089F020008BC
:1000A0009F0200089F0200089F0200089F020008AC
:1000B0009F0200089F0200089F0200089F0200089C
:1000C0009F0200089F0200089F0200089F0200088C
:1000D0009F0200089F020008152A00089F020008DE
:1000E000391900089F0200089F0200089F020008BB
:1000F0009F0200089F0200089F0200089F0200085C
:100100009F0200089F0200089F0200089F0200084B
:100110009F0200089F0200089F0200089F0200083B
:100120009F0200089F0200089F0200089F0200082B
:100130009F02000800000000000000009F0200086D
:100140009F0200089F0200089F0200089F0200080B
:100150009F0200089F0200089F0200089F020008FB
:100160009F0200089F0200089F0200089F020008EB
:100170009F0200089F0200089F0200080000000084
:10018000000000009F0200080000000000000000C6
:100190009F02000800000000000000009F0200080D
:1001A0000000000000000000000000009F020008A6
:1001B0009F0200089F0200089F0200089F0200089B
:1001C0009F02000800F002F800F04CF80AA090E846
:1001D000000C82448344AAF10107DA4501D100F002
:1001E00041F8AFF2090EBAE80F0013F0010F18BF83
:1001F000FB1A43F0010318476454000084540000C4
:10020000103A24BF78C878C1FAD8520724BF30C842
:1002100030C144BF04680C60704700000023002414
:1002200000250026103A28BF78C1FBD8520728BF06
:1002300030C148BF0B607047662903F05E877329A1
:1002400000F02984002070471FB503F04CFF00F038
:100250007DFC04000020002103F06EFCE0601FBD67
:1002600010B510BD00F094FD1146FFF7EDFF03F04F
:10027000A9FA00F0B2FD03B4FFF7F2FF03BC00F0EF
:10028000B5FD00000948804709480047FEE7FEE742
:10029000FEE7FEE7FEE7FEE7FEE7FEE7FEE7FEE736
:1002A00004480549054A064B70470000F12800083C
:1002B000C501000800060020000C002000080020F6
:1002C000000800200FB4044910B503AA029800F0FA
:1002D000E7FB10BC5DF814FB3C0000200FB41CB51C
:1002E000074B06AA7B4469460090059800F0A9FBDD
:1002F0000020694600F0B8FB1CBC5DF814FB000050
:100300008107000070B5044685690068C10601D503
:10031000302600E02026C00707D070BDD4E90121B7
:1003200030469047206A401C20626D1EF6D570BD95
:1003300070B5044685690078C00707D170BDD4E95F
:10034000012120209047206A401C20626D1EF6D5B6
:1003500070BD70B50C460546012A05D02878800688
:1003600000D5EA69002302E0012305E05B1C93420B
:1003700002D2E05C0028F9D1A869E618C01AA86189
:10038000286A184428622846FFF7BCFF04E0D5E934
:10039000012114F8010B9047B442F8D32846FFF727
:1003A000C7FF70BD2DE9F0474FF0000A89460446AB
:1003B000C0F820A02046E1688847002876D025288C
:1003C00006D0D4E901219047206A401C2062F1E761
:1003D000E168204600258847C4F81CA0064600278F
:1003E000C4F818A02A2E09D0304603F09BF938B380
:1003F00004EB8708303EC8F8186019E059F8041B70
:10040000204604EB87029161E1688847012F064688
:1004100018D1E069002820DA25F020051DE0D8F881
:10042000180000EB800006EB40003038C8F81800D8
:100430002046E1688847064603F074F90028EED1AB
:10044000012F0AD02E2E08D12046E16888477F1C54
:100450000646022F45F02005C4DBA069002803DA18
:10046000404245F00105A061E80701D025F01005E4
:10047000B6B1A6F14100192802D8203645F400652E
:100480004A463146204625604D46FFF7D5FE58B115
:10049000012806D0ED1D25F0070000F1080989E7C5
:1004A00004E005F1040985E730468AE7206ABDE8E3
:1004B000F0870000014A00F005BB0000500000205A
:1004C000401ECAB210F8011F8A4202D00029F9D199
:1004D0000020704730B505460B462A4613F8014BFD
:1004E00012F8010B08B1A042F8D01CB1002802D0CC
:1004F0006D1CF1E7284630BD10B5431C02E010F832
:10050000011B71B18107FAD14FF0013202C88C1A78
:100510008C4314EAC211F9D0C01A0A0603D0C01ED7
:1005200010BDC01A10BD0A0401D0801E10BD090202
:10053000FCD0401E10BD02F0FF0343EA032242EA52
:10054000024200F0E3BA4FF0000200B513469446B1
:100550009646203922BFA0E80C50A0E80C50B1F11B
:100560002001BFF4F7AF090728BFA0E80C5048BF2F
:100570000CC05DF804EB890028BF40F8042B08BFCD
:10058000704748BF20F8022B11F0804F18BF00F8C9
:10059000012B70474FF0013C50F8042B51F8043BFD
:1005A0009A4221D1A2EB0C03934313EACC1317D147
:1005B00050F8042B51F8043B9A4215D1A2EB0C03DE
:1005C000934313EACC130BD150F8042B51F8043B9E
:1005D0009A4209D1A2EB0C03934313EACC13DBD06C
:1005E0004FF00000704700BFD01A01BAB1FA81F194
:1005F00001F0180122FA01F0CB40C1F12001DBB279
:10060000C0B2C01A2CFA01F3D11A914311EAC311F6
:10061000E6D1704770477047704770472DE9FF4F2C
:100620000C461E464FF0FF378BB0D2E90001DDF8D3
:1006300060800A908A46C1F30A5505B93D460021FB
:1006400008464FF00000BAF1000F00F4400005DA50
:1006500000EB80004FF4400101EA50004FEA90594E
:10066000B9F1010F00DDB9460A9850EA4A000ED0F0
:1006700044F61050A5F2FF3545432F14B8F1000F92
:100680001ED07542291E1EDDC9F100021CE0B8F122
:10069000010F4FF0000001D0302103E0F24305E0EC
:1006A0002154401CB042FBDB304600220021215483
:1006B0000B99C1F80880C1E900200FB0BDE8F08FA8
:1006C000BD1B6D1CDEE74A4600DA694206A800F051
:1006D000C7FA06AB93E8070003AB83E80700504670
:1006E0000A9900F08AFB8DE80700A0F500501F383A
:1006F00000900398002D0ADD42F21F014A4608448B
:10070000002303A90390684600F0F3FD09E0A0F57B
:1007100000504A461F38002303A90390684600F0A2
:10072000FDFD8DE807000004000C03D04FF0FF3002
:10073000410800E01046B8F1000F03D000220092FB
:1007400015461EE0751E05D400F004FA30326255DD
:100750006D1EF9D5B3460122084302D000227F1C4A
:1007600004E02078302801D100227F1E002A09975A
:1007700084D01DE0112D07DA00F0ECF9303262551B
:100780006D1C50EA0102F5D1084302D00098C8B1AF
:100790000EE00021681E05E0235C625C6354225475
:1007A000401E491C8142F7DBAB46A81B401E099046
:1007B000002004F80B000B98099AC0F80880C0E9E3
:1007C000002B7AE711264FF0000857E72DE9F04F8C
:1007D00088460446D21D22F0070191B0D1E90001FC
:1007E000CDE90A0102F086FF02460B98C00F01D046
:1007F0002D2007E02068810701D52B2002E0202171
:1008000001EAC000032A099001D0072A05DB03464C
:100810004146204600F0E4F90BE12078800601D53E
:10082000E06900E00620B8F1650F814606D0B8F116
:10083000660F18D0B8F1670F70D131E00020B9F120
:10084000110F009001DB112301E009F101030AAA55
:1008500001A90CA8FFF7E2FEDDE90C70002609F102
:100860000105834647E001204B4600904FF00047CA
:100870000AAA01A90CA8FFF7D1FEDDE90DB00C9979
:100880005D46002610B909F101000D18B9EB05000D
:1008900003D4C0F1FF3609F10105A5EB09002BE0F7
:1008A000B9F1010F01DA4FF001090020B9F1110F80
:1008B0000090484601DD112300E003460AAA01A981
:1008C0000CA8FFF7ABFEDDE90C704D460026834611
:1008D000207800070AD4AB4500DA5D4601A8012D57
:1008E00004DD411911F8011C302907D04F4502DA07
:1008F00017F1040F04DA012082460FE06D1EEEE7C7
:10090000002F02DCED1B3E4403E0781CA84200DD12
:100910007D1CB81B00F1010A4FF00047207800074A
:1009200003D4AA4501DB4FF0FF3A0021B7F1004F95
:100930000DF143088DF8431024D002202B23002F03
:1009400001DA7F422D230A21021EA0F1010000DC02
:100950005FB197FBF1FC97FBF1F201FB1C7C1746A2
:100960000CF1300C08F801CDEEE7A8F1010003709E
:100970002188090501D5452100E06521A0F1010884
:1009800000F8011C09980FA9A1EB0807FF1D00B191
:100990000120411901EBEA70A1693844081A401E90
:1009A000A0612078C00602D42046FFF7ABFC09986E
:1009B00028B1D4E901219047206A401C20622078A8
:1009C000C00622D52046FFF79DFC1EE0002E04DB6A
:1009D000B34502DD01A8805D00E03020D4E90121AB
:1009E0009047206A401C2062761CAAF101005FEA51
:1009F000000A0AD100F0AAF8C0680168405CD4E996
:100A000001219047206A401C2062281EA5F10105A3
:100A1000DCDC07E0D4E9012118F8010B9047206ADB
:100A2000401C2062381EA7F10107F3DC2046FFF7C7
:100A30007FFC032011B041E601694A1C026108787D
:100A4000704700B58FB0CDE901310021059105490E
:100A50007944CDE9031011466846FFF7A3FC0FB0B7
:100A600000BD0000E5FFFFFF0A6802F8010B0A6005
:100A7000704710B5436913B1AFF3008001E0FFF791
:100A800068FC012010BD127800F124010A700022D8
:100A90004A700122EDE711684FF0FF32E9E70000EC
:100AA000074B70B50D467B44FFF7CBFF0446284645
:100AB00000F048F910B14FF0FF3070BD204670BD16
:100AC000072D00002DE9F04115460E46040002D125
:100AD0002C6804B90BA4204600F048F9044420789F
:100AE00070B127463146384600F030F9044420788A
:100AF00010B1002004F8010B38462C60BDE8F081ED
:100B00000027F9E7000000004FF000020429C0F0C0
:100B1000128010F0030C3FF418ADCCF1040CBCF1C2
:100B2000020F18BF00F8012BA8BF20F8022BA1EB81
:100B30000C01FFF70ABD5FEAC17C24BF00F8012B5E
:100B400000F8012B48BF00F8012B704700487047A0
:100B5000C005002030B5B0F10A024FEA900E71F1E5
:100B600000034EEA817EB0EB0E0061EB91014FEA8B
:100B7000101E4EEA017E10EB0E0041EB11114FEA00
:100B8000102E4EEA016E10EB0E0041EB11214FEAE0
:100B9000104E4EEA014E10EB0E0041EB1141401891
:100BA00041F100014FEAD00040EA41704FEAD10123
:100BB00010EB80054FEA810444EA907444EB010491
:100BC0006D1944EB0404521BA3414FF0000348BFCE
:100BD0000A3200D530BD401C41F1000130BD00009B
:100BE0002DE9F0411F46044603260168072A01F457
:100BF000006004DB08B116A505E016A503E008B106
:100C000015A500E015A521F010002060A069C01E08
:100C1000A0610FB1401EA0612046FFF773FB4FB1EA
:100C2000D4E9012138469047206A401C2062C01C4C
:100C3000206206E0206AFAE7D4E9012115F8010BE9
:100C40009047761EF8D22046FFF772FBBDE8F08190
:100C50004E414E006E616E00494E4600696E660060
:100C60002DE9F047814616468AB0354878440DC8CC
:100C70008DE80D0032487844801C03AC0DC884E830
:100C80000D0041F69B300844372190FBF1F290FBB8
:100C9000F1F5A5F1800501FB12041B3C02D564426D
:100CA000012000E00020DFF898A080460027FA44E9
:100CB000AAF1BE0A0EE0E0070AD03246684607EB0A
:100CC000470101230AEB810100F028FB8DE80700B2
:100CD00064107F1C002CEED1194F7F44AE3F19E009
:100CE000E80715D007EB04100DF1180A90E80E0084
:100CF0008AE80E00C068F04201D198190890324687
:100D0000012306A903A800F009FB03AB83E8070051
:100D10006D10641C002DE3D14FF00103324669468B
:100D2000B8F1000F03A802D000F0E3FA01E000F0F0
:100D3000F5FAC9E90001C9F808200AB0BDE8F08752
:100D4000D4490000007B00F08000704730B50346B6
:100D50001D781DB10A4603E0AC4201D1181A30BD1E
:100D600012F8014B002CF7D15B1CF1E730B50346BC
:100D70001D783DB10A4612F8014B1CB1AC42FAD1C4
:100D80005B1CF5E7181A30BD00487047A00500202D
:100D90007546FFF7F9FFAE4605006946534620F059
:100DA0000700854618B020B5FFF77AFABDE8204065
:100DB0004FF000064FF000074FF000084FF0000B17
:100DC00021F00701AC46ACE8C009ACE8C009ACE8CA
:100DD000C009ACE8C0098D46704710B50446AFF3B2
:100DE00000802046BDE81040FFF745BA01491820B1
:100DF000ABBEFEE72600020070475FEA400C08BF6A
:100E000091F0000F4FEA8C234FEAC12243EA51517F
:100E10004FEA1C5018BF00F5F0404FEA300018BFF1
:100E200041F000415FEA6C5C00F02980BCF1FF3FBB
:100E300008BF40F080407047130C06BF12044FF00B
:100E4000100C4FF0000C130E04BF12020CF1080C32
:100E5000130F04BF12010CF1040C930F04BF920096
:100E60000CF1020CD30F04BF52000CF1010C11461F
:100E70004FF00002A0F11F00A0EB0C00704711F032
:100E8000004F08BF704731F000413FF4D5AF0B0C65
:100E900006BF09044FF0100C4FF0000C0B0E04BFFE
:100EA00009020CF1080C0B0F04BF09010CF1040C32
:100EB0008B0F04BF89000CF1020CCB0F04BF49005B
:100EC0000CF1010CCCF12003A0EB0C0022FA03F38F
:100ED00002FA0CF241EA030100F10100704720F030
:100EE0007F4C80EA030023F07F47ACEB070303F558
:100EF0007C5300F0004003F1FF032DE980494FEAE5
:100F0000154B09B44FEA144325EA0B4E24EA034873
:100F10000FF2042606EB132749083E785FEA3202F7
:100F200003FB0667C7F5000707FB06F64FEA5437D1
:100F30004FEAD64606F1020607FB066CCCF1005CD0
:100F40004FEA1C472CEA074C07FB06F40CFB06F59E
:100F500004EB15464FEA961634BF00204FF00040D0
:100F60004FEAD13706FB07FC4FEA1C4C0CFB0BF792
:100F7000D21B03FB0CF761EB07010CFB0EF7B0EB88
:100F8000074072EB17420CFB08F734BFA2EB074295
:100F9000B2EB074261EB17414FEA0C444FEA91076D
:100FA00006FB07FC4FEA1C4C0CFB0BF7B0EBC740F1
:100FB00072EB573203FB0CF734BFA2EBC742B2EB24
:100FC000C74261EB57310CFB0EF7B0EBC70072EB79
:100FD00057720CFB08F734BFA2EBC702B2EBC70293
:100FE00061EB5771039F4FEA816141EA921104EB73
:100FF000CC044FEAD1374FEA826206FB07FC42EA93
:1010000090124FEA80604FEA1C4C0CFB0BF7D21B8E
:1010100003FB0CF761EB07010CFB0EF7B0EB07408D
:1010200072EB17420CFB08F734BFA2EB0742B2EB9E
:10103000074261EB17414FEA8C554FEA910704EBE9
:101040009C2406FB07FC4FEA1C4C0CFB0BF7B0EB97
:10105000C74072EB573203FB0CF734BFA2EBC74219
:10106000B2EBC74261EB57310CFB0EF7B0EBC70098
:1010700072EB57720CFB08F734BFA2EBC702B2EB5E
:10108000C70261EB577115EB4C254FEA816141EACC
:1010900092114FEA82624FEAD13742EA901206FB80
:1010A00007FC44F100044FEA80604FEA1C4C0CFB43
:1010B0000BF7D21B03FB0CF761EB07010CFB0EF7E0
:1010C000B0EB074072EB17420CFB08F734BFA2EB02
:1010D0000742B2EB074261EB174115EB1C154FEAD3
:1010E000813141EA92414FEA823242EA90424FEA2C
:1010F00080304FEA0C7644F1000448EA03434EEA9C
:101100000B484FF0000EB2EB080C71EB030724BF45
:10111000624639464EEB0E0E4FF0000B001852415E
:1011200049414BEB0B0BB2EB080C71EB03077BF166
:10113000000B24BF624639464EEB0E0E4FF0000BFB
:101140000018524149414BEB0B0BB2EB080C71EB11
:1011500003077BF1000B24BF624639464EEB0E0EAF
:1011600051EA020718BF46F0010616EB0E7655F15C
:10117000000254F1000103D5BDE88901BDE80088F3
:10118000BDE88901BDE80048B619524141EB0101B3
:10119000A3F10103704780807F7E7D7C7B7A797824
:1011A000777676757473727171706F6E6E6D6C6C2C
:1011B0006B6A6A69686867666665646463636261CE
:1011C0006160605F5F5E5E5D5D5C5C5B5B5A5A594F
:1011D00059585857575656555555545453535252BB
:1011E0005251515050504F4F4F4E4E4D4D4D4C4C13
:1011F0004C4B4B4B4A4A4A4949494848484747475C
:101200004746464645454544444444434343434298
:10121000424242414141002B9C4630D477002BD0C2
:101220001CB54FEA370703B44FF010004FF0100120
:10123000BAF1000F06D0BCF1000FDCBF40F008008F
:1012400040F008014FF000000FBCBDE810400BF16A
:10125000010BBBF1010F08BF5FEA170722BF12F1B4
:10126000010211F101014FF0004143F1000300F0D0
:10127000004043EA00007047F9D35708D0E746EA38
:10128000064613F1400F4FEA16461FDD13F1200FFB
:10129000DFBF16430A46002120335B42BED0C3F1B4
:1012A000200746EA064602FA07F74FEA164646EADC
:1012B0000706C3F1200722FA03F201FA07F721FA21
:1012C00003F14FF0000342EA0702A7E746EA0206ED
:1012D00046EA06464FEA164646EA0106BCBF46EA1B
:1012E0000646360C4FF000034FF000024FF00001AD
:1012F00094E72DE9804C9A46934670B491E8380003
:1013000007C831EA400C48BF34EA430C03D5FFF765
:10131000E6FDFFF780FFF0BCBDE8008C2DE9804CB6
:101320009A46934670B491E8380007C810F0804F91
:1013300008BF13F0804F03D100F005F8FFF76BFFF3
:10134000F0BCBDE8008C20F07F4780EA030023F06A
:101350007F4C07EB0C03A3F57C5300F00040A3F196
:10136000FE0392F0000F00F0B38095F0000F00F044
:1013700077802DE901494FEA11404FEA144621EAEE
:10138000004800FB06FC24EA064708FB06F607FBBC
:1013900008F800FB07F718EB06484CEB164C4FEA31
:1013A000124B18EB07484FEA15464CEB174022EA60
:1013B0000B4E0BFB06FC25EA06470EFB06F607FB69
:1013C0000EFE0BFB07F71EEB064E4CEB164C4FF0D8
:1013D00000061EEB074E4CEB174B18EB0B0840F1C9
:1013E000000018EB0E0B58EB000840F100008F1ABC
:1013F0004FF000013CBFC943661B14BFB5EB040CA2
:1014000000213CBFC943F61B4FEA17444EEA8E0E3B
:1014100027EA04454FEA1C4704FB07622CEA074C05
:1014200005FB07F70CFB05F604FB0CFC16EB074667
:1014300042EB174216EB0C4642EB1C421BEB060636
:1014400058EB0202414146EA9E0601D5BDE80189FA
:10145000B619524141EB0101A3F10103BDE8018935
:101460004FEA14454FEA114724EA054621EA074CA2
:1014700005FB07F406FB07F70CFB06F105FB0CFC6C
:1014800011EB074144EB17444FEA124711EB0C41B3
:1014900044EB1C4422EA074C05FB07F206FB07F766
:1014A0000CFB06F605FB0CFC16EB074642EB17425D
:1014B00016EB0C4642EB1C456A1854F1000148BF7C
:1014C0007047B619524141EB0101A3F10103704786
:1014D00095F0000F37D04FEA11424FEA144721EA46
:1014E000024624EA074C02FB07F106FB07F70CFB58
:1014F00006F402FB0CFC14EB074441EB17414FEAE6
:10150000154714EB0C4441EB1C4125EA074C02FB48
:1015100007F506FB07F70CFB06F602FB0CFC16EBC7
:10152000074645EB174516EB0C4645EB1C421219D6
:1015300051F1000148BF7047B619524141EB01011A
:10154000A3F1010370474FEA14454FEA114724EA1B
:10155000054621EA074C05FB07F106FB07F70CFBE4
:1015600006F24FF0000605FB0CFC12EB074241EBC4
:10157000174112EB0C4251EB1C4148BF70479218C7
:1015800041EB0101A3F1010370470029816802D0FA
:1015900041F0010101E021F001018160704700008C
:1015A000084B10B5D3F8042307490A40D0E90014CA
:1015B0002143D0E90240044321431143C3F80413FB
:1015C00010BD000000200140E030FCFFF0B501211B
:1015D0009BB0880500F0E2FE01210E02304600F0CB
:1015E00001FF2A4F384600F0B9F829480024CDE918
:1015F0000240284804A9012581E83100A802CDE96C
:101600000740400009908000CDE90A060CA90001BE
:1016100081E831000F9402A93846109400F052F985
:101620000121384600F090F80023032208211A48CF
:10163000CDE9004500F02AFA17944FF4A060189401
:10164000CDE9194017A8FFF7ABFF8DF858508DF87A
:1016500048401494159411940D4C8DF849504C3C0D
:1016600011A9204600F02EF801212046FFF78DFF3A
:101670000121204600F01CF80121204600F00EF860
:10168000204600F045F81BB0F0BD00001064024099
:101690004C20014018000020000002400029816811
:1016A00002D041F4807101E021F4807181607047C3
:1016B0000029816802D041F4007101E021F4007139
:1016C0008160704730B542680F4B0C791A400B6847
:1016D00042EA04221343436082680C4B4D791A405E
:1016E000D1E9034323438C6844EA4504234313436D
:1016F0008360C26A097D22F47002491EC9B242EABF
:101700000151C16230BD0000FFFEFFFCFDF7FFC0CC
:10171000816841F0804181607047FEE7074A90424E
:1017200001D2074801E005481038064A8B0001EA5B
:10173000020101D5C16070478160704710640240AA
:10174000006002407D0F7D0F0029016802D041F04A
:10175000010101E021F00101016070472DE9F04332
:10176000016821F001010160002101604160816098
:10177000C1600161212141613C493C4A3D2510394C
:10178000904202D18D60BDE8F083384A4FF4746610
:101790001832904201D18E60F5E7344A4FF4741745
:1017A0003032904201D18F60EDE7304A4FF0746CD7
:1017B0004832904202D1C1F808C0E4E72B4B2C4AD2
:1017C0006033984201D1CA60DDE7284C294B783458
:1017D000A04201D1CB60D6E7DFF89080264C08F11B
:1017E0009008404501D1CC60CDE7DFF880804FF014
:1017F0003D5908F1A808404502D1C1F80C90C2E754
:101800001E49DFF878800839404501D10D60BAE7FC
:101810001A4D1835A84201D10E60B4E7174D303586
:10182000A84201D10F60AEE7144D4835A84202D15D
:10183000C1F800C0A7E7114D10496035091FA84243
:1018400001D10A609FE70D4A7832904201D10B60C6
:1018500099E70A4A9032904201D10C6093E7074A17
:10186000A83290428FD1C1F800908CE710600240FE
:101870003D000020400F002000003D201064024089
:10188000014600200968C90700D001207047000008
:101890000246094B00209A4201D2084A01E0064A5A
:1018A000103A8B0001D5526800E01268044B1A40D0
:1018B0000A4200D0012070471064024000600240DC
:1018C0007D0F7D0F30B50368124ACC6813400A685B
:1018D0002243D1E905452C432243CC6922430C6ABB
:1018E00022434C6A22438C6A22434C6B22438C6B0A
:1018F00022431A430260426922F00703D1E90B2414
:1019000022431A4342610A6942604A6882608968D8
:10191000C16030BD3F801CF00AB101617047C160F9
:1019200070474160704770470249086008680028A6
:10193000FCD170473800002070B54FF400552DEDF4
:10194000028B284600F060F800281CD00F4C0120C4
:10195000C4F8B8029FED0E8B04F52E74B0EE480A61
:10196000F0EE680A01F0E6FE00202060B0EE480AC2
:10197000F0EE680A01F0DEFEBDEC028B2846BDE801
:10198000704000F03BB8BDEC028B70BD008040425F
:10199000000000000000594070B5012186B08803A6
:1019A00000F020FD01240025CDE9005466032B46FC
:1019B0002A463146104800F069F80D21022000F057
:1019C000F3FE8DF80C5008208DF80D0002968DF86E
:1019D0000E4002A800F022F828208DF81000042004
:1019E0008DF811008DF812008DF8134004A800F056
:1019F00097FC06B070BD0000000802400149086075
:101A000070470000143C0140034A01460020126860
:101A10000A4200D001207047143C014030B51A49F9
:101A20008379026853B30B6893430B600A1D1368F4
:101A30000468A343136002790A44136804682343CB
:101A40001360114A083213680468A3431360131D1E
:101A50001C680568AC431C604479102C05D02144F7
:101A60000A68006802430A6030BD116804682143B7
:101A70001160196800680143196030BD007908449D
:101A800001689143016030BD003C01402DE9FC41FB
:101A9000244FDDE90865244CB84203D1276847F09C
:101AA00001072FE0214FB84203D1276847F0020712
:101AB00028E01F4FB84203D1276847F0040721E010
:101AC0001C4FB84203D1276847F008071AE01A4FA5
:101AD000B84203D1276847F0100713E0174FB84208
:101AE00003D1276847F020070CE0154FB84203D117
:101AF000276847F0400705E0124FB84203D1276836
:101B000047F0800727608DF804208DF8063000919B
:101B10008DF807608DF80550694600F015F8BDE8AE
:101B2000FC81000000000240303802400004024006
:101B300000080240000C0240001002400014024065
:101B400000180240001C0240F0B5002301240327C6
:101B50000D6804FA03F21540954242D1D0F800C056
:101B60005E0007FA06F52CEA050CC0F800C091F8F3
:101B700004C0D0F800E00CFA06FC4CEA0E0CC0F8E9
:101B800000C091F804C0BCF1010F02D0BCF1020FFB
:101B90001FD1D0F808C02CEA050CC0F808C091F895
:101BA00005C0D0F808E00CFA06FC4CEA0E0CC0F8B0
:101BB00008C0D0F804C02CEA020CC0F804C0426887
:101BC00091F806C00CFA03FC1FFA8CFC42EA0C02E6
:101BD0004260C268AA43C260CA79C568B2402A435B
:101BE000C2605B1C102BB3D3F0BD4B07DB0E9A40D9
:101BF000C90810B500EB8100016A0F249C40A14385
:101C00000162016A1143016210BDFEE72DE9F04156
:101C10001B4C064617462046FFF783FE194D01214F
:101C2000284600F0E3FA00223146284600F0B6FAD2
:101C30000121284600F04CF801212046FFF784FDE1
:101C40002046FFF71DFE0128FAD1C204397820464C
:101C5000FFF762FE0C4E20463146FFF719FE0028C2
:101C6000F9D00021284600F033F80121284600F081
:101C7000D1FA2046BDE8F0410449FFF74FBD00000E
:101C8000A0600240005400400000202000003D20E1
:101C90000029018802D041F4806101E021F48061D3
:101CA0000180704702460020938A128B43EA024368
:101CB00023F07F42914300D1012070470029018821
:101CC00002D041F0010101E021F0010101807047E3
:101CD0000029818802D041F4006101E021F4006113
:101CE000818070470D4910B5884202D101214C0511
:101CF0000AE00B49884202D101218C0504E0094920
:101D000088420AD10121CC05204600F05FFB204625
:101D1000BDE81040002100F059BB10BD0054004048
:101D200000580040005C00400029018802D041F4C6
:101D3000807101E021F480710180704700290188E1
:101D400002D041F4007101E021F40071018070477C
:101D50000CB50246002000920A0F21F07F4101924B
:101D600002D0009A143202E0009A090C1832009254
:101D700012680A4200D001200CBD00007FB5044665
:101D800080880D4620F03F06684600F043FB274957
:101D90000298B0FBF1F189B20E43A680228822F0AE
:101DA00001022280224B2A689A421BD85200B0FBC3
:101DB000F2F080B2042800D20420491C2184A083C0
:101DC000208840F00100208021884FF6F530014046
:101DD000A8886A89104308432080A8892989084374
:101DE00020817FBDEB88A3F53F46FF3E0BD002EB81
:101DF000C20303EB0212B0FBF2F080B240F4804069
:101E0000020506D007E002EB4202B0FBF2F080B21E
:101E1000F6E740F001004FF4967251434FF47A72A6
:101E2000B1FBF2F140F40040C7E7000040420F0070
:101E3000A08601002DE9F74F06469F4802259F4FD7
:101E4000012486B0864256D1672904D089291CD046
:101E5000692930D04CE00121022000F09FFA8DF872
:101E600014508DF81640C02004908DF817408DF85E
:101E7000155004A93846FFF767FE042206213846AC
:101E8000FFF7B3FE042207212FE00121022000F01A
:101E900085FA8DF814508DF816404FF44070049078
:101EA0008DF817408DF8155004A93846FFF74CFE01
:101EB0000422082114E00121022000F06FFA8DF8BD
:101EC00014508DF816404FF4107004908DF81740A0
:101ED0008DF8155004A93846FFF736FE0422062176
:101EE0003846FFF782FE042209213846FFF77DFEBF
:101EF00001214805B9E0DFF8C8B1DFF8C8915E45B7
:101F00003FD1B12907D00327DFF8BC81F0291ED0CB
:101F1000F4291CD0A0E00121022000F03FFA8DF846
:101F200014508DF816404FF4406004908DF817401F
:101F30008DF8155004A93846FFF706FE04220A2141
:101F40003846FFF752FE04220B21384682E0012179
:101F5000202000F023FA8DF814508DF816408DF8EB
:101F600017408DF81550049704A945464046FFF7E1
:101F7000EBFD042200212846FFF737FE0422012151
:101F800067E04E4568D1DFF844814FF4807AA42998
:101F900002D0A9292FD05FE00121084600F0FEF908
:101FA0000121022000F0FAF98DF814508DF8164046
:101FB0008DF81740CDF810A08DF8155004A94046B3
:101FC000FFF7C2FD8DF814508DF8164010200490D4
:101FD0008DF817408DF8155004A93846FFF7B4FD69
:101FE000042208214046FFF700FE0422114638462D
:101FF000FFF7FBFD37E00121084600F0CFF9012192
:10200000042000F0CBF98DF814508DF816408DF8AF
:102010001740CDF810A08DF8155004A9474640464A
:10202000FFF792FD8DF814508DF816408DF817408B
:102030008DF815504FF40070254D049004A92846E2
:10204000FFF782FD042208213846FFF7CEFD042267
:1020500009212846FFF7C9FD5E4502D10121880507
:1020600003E04E4503D10121C80500F0A3F9304635
:10207000FFF738FE4FF48060ADF80A000001ADF8BC
:102080000C00089800904BF6FF70ADF80600002099
:10209000ADF80400ADF8084069463046FFF76EFE23
:1020A00001213046FFF70AFE0021304600F094F887
:1020B00009B0BDE8F08F0000005400400004024069
:1020C00000580040005C0040001402400000024044
:1020D0000008024070B50546012901D011B104E0A5
:1020E000002100E00121FFF7D3FD094C28462146DD
:1020F000FFF7D8FD0028F9D0064C28462146FFF707
:1021000027FE0028F9D02846BDE8704000F038B816
:1021100040000300400000102DE9F0410E461D462E
:10212000174680460121069C00F060F800223146E7
:10213000404600F033F83946404600F07DF8012172
:10214000404600F053F801223146404600F026F8A0
:1021500006E07DB100214046FFF7BCFF04F8010B0B
:102160006D1EEDB2F5D20121404600F053F800207B
:10217000BDE8F08101214046FFF7ACFF2070F2E797
:10218000008AC0B2704712B141F0010101E001F0D4
:10219000FE010182704701827047000070B505465C
:1021A0005AB1012A08D1FFF7EEFF094C2846214613
:1021B000FFF778FD0028F9D070BD0022FFF7E3FF9C
:1021C000044C28462146FFF76DFD0028F9D070BD6C
:1021D00002000300820007000029018802D041F4B8
:1021E000004101E0C1F30E010180704770B50C465B
:1021F0000546FFF74DFD21462846FFF795FD044CA7
:1022000028462146FFF74EFD0028F9D070BD00009A
:102210000100030070B5074C0D46064621463046C6
:10222000FFF740FD0028F9D129463046BDE870404F
:10223000FFF784BD8400070070B50546FFF7ABFFCC
:10224000074C28462146FFF72DFD0028F9D0054C04
:1022500028462146FFF77CFD0028F9D070BD00001C
:1022600080000700800000102DE9F0410C461E465A
:10227000174605460121FFF7B9FF002221462846EF
:10228000FFF78CFF39462846FFF7D6FF0121284685
:10229000FFF7ACFF002221462846FFF77FFF3146BB
:1022A0002846FFF7C9FF2846BDE8F0410121FFF7A6
:1022B000B1BF10B545F2555000F02AF8062000F0E5
:1022C0001BF84FF4207000F01DF800F00DF8BDE889
:1022D000104000F001B8000002494CF6CC40086004
:1022E000704700000030004002494AF6AA2008600A
:1022F000704700000030004001494860704700000E
:102300000030004001498860704700000030004004
:10231000014908607047000000300040FEE7704748
:1023200030B50F22C47801780123FCB1144C246825
:1023300001F1E02104F4E064C4F5E064C4F307248F
:10234000C4F10405E2404478AC408578154025434B
:102350002A0181F80024007800F01F018B40400919
:10236000800000F1E020C0F8003130BD01F01F0016
:1023700083404809800000F1E020C0F8803130BD82
:102380000CED00E002490843024908607047000074
:102390000000FA050CED00E070470000044A002937
:1023A000116801D0014300E08143116070470000D3
:1023B00030380240044A0029116801D0014300E08E
:1023C000814311607047000040380240044A0029F0
:1023D000116801D0014300E08143116070470000A3
:1023E00020380240044A0029116801D0014300E06E
:1023F000814311607047000044380240044A0029BC
:10240000116801D0014300E0814311607047000072
:102410002438024070B52B4A11682B4B11F00C0583
:1024200007D05C10042D06D0111F082D05D00C2DEF
:1024300017D003602DE004602BE00D68C5F38056D3
:102440000D6805F03F0516B1B4FBF5F301E0B3FBF1
:10245000F5F30C680968C4F388146343C1F30141C0
:1024600012E00D68C5F380560D6805F03F0516B102
:10247000B4FBF5F301E0B3FBF5F30C680968C4F3B2
:1024800088146343C1F30271491C4900B3FBF1F1A5
:10249000016011680F2303EA11110C4B5C5C0168A9
:1024A000E14041601468072505EA94241C5D21FA87
:1024B00004F48460126805EA52329A5CD140C1602B
:1024C00070BD0000083802400024F40040000020E5
:1024D00010B5002000F024F8BDE8104000F03EB92F
:1024E00070B5802813D2402911D20B4B012401F082
:1024F00007051E79AC40094BC90800EBC1100EB1AD
:1025000032B101E0012A03D0195CA143195470BD16
:10251000195C2143FAE70000300000209E010020F2
:1025200028B1FF224FF480610248FEF704B8002270
:10253000F8E700009E010020014A1080518070479A
:102540003000002010B501F091FA40F6C410401E92
:10255000FDD1AE220021782001F0CEFA2022002108
:10256000782001F0C9FA10220021782001F0C4FA85
:10257000B0220021782001F0BFFAC8220021782083
:1025800001F0BAFA00221146782001F0B5FA1022C3
:102590000021782001F0B0FA40220021782001F0DB
:1025A000ABFA81220021782001F0A6FAFF22002157
:1025B000782001F0A1FAA1220021782001F09CFAF4
:1025C000A6220021782001F097FAA8220021782085
:1025D00001F092FA3F220021782001F08DFAA42226
:1025E0000021782001F088FAD3220021782001F020
:1025F00083FA00221146782001F07EFAD5220021CC
:10260000782001F079FAF0220021782001F074FAA4
:10261000D9220021782001F06FFA222200217820AF
:1026200001F06AFADA220021782001F065FA12221C
:102630000021782001F060FADB220021782001F0EF
:102640005BFA20220021782001F056FA8D22002129
:10265000782001F051FA14220021782001F04CFA80
:10266000AF220021782001F047FA2E2200217820A5
:1026700001F042FA0020FFF753FF00F06FF8044822
:1026800000210180418001214171084610BD0000F8
:10269000300000202DE9F047814625480D4692463E
:1026A00001882A781144802905D2804640886978BB
:1026B0000844402802D30020BDE8F08700262AE025
:1026C000A9F1200111FB00606A68002432F8107043
:1026D0001DE000BF07FA04F0000409D5B8F80210A5
:1026E000B8F800003144204489B280B252460BE071
:1026F000BAF1000F1AD00022B8F80210B8F80000A2
:102700003144204489B280B2FFF7EAFE641C287885
:10271000A042DFD8761C6878B042D1D8B8F8001053
:102720002A7848461144A8F80010C5E70122E3E7DB
:102730003000002070B515460E46044609E02A46D2
:102740003146FFF7A7FF2178884201D0C8B270BD9B
:10275000641C20780028F2D1C0B270BD70B5104D55
:10276000002400BF04F1B000C2B20021782001F0C3
:10277000C3F900221146782001F0BEF91022002191
:10278000782001F0B9F905EBC412802340217820AC
:1027900001F0BCF9641CE4B2082CE3D370BD000066
:1027A0009E0100207047000010B58A0721F0030445
:1027B0000849130F21440F22D1F808489A40944346
:1027C000C1F80848D1F8082898400243C1F8082801
:1027D00010BD00000030014010B5044600F002F9C1
:1027E00009480068B0FBF4F0401EB0F1807F0AD2C7
:1027F0004FF0E0214861054AF02082F8140D0020D6
:1028000088610720086110BD000000200FE000E093
:102810001CB500202E49019000900A6842F48032D5
:102820000A604FF4A0430A6802F400320092019A51
:10283000521C0192009A12B9019A9A42F3D10A6885
:10284000920342D50120009021484030026842F0B6
:10285000805202601F48026842F4404202601C4AF3
:10286000083213681360136843F40043136013685D
:1028700043F4A0531360141F174B23600B6843F0FD
:1028800080730B600B689B01FCD5016841F48031BB
:1028900001604168C903FCD5016841F40031016061
:1028A00041688903FCD50D4940F205700860106845
:1028B00020F003001060106840F002001060106803
:1028C000C0F381000228FAD11CBD00901CBD00009D
:1028D0000038024000700040085A4077003C024037
:1028E00002480168491E016070470000380000205E
:1028F000124810B5016841F4700101601048016888
:1029000041F0010101600E4A0021083211600268A5
:102910000C4B1A400260031D0B4A1A60026822F435
:102920008022026006480C300160FFF771FF034906
:102930004FF000608039086010BD000088ED00E0B5
:1029400000380240FFFFF6FE103000240029018805
:1029500002D041F0010101E021F001010180704746
:10296000406A70474162704730B50288164B174C79
:1029700098420DD0A0420BD0B0F1804F08D0144D3A
:10298000A84205D0134DA84202D0134DA84203D14E
:1029900022F070054A882A43104DA84206D0104DF7
:1029A000A84203D022F440750A892A4302804A686B
:1029B000C2620A880285984201D0A04201D1897A78
:1029C00001860121818230BD0000014000040140E8
:1029D0000004004000080040000C004000100040CF
:1029E000001400403EB501211020FFF7E3FC592000
:1029F000ADF800004FF6FF70054C01906946204687
:102A0000FFF7B2FF01212046FFF7A0FF3EBD000007
:102A100000100040F0B58BB028216846FDF793FD0B
:102A200000273C4640F22551FD4800F094FB002869
:102A30003DD000210846FFF77FFD0122F949FAA0A9
:102A4000FFF778FE0A210020FFF776FD0122F54905
:102A5000FBA0FFF76FFEFE4EFE490025307820B93F
:102A6000CD557F1CFFB2FF2FFAD3ED4A121D1288FD
:102A70000A54401C3070F748FDF73EFD3C2812D840
:102A80000D21F448FDF71CFD68B1F3A1F148FDF7F5
:102A900021FD00280BD0F1A1EE48FDF70BFD6F469C
:102AA0004DF8240010E03570EDA0FDF70BFC0BB0E5
:102AB000F0BDEAA10020FDF7FDFC641CE4B247F87C
:102AC0002400357057F824000028F2D1E8A00099BE
:102AD000FDF7F8FBE6A00199FDF7F4FBE4A00299ED
:102AE000FDF7F0FBE2A00399FDF7ECFBE0A00499F1
:102AF000FDF7E8FBDEA00599FDF7E4FBDCA00699F5
:102B0000FDF7E0FBDBA10198FDF744FDDB4C01265E
:102B1000C0B1D8A10298FDF73DFD98B1D5A10398A9
:102B2000FDF738FD70B1D3A10498FDF733FD48B12E
:102B3000D0A10598FDF72EFD20B1CEA10698FDF796
:102B400029FD60B9C4F8806214210020FFF7F4FC6D
:102B50000122B449CAA0FFF7EDFDFFF7FFFDCBA1AD
:102B60000198FDF717FDC0B1C8A10298FDF712FD4D
:102B700098B1C6A10398FDF70DFD70B1C3A10498EB
:102B8000FDF708FD48B1C1A10598FDF703FD20B18F
:102B9000BEA10698FDF7FEFC60B9C4F8805214216E
:102BA0000020FFF7C9FC01229E49BBA0FFF7C2FD30
:102BB000FFF7D4FDBBA10198FDF7ECFCC0B1B9A1B2
:102BC0000298FDF7E7FC98B1B6A10398FDF7E2FC87
:102BD00070B1B4A10498FDF7DDFC48B1B1A105982E
:102BE000FDF7D8FC20B1AFA10698FDF7D3FC60B982
:102BF000C4F89C621E210020FFF79EFC0122894937
:102C0000AAA0FFF797FDFFF7A9FDABA10198FDF77B
:102C1000C1FCC0B1A8A10298FDF7BCFC98B1A6A167
:102C20000398FDF7B7FC70B1A3A10498FDF7B2FCBF
:102C300048B1A1A10598FDF7ADFC20B19EA1069871
:102C4000FDF7A8FC60B9C4F89C521E210020FFF7D4
:102C500073FC012273499BA0FFF76CFDFFF77EFD1B
:102C60009BA10198FDF796FCC0B199A10298FDF7D0
:102C700091FC98B196A10398FDF78CFC70B194A1DA
:102C80000498FDF787FC48B191A10598FDF782FCF7
:102C900020B18FA10698FDF77DFC60B9C4F8B86239
:102CA00028210020FFF748FC01225E498AA0FFF797
:102CB00041FDFFF753FD8BA10198FDF76BFCC0B1FF
:102CC00088A10298FDF766FC98B186A10398FDF7EC
:102CD00061FC70B183A10498FDF75CFC48B181A14F
:102CE0000598FDF757FC20B17EA10698FDF752FC30
:102CF00060B9C4F8B85228210020FFF71DFC01225A
:102D000048497BA0FFF716FDFFF728FD7BA101983E
:102D1000FDF740FCC0B179A10298FDF73BFC98B1EA
:102D200076A10398FDF736FC70B174A10498FDF705
:102D300031FC48B171A10598FDF72CFC20B16FA1C1
:102D40000698FDF727FC60B9C4F8846214213C2082
:102D5000FFF7F2FB012233496AA0FFF7EBFCFFF714
:102D6000FDFC6BA10198FDF715FCC0B168A10298AC
:102D7000FDF710FC98B166A10398FDF70BFC70B14C
:102D800063A10498FDF706FC48B161A10598FDF721
:102D900001FC20B15EA10698FDF7FCFB60B9C4F808
:102DA000845214213C20FFF7C7FB01221D495BA080
:102DB000FFF7C0FCFFF7D2FC5BA10198FDF7EAFB2F
:102DC000C0B159A10298FDF7E5FB98B156A103984F
:102DD000FDF7E0FB70B154A10498FDF7DBFB48B1AF
:102DE00051A10598FDF7D6FB20B14FA10698FDF73C
:102DF000D1FB60B9C4F884621E213C20FFF79CFB24
:102E0000012208494AA0FFF795FCFFF7A7FC4BA158
:102E10000198FDF7BFFB08B148A195E0B0E00000C4
:102E2000004400402000002048454C4C4F205354A3
:102E30004D3332463434365A4520202000000000FD
:102E4000566F205472756E672048696575000000E2
:102E500014000020540000202B0D0A002B0000005D
:102E60000A4552524F525F4255464645520A0000AB
:102E700025730A004C4544315F4F4E0000804042AC
:102E80004C4544313A4F4E20000000004C4544313F
:102E90005F4F4646000000004C4544313A4F4646DD
:102EA000000000004C4544325F4F4E004C45443218
:102EB0003A4F4E20000000004C4544325F4F4646DA
:102EC000000000004C4544323A4F464600000000E6
:102ED0004C4544335F4F4E004C4544333A4F4E20EF
:102EE000000000004C4544335F4F464600000000A0
:102EF0004C4544333A4F4646000000004C454434AC
:102F00005F4F4E004C4544343A4F4E2000000000C5
:102F10004C4544345F4F4646000000004C45443465
:102F20003A4F4646000000004C4544355F4F4E0086
:102F30004C4544353A4F4E20000000004C45443586
:102F40005F4F4646000000000298FDF723FBB8B132
:102F5000AFF218010398FDF71DFB88B1AFF2240111
:102F60000498FDF717FB58B1AFF230010598FDF753
:102F700011FB28B1AFF23C010698FDF70BFB60B9DD
:102F8000C4F884521E213C20FFF7D6FA01222F49B3
:102F90002FA0FFF7CFFBFFF7E1FB30A10198FDF772
:102FA000F9FAC0B12DA10298FDF7F4FA98B12BA15E
:102FB0000398FDF7EFFA70B128A10498FDF7EAFA3B
:102FC00048B126A10598FDF7E5FA20B123A106989E
:102FD000FDF7E0FA60B9C4F8846228213C20FFF7CD
:102FE000ABFA012219491FA0FFF7A4FBFFF7B6FBBC
:102FF0001FA10198FDF7CEFAD0B11DA10298FDF7EF
:10300000C9FAA8B11AA10398FDF7C4FA80B118A1B2
:103010000498FDF7BFFA58B115A10598FDF7BAFA63
:1030200030B113A10698FDF7B5FA00287FF43FAD43
:10303000C4F8845228213C20FFF77EFA012203497C
:103040000EA0FFF777FBFFF789FB30E5200000209B
:103050004C4544353A4F4646000000004C45443646
:103060005F4F4E004C4544363A4F4E200000000062
:103070004C4544365F4F4646000000004C45443600
:103080003A4F4646000000000029818902D041F4F1
:10309000005101E021F4005181817047224910B5AF
:1030A000884206D101211020FFF7A8F90021102045
:1030B00020E01E49884202D101214C0429E01C492C
:1030C000884202D101218C0423E01A49884202D1AE
:1030D0000121CC041DE01849884202D101210C05D0
:1030E00017E01649884209D101212020FFF786F90F
:1030F00000212020BDE81040FFF780B91049884228
:1031000002D101218C0704E00E4988420AD1012135
:1031100044052046FFF75AF92046BDE8104000213B
:10312000FFF754B910BD00000010014000440040FA
:1031300000480040004C0040005000400014014096
:1031400000780040007C00400246002012880A42BD
:1031500000D00120704730B501F01F020124002586
:10316000C1F3421304FA02F2012B0FD0022B0FD04D
:10317000838A4FEA11210088134204FA01F400EA1D
:10318000040001D000B10125284630BD8389F0E755
:10319000038AEEE710B5C1F3421301F01F040121C9
:1031A000A140012B07D0022B07D01430002A02685F
:1031B00005D00A4304E00C30F8E71030F6E78A4304
:1031C000026010BD7FB50446008A0D4620F44051D0
:1031D000E88808432082A08941F20C618843A988CD
:1031E0002A8911436A8902431143A181A08A20F4EC
:1031F0004071A8890843A0826846FFF70BF91A4876
:10320000844202D01948844201D1039800E0029818
:10321000A189090400EBC00101EB0010296801D568
:10322000490000E08900B0FBF1F26420B2FBF0F14C
:1032300009010B096FF018056B4302EB8302A389A8
:103240001D044FF0320306D503EBC202B2FBF0F0CF
:1032500000F0070005E003EB0212B2FBF0F000F013
:103260000F00084320817FBD001001400014014081
:103270002DE9FF4F0646FF4800240225DFF8F883BA
:1032800087B04FF0030B864245D12527A02902D0F5
:10329000A1291ED03CE001210846FFF77FF88DF8F8
:1032A00004508DF806404FF4C0608DF80740009040
:1032B0008DF808708DF80550694644464046FEF783
:1032C00043FC072209212046FEF78FFC07220A2132
:1032D0001BE001210220FFF761F88DF804508DF802
:1032E00006408DF80740C020E44C00908DF808702F
:1032F0008DF8055069462046FEF726FC0722062178
:103300002046FEF772FC072211462046FEF76DFCB0
:10331000012110207EE1DA48DFF8689386423FD130
:103320002627A22902D0A3291DD056E10121084653
:10333000FFF734F88DF804508DF806400C208DF816
:10334000074000908DF808708DF805506946444696
:103350004046FEF7F9FB072202212046FEF745FC16
:103360000722032147E001210820FFF717F88DF815
:1033700004508DF8064060208DF8074000908DF8CD
:1033800008708DF8055069464C464846FEF7DCFB50
:10339000072205212046FEF728FC072206212AE005
:1033A000B948BA4F4FF4406A86425ED14FF02708C1
:1033B000A52904D0A62920D0A72939D00DE10121C3
:1033C0000220FEF7EBFF8DF804508DF806408DF8D3
:1033D0000740AA4C8DF80880CDF800A08DF8055064
:1033E00069462046FEF7B0FB07220A212046FEF779
:1033F000FCFB07220B212046CBE001210420FEF735
:10340000CDFF8DF804508DF806408DF807408DF8FB
:103410000880CDF800A08DF8055069463846FEF7C3
:1034200093FB07220A213846FEF7DFFB07225DE007
:1034300001210820FEF7B2FF8DF804508DF80640F8
:103440004FF440708DF8074000908DF808808DF89B
:10345000055069464C464846FEF776FB0722082190
:103460002046FEF7C2FB0722B2E0894886423FD1E0
:103470004FF03409A82902D0A9291DD0ADE00121BF
:103480000846FEF78BFF8DF804508DF806408DF846
:1034900007408DF80890CDF800B08DF805506946CA
:1034A00044464046FEF750FB082200212046FEF726
:1034B0009CFB082201219EE701210420FEF76EFFFC
:1034C0008DF804508DF806408DF807408DF808906F
:1034D000CDF800A08DF8055069463846FEF734FB5C
:1034E00008220A213846FEF780FB08220B214FE014
:1034F0006848864227D1B1296FD101210420FEF707
:103500004DFF01210820FEF749FF35208DF8080006
:103510008DF804508DF80640042000908DF8074087
:103520008DF8055069463846FEF70EFB69464C4655
:103530004846FEF709FB08220C213846FEF755FBEA
:103540000822022157E75448864243D14FF04708EA
:10355000A52902D0A6291FD03FE001210420FEF7B3
:103560001DFF8DF804508DF80640C02000908DF8A6
:1035700007408DF808808DF8055069463846FEF7FB
:10358000E3FA082206213846FEF72FFB082207211E
:103590003846FEF72AFB20E001214020FEF7FEFE20
:1035A0008DF804508DF806408DF807404FF48440A4
:1035B0003A4C00908DF808808DF8055069462046F9
:1035C000FEF7C2FA08220E212046FEF70EFB082263
:1035D000092110E73248864222D02948864202D18A
:1035E0000121480424E02848864202D101218804B0
:1035F0001EE02748864202D10121C80418E0254870
:10360000864202D10121080512E02348864204D1F6
:1036100001212020FEF7E6FE0CE02148864202D17F
:103620000121880704E01F48864203D1012140059B
:10363000FEF7C0FE3046FFF731FD099803900A9867
:10364000ADF818001498ADF816001598ADF81400F0
:103650001698ADF812001798ADF8100003A930467F
:10366000FFF7B0FD012240F225513046FFF792FDF1
:10367000012119E000100140000002400004024056
:1036800000440040000C0240004800400008024096
:10369000004C00400050004000140140001802405F
:1036A00000780040007C00403046FFF7EDFC4FF40E
:1036B000C060FEF767FE8DF809B08DF80AB00120F2
:1036C0008DF80B0002A8FEF72BFE0BB0BDE8F08FC3
:1036D000C1F308018180704713B504469DF80410BA
:1036E000FFF7F6FF80212046FFF72EFD0028F9D0D6
:1036F0001CBDFEE703B401984100009850EAC120C8
:1037000018BF04204A0D18BF40F0010040F2FF72BC
:10371000B2EB515F08BF40F00200012808BF05204E
:1037200002B0704730380A2801D2012070470020CB
:103730007047000010B500242DED048BB0EE408AD8
:10374000F0EE608A9FED0A9B07E000BFB0EE490AE9
:10375000F0EE690A00F010F8641C204600F098FBB7
:1037600053EC182B00F0BEFBF0D3BDEC048B10BD66
:103770000000000000408F4010B50C4C00212DEDE2
:10378000028BB0EE408AF0EE608A2046FFF7EAF83E
:103790002046FFF7E5F800F092FB53EC182B00F001
:1037A000A1FBF5D3BDEC028B10BD00000010004062
:1037B00010B50446C1B20248FFF78EFF204610BD87
:1037C000004400402DED048B84B0012500950023BA
:1037D0002A4644F681016E480195FEF757F9002408
:1037E0002346224601216B48CDE90045FEF74EF9FC
:1037F0004FF47A70FEF7F0FF0C20CDE9000402943C
:1038000000234FF41652A32163480394FFF730FDC1
:10381000FEF798FEFEF7C0F8FDF7D8FEFEF758FE5B
:1038200000210846FEF788FE01225C495CA0FEF7F5
:1038300081FF1E210520FEF77FFE01225D495EA06B
:10384000FEF778FFFEF78AFF9FED5E0BFFF772FF32
:10385000FEF73EFE00210846FEF76EFE01224F49AC
:103860005AA0FEF767FF0A210020FEF765FE01223D
:103870004A495BA0FEF75EFF9FED5D8BB0EE480A04
:10388000F0EE680AFFF756FF14210020FEF754FE01
:103890000122424958A0FEF74DFF1E210020FEF7ED
:1038A0004BFE01223D4957A0FEF744FF282100208E
:1038B000FEF742FE0122394955A0FEF73BFF1421D5
:1038C0003C20FEF739FE0122344954A0FEF732FFB6
:1038D0001E213C20FEF730FE0122304952A0FEF7A7
:1038E00029FF28213C20FEF727FE01222B4951A069
:1038F000FEF720FFFEF732FFFEF7DBFCB0EE480AD2
:10390000F0EE680AFFF716FF4E4C4D4E651E9FED18
:103910004E8B9FED4F9B10231A4646213046FEF7F3
:10392000A3FCC820FEF700F80223002246213046FF
:103930000094FEF7F1FB6078217800EB012080B263
:10394000E88000F0BCFA53EC182B00F049F900F0C5
:1039500009F9A86000F056FB41EC110B3EA153ECB5
:10396000112B4148FCF7BAFC32210020FEF7E4FDA0
:1039700001220A493C48FEF7DDFEFEF7EFFEB0EEFD
:10398000490AF0EE690AFFF7D5FEFEF7ADFCC2E783
:1039900000040240001002400044004020000020CB
:1039A00048454C4C4F2053544D3332463434365AEC
:1039B000452000002800002048454C4C4F20574F20
:1039C000524C44000000000000409F4048454C4CD1
:1039D0004F2053544D3332463434365A452020005C
:1039E000566F205472756E67204869657500000037
:1039F00000000000000034404C4544313A4F464638
:103A0000000000004C4544323A4F4646000000009A
:103A10004C4544333A4F4646000000004C45443480
:103A20003A4F4646000000004C4544353A4F464662
:103A3000000000004C4544363A4F46460000000066
:103A40000054004015000020333333333333F33F49
:103A50000000000000407F404C75783A2025342E4D
:103A600032662020200000009000002030B51D4864
:103A70008FB0401EFDD11D4C1B4A89212046FEF708
:103A8000D9F901214805FEF789FC194D2846FDF7B3
:103A900065FE4FF000700090144800211030019036
:103AA0001448029040200390FF20CDE90401201526
:103AB000CDE9060180010891CDE909100320CDE987
:103AC0000B100D910E9169462846FDF7FBFE012172
:103AD0002846FDF739FE01212046FEF7F9F80FB020
:103AE00030BD000090D00300801A06000054004052
:103AF000A06002409F00002003480170427002460F
:103B000003217820FEF782B89F00002030B4094CD2
:103B10000020217004E0115C2518401C6970C0B2BF
:103B20009842F8D35B1C30BCD9B2024A7820FEF729
:103B30006DB800009F00002010B500290AD0087859
:103B4000002807D005487844FCF724FD002801D060
:103B5000002010BD0248784410BD0000361B000054
:103B60002E1B000021F00042A2F16052B2F5801F2E
:103B700001F0004328BFD2F17F6C0BD95FEA001C33
:103B800043EAC20242EB507018BF704728BF20F0D2
:103B900001007047B2F5801FBCBF184670474FEA5E
:103BA000410C1CF5001F02D2084600F0A1BA70B506
:103BB00000F0D4F900000089FFF7F6BF4FF0004095
:103BC000A0F580007047491058BFC1F140415B101B
:103BD00058BFC3F140438B42EFF3008070470000B1
:103BE0002DE9C04130B4DFF8A0C23CEA111418BF7F
:103BF0003CEA131400F0EC8081EA03051CEA11147E
:103C000044EAD57418BF1CEA131500F0C780A4EB72
:103C100005044FF0004545EAC12145EAC32341EAC6
:103C2000505143EA525304F17F74994204F5003431
:103C30004FEAC0204FEAC22208BF904200F09C80A9
:103C40004FEA13650FF24016765D4FEA134506FB07
:103C500005F7C7F1807706FB07F74FEAD737A7FBD1
:103C600003687642C8F58038A7FB06CE38BFA8F1B6
:103C7000010807FB08E64FF0000EA6FB028CE6FBEE
:103C800003CEDCF1000CCEF1004E38BFAEF1010ED8
:103C9000A6FB0C584FF000074FF00005E6FB0E871F
:103CA000A1FB08C6A0FB07CE16EB0E0645F10005EA
:103CB000E1FB076515F1E04E7EBFA4F580345FEAB5
:103CC00046066D4116F1800745F100054FEA1727BA
:103CD0004FEA066647EA0567A6F1DE46B6F1805F61
:103CE0004FEA15251FD9384624F0010C05EBC471A5
:103CF000BCF1FE6F01EB0C1102D8F0BCBDE80081F5
:103D000024425CBF01F5801E9EEAC47F02D4F0BC51
:103D1000BDE80081244238D4F0BCA1F1C041BDE827
:103D2000004100F069B94FEAD22242EA43524FEA19
:103D3000D323A7FB02864FEAD02040EA415007FB7D
:103D400003661EEA0E0F4FEAD12105FB026658BF3B
:103D5000A6EB0056B6EB00564FEA520E4EEAC37E73
:103D600018EB0E0E56EB530EBDD518EB02085E4154
:103D70007F1C55F10005B6E74FF480154FF00007A2
:103D80004FF000064FF00008ADE7F0BC4FF0000028
:103D900001F1C04101F00041BDE8008111EA0C1FB2
:103DA0000CEA131500D00CE013EA0C1F00F025807C
:103DB0004FF00000F0BC81EA030101F00041BDE8D2
:103DC0000081F0BCBDE8004181EA030100F014B9B4
:103DD000F0BCBDE8004170B500F0C0F8097EFC3EC3
:103DE00000F007B881EA03014FF0000001F0004144
:103DF000704781EA030100F0FFB8F0BCBDE8004164
:103E00004FF0000021497047FFFDFBF9F7F5F4F290
:103E1000F0EEEDEBE9E8E6E4E3E1E0DEDDDBDAD865
:103E2000D7D5D4D3D1D0CFCDCCCBCAC8C7C6C5C4C3
:103E3000C2C1C0BFBEBDBCBBBAB9B8B7B6B5B4B3DA
:103E4000B2B1B0AFAEADACABAAA9A8A8A7A6A5A4C5
:103E5000A3A3A2A1A09F9F9E9D9C9C9B9A99999889
:103E60009797969595949393929191908F8F8E8E2C
:103E70008D8C8C8B8B8A89898888878786858584B9
:103E800084838382828181800000FF070000F87FA5
:103E900010F0004248BF4042B0FA80F310FA03F13C
:103EA0000AD0C3F11D0303F580634FEA415002EBD2
:103EB000035202EBD12170474FF000007047B0FA77
:103EC00080F310FA03F10AD0C3F11D0303F58063F8
:103ED0004FEA41504FEA035202EBD12170474FF0B5
:103EE0000000704751EA030C17D41CF5801F58BF1F
:103EF000BCF5801F00F10680994218BF704708BFCB
:103F00009042704707D711F5801F58BF13F5801FE7
:103F100019D499427047894270471CF5801F08D513
:103F2000BCF5801FF7D58B4218BF704708BF82428F
:103F300070474FF4001C1CEB410F38BF1CEB430FC4
:103F400001D28B42704770B500F008F89224490006
:103F50004FF000514FF08053FFF735BE0EF1020EC7
:103F60002EF0030E5EF8046B364205D4012A43EBB3
:103F7000030515F5001F12D8012841EB010C1CF5B3
:103F8000001F0CD80ED14FEAD17C15F5001F0CEBA9
:103F90004C0C0CF1020C08BF4CEBD37C04E04FF04E
:103FA000080C01E04FEAD37C0CEB4C0526FA05F631
:103FB00006F00706B6F1040C06D20EEB860CBDE83F
:103FC00070404CF0010C6047DFE80CF0090B020276
:103FD0004FF000414FF00000A1F5002170BD1946DF
:103FE0001046012851EB010418BFD4F5001484BF1A
:103FF000002001F0004170BD0808A0F500114FEA53
:104000003101704743004FEAD30C4FEA3C0C434068
:104010001FBF40070CF1605113F0FE4F70471CF0BA
:10402000006F03D100200CF0004170470CF00043FA
:1040300043EA507010B540EACC0000F00EF800BF23
:10404000000000924FEA0001FFF7D6BF4FF0004199
:104050004FF00000A1F5002170470EF1020E2EF086
:10406000030E5EF8044B244204D44FEA4102B2F13D
:104070007F4F11D84FEA4003B3F17F4F0CD80ED1D8
:104080004FEAD07CB2F17F4F0CEB4C0C0CF1020CE0
:1040900008BF4CEBD17C04E04FF0080C01E04FEA84
:1040A000D17C0CEB4C0324FA03F404F00704B4F1C4
:1040B000040C06D20EEB840CBDE810404CF0010C51
:1040C0006047DFE80CF0070802024FF00040A0F55F
:1040D000800010BD0846420018BFD2F1807288BF30
:1040E00000F0004010BD4FF04070E1EE100A704744
:1040F000FF2141EAD050C0057047FCF767BB0000C4
:1041000000000000000000000000000000000000AF
:10411000000000100010001000100010001000003F
:104120000010000000000028002800280000000007
:104130000000000000000000000000240024007CBB
:1041400000240048007C00480048000000000038BF
:10415000005400500038001400540054003800107F
:1041600000000020005400580030002800540014C3
:104170000008000000000010002800280010003493
:10418000004800480034000000000010001000103B
:104190000000000000000000000000000000000817
:1041A000001000200020002000200020002000102F
:1041B000000800200010000800080008000800089F
:1041C0000008001000200010003800100028000037
:1041D00000000000000000000000000000000010CF
:1041E0000010007C00100010000000000000000023
:1041F000000000000000000000000000001000109F
:104200000010000000000000000000000038000066
:10421000000000000000000000000000000000009E
:10422000000000000010000000000008000800105E
:1042300000100010001000200020000000000038D6
:10424000004400440054004400440044003800008E
:10425000000000100030005000100010001000108E
:104260000010000000000038004400440004000872
:1042700000100020007C0000000000380044000412
:10428000001800040004004400380000000000088A
:104290000018002800280048007C000800080000E2
:1042A0000000007C0040004000780004000400444E
:1042B000003800000000003800440040007800444E
:1042C00000440044003800000000007C00040008A6
:1042D0000010001000200020002000000000003826
:1042E000004400440038004400440044003800000A
:1042F00000000038004400440044003C0004004436
:104300000038000000000000000000100000000065
:10431000000000000010000000000000000000008D
:10432000001000000000000000100010001000004D
:104330000000000C003000400030000C00000000C5
:104340000000000000000000007C0000007C000075
:1043500000000000000000000000006000180004E1
:104360000018006000000000000000380044000455
:1043700000080010001000000010000000000038CD
:104380000044004C0054005C004000400038000035
:10439000000000100028002800280028007C0044AD
:1043A000004400000000007800440044007800440D
:1043B0000044004400780000000000380044004041
:1043C0000040004000400044003800000000007041
:1043D00000480044004400440044004800700000CD
:1043E0000000007C00400040007C00400040004095
:1043F000007C00000000007C00400040007800408D
:104400000040004000400000000000380044004030
:104410000040005C004400440038000000000044FC
:1044200000440044007C0044004400440044000078
:1044300000000038001000100010001000100010E4
:104440000038000000000004000400040004000420
:104450000004004400380000000000440048005000
:104460000060005000480048004400000000004088
:10447000004000400040004000400040007C000040
:1044800000000044006C006C0054004400440044F0
:104490000044000000000044006400640054005424
:1044A000004C004C00440000000000380044004470
:1044B000004400440044004400380000000000783C
:1044C00000440044004400780040004000400000E8
:1044D00000000038004400440044004400440054FC
:1044E00000380004000000780044004400440078D4
:1044F000004800480044000000000038004400402C
:104500000030000800040044003800000000007C77
:10451000001000100010001000100010001000002B
:1045200000000044004400440044004400440044AF
:104530000038000000000044004400440028002827
:104540000028001000100000000000440044005447
:1045500000540054006C00280028000000000044B3
:104560000028002800100010002800280044000047
:104570000000004400440028002800100010001033
:10458000001000000000007C000400080010001073
:1045900000200040007C0000000000180010001007
:1045A0000010001000100010001000100018002073
:1045B000002000100010001000100008000800008B
:1045C000000000300010001000100010001000105B
:1045D00000100010003000100028002800440000E7
:1045E00000000000000000000000000000000000CB
:1045F00000000000000000000000000000FE00209D
:10460000001000000000000000000000000000009A
:1046100000000000000000380044003C0044004C52
:1046200000340000000000400040005800640044D6
:104630000044006400580000000000000000003842
:104640000044004000400044003800000000000426
:1046500000040034004C00440044004C00340000CE
:1046600000000000000000380044007C00400044CE
:10467000003800000000000C0010007C001000104A
:1046800000100010001000000000000000000034C6
:10469000004C00440044004C00340004007800400A
:1046A00000400058006400440044004400440000FE
:1046B000000000100000007000100010001000103A
:1046C000001000000000001000000070001000103A
:1046D000001000100010001000E0004000400048F2
:1046E00000500060005000480044000000000070CE
:1046F000001000100010001000100010001000004A
:1047000000000000000000780054005400540054E1
:104710000054000000000000000000580064004445
:104720000044004400440000000000000000003885
:104730000044004400440044003800000000000031
:104740000000005800640044004400640058004029
:104750000040000000000034004C00440044004CC5
:104760000034000400040000000000580064004011
:104770000040004000400000000000000000003841
:104780000044003000080044003800000000002011
:1047900000200078002000200020002000180000E9
:1047A0000000000000000044004400440044004CAD
:1047B0000034000000000000000000440044002815
:1047C0000028002800100000000000000000005435
:1047D00000540054006C0028002800000000000075
:1047E00000000044002800100010002800440000D1
:1047F00000000000000000440044002800280010D1
:1048000000100010006000000000007C0008001094
:1048100000200040007C0000000000180010001084
:1048200000100020002000100010001000180010E0
:1048300000100010001000100010001000100010F8
:1048400000100030001000100010000800080010D8
:104850000010001000300000000000000074004C48
:104860000000000000000000000000000000000048
:104870000000000000000000000000000000000038
:104880000000000000000000000000000000000028
:10489000000C000C000C000C000C000C000C000CB8
:1048A000000C000C000C0000000C000C00000000CC
:1048B00000000000001B001B001B001B001B000071
:1048C00000000000000000000000000000000000E8
:1048D0000000000000000000801980198019801974
:1048E000C07FC07F80190033C07FC07F003300339A
:1048F000003300330000000000000000001E003FF5
:10490000807580650074003C001E0007800580658E
:1049100080658075003F001E000400040000000058
:10492000007000D840D8C0D880D900730006000CB1
:10493000801BC036C066C046C00680030000000071
:1049400000000000001E003F003300330033001E53
:10495000000CC03CC066806380618063C03E801CE8
:104960000000000000000000000C000C000C000C17
:10497000000C00000000000000000000000000002B
:1049800000000000000000000000800000010003A3
:10499000000600060004000C000C000C000C000CCB
:1049A000000C000400060006000300018000002047
:1049B00000100018000C000C0004000600060006A1
:1049C0000006000600060004000C000C0018001091
:1049D00000200000000C002D003F001E00330000EE
:1049E00000000000000000000000000000000000C7
:1049F000000000000000000000000000000C000C9F
:104A0000000C000CC0FFC0FF000C000C000C000CE0
:104A10000000000000000000000000000000000096
:104A20000000000000000000000000000000000086
:104A300000000000000C000C00040004000800004E
:104A40000000000000000000000000000000000066
:104A5000001E001E0000000000000000000000001A
:104A60000000000000000000000000000000000046
:104A7000000000000000000000000000000C000C1E
:104A80000000000000000000000300030003000617
:104A9000000600060006000C000C000C000C0018BC
:104AA000001800180000000000000000001E003F79
:104AB0000033806180618061806D806D8061806184
:104AC00080610033003F001E000000000000000075
:104AD0000006000E001E0036002600060006000636
:104AE00000060006000600060006000600000000A2
:104AF00000000000001E003F807380618061800123
:104B000000030006000C001800300060807F807FEA
:104B10000000000000000000001C003E0063006375
:104B20000003000E000E000380018001806180738D
:104B3000003F001E00000000000000000006000E04
:104B4000000E001E001E0016003600360066807F34
:104B5000807F000600060006000000000000000044
:104B6000007F007F006000600060006E007F806357
:104B70008001800180618073003F001E0000000002
:104B800000000000001E003F803380610060006E66
:104B9000007F80738061806180618033003F001EF0
:104BA0000000000000000000807F807F8001000383
:104BB000000300060006000C000C000C00080018A2
:104BC000001800180000000000000000001E003F58
:104BD0008063806180610021001E003F80618061F0
:104BE00080618061003F001E0000000000000000A6
:104BF000001E003F00738061806180618073803F90
:104C0000801D800180610073003F001E00000000D5
:104C1000000000000000000000000000000C000C7C
:104C2000000000000000000000000000000C000C6C
:104C30000000000000000000000000000000000074
:104C40000000000C000C000000000000000000004C
:104C5000000C000C0004000400080000000000002C
:104C6000000080008003000E003800600038000E55
:104C70008003800000000000000000000000000031
:104C80000000000000000000807F807F0000000026
:104C9000807F807F00000000000000000000000016
:104CA0000000000000000000000000400070001C38
:104CB000000780010007001C007000400000000099
:104CC0000000000000000000001F803FC071C060B5
:104CD000C000C00180030007000E000C000C0000A3
:104CE000000C000C0000000000000000001E003F4F
:104CF000803180718063806F806D806D806F806790
:104D000000600032003E001C0000000000000000B7
:104D1000000E000E001B001B001B001B80318031A9
:104D2000803F803F8031C060C060C06000000000F4
:104D300000000000007C007E0063006300630063ED
:104D4000007E007E0063806180618063007F007E62
:104D50000000000000000000001E003F8031806164
:104D60000060006000600060006000608061803171
:104D7000003F001E0000000000000000007C007FDB
:104D80000063806380618061806180618061806197
:104D900000630063007E007C000000000000000053
:104DA000807F807F0060006000600060007F007F87
:104DB0000060006000600060807F807F0000000075
:104DC00000000000807F807F006000600060006065
:104DD000007F007F00600060006000600060006095
:104DE0000000000000000000001E003F80318061D4
:104DF000006000600060806380638061806180315A
:104E0000803F001E00000000000000008061806103
:104E10008061806180618061807F807F806180614E
:104E200080618061806180610000000000000000FE
:104E3000003F003F000C000C000C000C000C000CAC
:104E4000000C000C000C000C003F003F00000000B4
:104E5000000000008001800180018001800180014C
:104E6000800180018001806180618073003F001EAD
:104E70000000000000000000C06080610063006668
:104E80000066006C0078007C00660066006380614C
:104E90008061C06000000000000000000060006051
:104EA0000060006000600060006000600060006002
:104EB00000600060807F807F000000000000000034
:104EC000C071C071C07BC07AC06AC06AC06EC06465
:104ED000C060C060C060C060C060C0600000000012
:104EE0000000000080718071807980798079806D08
:104EF000806D806D80658067806780678063806378
:104F00000000000000000000001E003F0033806130
:104F10008061806180618061806180618061003337
:104F2000003F001E0000000000000000007E007F27
:104F300080638061806180618063007F007E0060AB
:104F400000600060006000600000000000000000E1
:104F5000001E003F0033806180618061806180615C
:104F60008061806580670033803F401E0000000044
:104F700000000000007E007F8063806180618063AC
:104F8000007F007E00660063006380618061C06016
:104F90000000000000000000000E001F8031803182
:104FA00000300038001E000780038061806180317E
:104FB000003F001E0000000000000000C0FFC0FF16
:104FC000000C000C000C000C000C000C000C000C81
:104FD000000C000C000C000C0000000000000000A1
:104FE00080618061806180618061806180618061B9
:104FF0008061806180618073003F001E00000000BE
:1050000000000000C060C060C0608031803180312D
:10501000001B001B001B001B000E000E000E0004F6
:105020000000000000000000C0C0C0C0C0C0C0C080
:10503000C0C0C0CC804C804C805E80528052807357
:10504000806180610000000000000000C0C080603E
:1050500080610033003B001E000C000C001E001F8E
:10506000003B80718061C0C00000000000000000B3
:10507000C0C08061806100330033001E001E000C40
:10508000000C000C000C000C000C000C00000000D8
:1050900000000000803F803F800100030003000605
:1050A000000C000C0018001800300060807F807F2A
:1050B000000000000000000F000F000C000C000CAE
:1050C000000C000C000C000C000C000C000C000C80
:1050D000000C000C000C000F000F0000001800185E
:1050E0000018000C000C000C000C00060006000666
:1050F0000006000300030003000000000000001E83
:10510000001E000600060006000600060006000657
:105110000006000600060006000600060006001E47
:10512000001E0000000C000C001E001200330033B3
:1051300080618061000000000000000000000000AD
:10514000000000000000000000000000000000005F
:10515000000000000000000000000000000000004F
:10516000000000000000E0FF000000000038001810
:10517000000C000000000000000000000000000023
:10518000000000000000000000000000000000001F
:105190000000000000000000001F803F80618001CF
:1051A000801F803F80618063807FC03800000000E6
:1051B000000000000060006000600060006E007F82
:1051C000807380618061806180618073007F006E88
:1051D00000000000000000000000000000000000CF
:1051E000001E003F807380610060006080618073FA
:1051F000003F001E00000000000000008001800150
:1052000080018001801D803F8073806180618061AA
:1052100080618073803F801D00000000000000005E
:105220000000000000000000001E003F00738061CD
:10523000807F807F00608071003F001E00000000C2
:1052400000000000C007C00F000C000C807F807FB2
:10525000000C000C000C000C000C000C000C000CEE
:105260000000000000000000000000000000801DA1
:10527000803F807380618061806180618073803F46
:10528000801D80018063007F003E000000600060A0
:1052900000600060006F807F80718061806180614C
:1052A000806180618061806100000000000000007A
:1052B0000006000600000000003E003E000600065A
:1052C00000060006000600060006000600000000BA
:1052D00000000006000600000000003E003E000640
:1052E000000600060006000600060006000600068E
:1052F0000046007E003C000000600060006000602E
:10530000806100630066006C007C007600630063CF
:105310008061C0600000000000000000003E003E10
:10532000000600060006000600060006000600064D
:105330000006000600060006000000000000000055
:10534000000000000000000080DDC0FFC0CEC0CC27
:10535000C0CCC0CCC0CCC0CCC0CCC0CC0000000005
:10536000000000000000000000000000006F807FCF
:105370008071806180618061806180618061806115
:10538000000000000000000000000000000000001D
:10539000001E003F80738061806180618061807346
:1053A000003F001E000000000000000000000000A0
:1053B0000000006E007F8073806180618061806189
:1053C0008073007F006E006000600060006000007D
:1053D000000000000000801D803F807380618061BC
:1053E000806180618073803F801D80018001800129
:1053F0008001000000000000000000000067803F06
:105400000039003000300030003000300030003013
:10541000000000000000000000000000000000008C
:10542000001E803F80610060007F803F80018061BE
:10543000007F001E000000000000000000000008C7
:1054400000180018007F007F0018001800180018CE
:1054500000180018801F800F0000000000000000EE
:1054600000000000000000008061806180618061B8
:105470008061806180618063807F803D00000000EA
:10548000000000000000000000000000C06080314B
:1054900080318031001B001B001B000E000E000637
:1054A00000000000000000000000000000000000FC
:1054B00080DD80DD80DD00550055005500770077E8
:1054C0000022002200000000000000000000000098
:1054D00000000000806100330033001E000C000C4F
:1054E000001E003300338061000000000000000057
:1054F00000000000000080618061803100330033D3
:10550000001B001B001B000E000E000E001C007C88
:10551000007000000000000000000000C07FC07F9D
:10552000800100030006000C00180030C07FC07F1F
:10553000000000000000800380070006000600064F
:1055400000060006000E001C001C000E00060006EF
:10555000000600060006800780030006000600061D
:10556000000600060006000600060006000600060B
:1055700000060006000600060006000600060038C9
:10558000003C000C000C000C000C000C000E00078E
:105590000007000E000C000C000C000C000C003C7E
:1055A00000380000000000000000000000000000C3
:1055B0008038807F004700000000000000000000ED
:1055C000000000000000000002400000000000A0F9
:1055D0000000000005400000000000C800000000BE
:1055E0000C4000000000409C00000000194000003A
:1055F0000020BCBE0000000034400000BFC91B8E6C
:1056000000000004B5400000504BCFD06607E2CF49
:10561000010000006C4100003E8251AADFEEA73479
:1056200001000000D9420000DCB5A0E23A301F972B
:10563000FFFFFFFFB4450000FD25A0C8E9A3C14F4F
:10564000FFFFFFFFFF3F00000000008000000000A0
:10565000FF3F000000000080000000009856000896
:10566000000000205400000000020008EC56000872
:1056700054000020AC0B00001C0200081C000000BD
:1056800043000000F8FFFFFF0C0000000E000000C8
:105690000F0000002E0000000095BA0A0000000074
:1056A00000000000010203040607080900000000D2
:1056B0000000000000000000070A0000FE40000893
:1056C0000B1200006A480008000000000000000003
:1056D00000000000000000000000000001020304C0
:0C56E00001020304060708090000000096
:040000050800028568
:00000001FF
