:020000040800F2
:10000000A80B00207502000875170008270F0008CC
:1000100071170008770900082F3000080000000061
:10002000000000000000000000000000D11D0008DA
:10003000F70B00080000000005180008E11F000889
:100040008F0200088F0200088F0200088F0200084C
:100050008F0200088F0200088F0200088F0200083C
:100060008F0200088F0200088F0200088F0200082C
:100070008F0200088F0200088F0200088F0200081C
:100080008F0200088F0200088F0200088F0200080C
:100090008F0200088F0200088F0200088F020008FC
:1000A0008F0200088F0200088F0200088F020008EC
:1000B0008F0200088F0200088F0200088F020008DC
:1000C0002D0F00088F0200088F0200088F02000821
:1000D0008F0200088F020008292100088F02000803
:1000E000F90B00088F0200088F0200088F02000839
:1000F0008F0200088F0200088F0200088F0200089C
:100100008F0200088F0200088F0200088F0200088B
:100110008F0200088F0200088F0200088F0200087B
:100120008F0200088F0200088F0200088F0200086B
:100130008F02000800000000000000008F0200088D
:100140008F0200088F0200088F0200088F0200084B
:100150008F0200088F0200088F0200088F0200083B
:100160008F0200088F0200088F0200088F0200082B
:100170008F0200088F0200088F02000800000000B4
:10018000000000008F0200080000000000000000D6
:100190008F02000800000000000000008F0200082D
:1001A0000000000000000000000000008F020008B6
:1001B0008F0200088F0200088F0200088F020008DB
:1001C0008F02000800F002F800F044F80AA090E85E
:1001D000000C82448344AAF10107DA4501D100F002
:1001E00039F8AFF2090EBAE80F0013F0010F18BF8B
:1001F000FB1A43F001031847145B0000345B000056
:10020000103A24BF78C878C1FAD8520724BF30C842
:1002100030C144BF04680C60704700000023002414
:1002200000250026103A28BF78C1FBD8520728BF06
:1002300030C148BF0B607047782900F0A580732952
:1002400000F0C681002070471FB503F03BF91FBDC9
:1002500010B510BD00F077FA1146FFF7F5FF02F078
:1002600033FF00F095FA03B4FFF7F2FF03BC00F090
:100270009DFA00000948804709480047FEE7FEE76D
:10028000FEE7FEE7FEE7FEE7FEE7FEE7FEE7FEE746
:1002900004480549054A064B70470000E91F00085D
:1002A000C5010008A8050020A80B0020A807002011
:1002B000A80700200FB4044910B503AA029800F063
:1002C0008BF910BC5DF814FB400000202DE9F041D3
:1002D0000E460446002020622046E168884730B37D
:1002E000252805D0D4E901219047206A401CF2E777
:1002F000E168204600278847050018D0A5F1410095
:10030000192802D820354FF4006732462946204686
:100310002760FFF791FF40B1012804D0F61D26F0B9
:1003200007060836D8E7361DD6E72846DAE7206AFA
:10033000BDE8F08170B50C460546012A05D0287845
:10034000800600D5EA69002302E0012305E05B1C7A
:10035000934202D2E05C0028F9D1A869E618C01ADD
:10036000A861286A184428622846AFF3008004E098
:10037000D5E9012114F8010B9047B442F8D328467F
:10038000AFF3008070BD000070B504460D462146F5
:100390001068AFF300802188090502D50F4A7A441E
:1003A00002E00E4A7A440E32002104F1240305E0F3
:1003B00000F00F060009965D5E54491C0028F7D135
:1003C00020780023000704D5702D02D009B1022344
:1003D00011322046BDE8704000F08FB8405900004F
:1003E000014A00F00BB9000054000020401ECAB2C0
:1003F00010F8011F8A4202D00029F9D1002070476D
:1004000030B505460B462A4613F8014B12F8010B8E
:1004100008B1A042F8D01CB1002802D06D1CF1E751
:10042000284630BD10B5431C02E010F8011B71B125
:100430008107FAD14FF0013202C88C1A8C4314EABA
:10044000C211F9D0C01A0A0603D0C01E10BDC01ACE
:1004500010BD0A0401D0801E10BD0902FCD0401E50
:1004600010BD02F0FF0343EA032242EA024200F019
:10047000E9B800004FF0013C50F8042B51F8043B60
:100480009A4221D1A2EB0C03934313EACC1317D168
:1004900050F8042B51F8043B9A4215D1A2EB0C03FF
:1004A000934313EACC130BD150F8042B51F8043BBF
:1004B0009A4209D1A2EB0C03934313EACC13DBD08D
:1004C0004FF00000704700BFD01A01BAB1FA81F1B5
:1004D00001F0180122FA01F0CB40C1F12001DBB29A
:1004E000C0B2C01A2CFA01F3D11A914311EAC31118
:1004F000E6D170477047704770472DE9F0470D46C9
:1005000099469246044600F124080168880604D5FD
:10051000E06921F01001216000E00120A84201DD26
:10052000471B00E00027A1697A1902EB0900081AAD
:10053000A0612078C00602D42046AFF300800026D8
:1005400008E0D4E901211AF806009047206A401C0F
:10055000761C20624E45F4DB2078C0060AD5204682
:10056000AFF3008006E0D4E9012130209047206AF3
:10057000401C2062381EA7F10107F4DC07E0D4E933
:10058000012118F805009047206A401C2062281EAF
:10059000A5F10105F3DC2046AFF3008020780006CA
:1005A00002D50220BDE8F0870120FBE710B54369C2
:1005B00013B1AFF3008001E0FFF7BCFE012010BDD6
:1005C000127800F124010A7000224A700122EDE73E
:1005D00011684FF0FF32E9E7074B70B50D467B44D9
:1005E00000F055F80446284600F064F810B14FF0CA
:1005F000FF3070BD204670BDCF2A00002DE9F041CC
:1006000015460E46040002D12C6804B90BA42046FE
:1006100000F064F80444207870B12746314638462B
:1006200000F04CF80444207810B1002004F8010BCD
:1006300038462C60BDE8F0810027F9E70000000093
:100640004FF000020429C0F0128010F0030C00F0FB
:100650005580CCF1040CBCF1020F18BF00F8012B3F
:10066000A8BF20F8022BA1EB0C0100F047B85FEA0D
:10067000C17C24BF00F8012B00F8012B48BF00F813
:10068000012B704701694A1C02610878704700B568
:100690008FB0CDE901310021059105497944CDE9BB
:1006A000031011466846FFF711FE0FB000BD0000B1
:1006B000E5FFFFFF007B00F08000704730B5034688
:1006C0001D781DB10A4603E0AC4201D1181A30BDB5
:1006D00012F8014B002CF7D15B1CF1E730B5034653
:1006E0001D783DB10A4612F8014B1CB1AC42FAD15B
:1006F0005B1CF5E7181A30BD4FF0000200B5134639
:1007000094469646203922BFA0E80C50A0E80C5031
:10071000B1F12001BFF4F7AF090728BFA0E80C50E2
:1007200048BF0CC05DF804EB890028BF40F8042BDB
:1007300008BF704748BF20F8022B11F0804F18BF48
:1007400000F8012B7047754600F02CF8AE46050006
:100750006946534620F00700854618B020B5FFF7DC
:1007600097FDBDE820404FF000064FF000074FF026
:1007700000084FF0000B21F00701AC46ACE8C009BF
:10078000ACE8C009ACE8C009ACE8C0098D467047C8
:1007900010B50446AFF300802046BDE81040FFF7D7
:1007A00062BD00000048704748050020014918203C
:1007B000ABBEFEE726000200704721B1826842F01E
:1007C0000102826003E0826822F0010282607047C9
:1007D0000021084A1168084A1140D0E900231A4351
:1007E00083681A43C3681A431143044AC2F80413C6
:1007F0007047000004230140E030FCFF002001406E
:1008000000B59BB00121880500F0FEFF0121080220
:1008100001F02AF8314800F005F900200290304834
:10082000039030480490002005900120069000209D
:1008300007904FF4806008904000099080000A9073
:1008400040110B9040020C9000200D9001200E9062
:1008500000200F90109002A9204800F08FF901218C
:100860001E4800F0D3F8012000210B460322CDE9F9
:10087000001008211C4800F073FA0020119012901B
:1008800013904FF42060149011A8FFF7A1FF0020EF
:100890008DF8580001208DF859008DF8680000206F
:1008A00018901990159015A90D484C3800F034F89F
:1008B00001210B484C38FFF780FF012108484C38D4
:1008C00000F01FF8012106484C3800F00FF80448EA
:1008D0004C3800F04BF81BB000BD00001064024023
:1008E0004C200140160000200000024021B1826827
:1008F00042F48072826003E0826822F48072826037
:10090000704721B1826842F40072826003E082681D
:1009100022F400728260704730B502460020002346
:100920005068104C20400D790C6844EA052420439F
:10093000506090680C4C2040D1E903542C438D68E2
:100940002C434D7944EA450420439060D06A20F45A
:1009500070000C7D641EE4B2234340EA0350D06271
:1009600030BD0000FFFEFFFCFDF7FFC0816841F0D5
:1009700080418160704700BFFEE7000000B58FB086
:100980000121480500F040FF1D4800F04BF8002110
:100990001B4800F03BF8684600F01CF94FF000706F
:1009A00000901848019018480290402003900A20B7
:1009B0000490002005904FF480600690002007907E
:1009C000089009904FF480300A9000200B9001208D
:1009D0000C9000200D900E906946094800F0CEF86A
:1009E0000121074800F012F801210648103800F0F4
:1009F0002DFB01210348103800F034FB0FB000BD7F
:100A0000A0600240105400409300002021B1026811
:100A100042F00102026003E0026822F0010202607B
:100A200070470000016821F00101016000210160B0
:100A300041608160C1600161212141614A49884270
:100A400004D13D21484A103A91608CE04649183162
:100A5000884205D14FF47461434A103A916082E0B4
:100A600041493031884205D14FF474113E4A103A61
:100A7000916078E03C494831884205D14FF074617B
:100A8000394A103A91606EE037496031884204D1AA
:100A90003649354A103AD16065E0334978318842A9
:100AA00004D13349304A103AD1605CE02E4990318C
:100AB000884204D12F492C4A103AD16053E02A4988
:100AC000A831884205D14FF03D51274A103AD160F4
:100AD00049E02949884204D13D21274A083A11605A
:100AE00041E025491831884205D14FF47461224A0A
:100AF000083A116037E020493031884205D14FF47F
:100B000074111D4A083A11602DE01B494831884292
:100B100005D14FF07461184A083A116023E0164974
:100B20006031884204D11149134A121F11601AE042
:100B300011497831884204D10D490F4A121F1160C2
:100B400011E00D499031884204D10A490A4A121F26
:100B5000116008E00849A831884204D14FF03D51A6
:100B6000054A121F11607047106002403D000020CE
:100B7000400F002000003D201064024010B500220C
:100B80000268134B1A40CC680B6823434C6923431B
:100B90008C692343CC6923430C6A23434C6A234367
:100BA0008C6A23434C6B23438C6B23431A430260B0
:100BB000426922F00702D1E90B3423431A43426110
:100BC0000B6943604B6883608B68C36010BD000095
:100BD0003F801CF00021016041608160C1600161C3
:100BE00041618161C161016241628162C1620163EF
:100BF000416381637047704710B54FF4005000F0B7
:100C000059F890B10120094908609FED090B02F0E5
:100C100011FA00200849C1F8B8029FED050B02F057
:100C200009FA4FF4005000F03FF810BDB88240427E
:100C300000000000000059400080404200B585B02F
:100C40000121880300F010FE012000210B460A4616
:100C5000CDE900104103134800F082F80D21022075
:100C600001F0B8F84FF40050039000208DF8100008
:100C70000C208DF8110001208DF8120003A800F05F
:100C800025F828208DF8080004208DF809008DF83B
:100C90000A0001208DF80B0002A800F06DFD05B0E0
:100CA00000BD0000000802400149086070470000D4
:100CB000143C014001460020034A12680A400AB170
:100CC000012000E000207047143C0140002123492E
:100CD0008279002A3AD00A46126803689A430B4682
:100CE0001A600A1D126803689A430B1D1A60027984
:100CF00011440A6803681A430A60184A08321268E5
:100D000003689A43154B08331A601A1D126803686A
:100D10009A43124B0C331A604279102A0ED11A1FD3
:100D2000126803681A430D4B08331A601A1D1268C3
:100D300003681A43094B0C331A600DE007494279E6
:100D400011440A6803681A430A6005E002791144F5
:100D50000A6803689A430A6070470000003C01403B
:100D60002DE9FC4704460D4616461F46DDE90A8973
:100D70002E48844206D12E48006840F001002C49DC
:100D8000086044E02B48844206D12948006840F0BE
:100D90000200274908603AE02748844206D12448E7
:100DA000006840F004002249086030E02348844293
:100DB00006D11F48006840F008001D49086026E081
:100DC0001F48844206D11A48006840F010001849B4
:100DD00008601CE01B48844206D11548006840F0BA
:100DE00020001349086012E01748844206D11048D9
:100DF000006840F040000E49086008E01348844253
:100E000005D10B48006840F08000094908608DF862
:100E100004608DF8067000958DF807808DF80590B8
:100E20006946204600F014F8BDE8FC870000024047
:100E3000303802400004024000080240000C02402A
:100E4000001002400014024000180240001C024042
:100E5000F0B50A4600210023002400BF3DE0012533
:100E600005FA01F3156805EA03049C4234D10568CC
:100E70004F000326BE40B543056015794E00B540CE
:100E80000668354305601579012D02D01579022DCC
:100E900016D185684F000326BE40B543856055795D
:100EA0004E00B540866835438560456801268E4012
:100EB000B5434560456896798E40B6B23543456086
:100EC000C5684F000326BE40B543C560D5794E00C6
:100ED000B540C6683543C560491C1029BFD3F0BD75
:100EE000F0B5002300244D07ED0E02FA05F3CE10F5
:100EF00000F1200555F826504E07F70E0F26BE408C
:100F0000B543CF1000F1200646F82750CE1000F16F
:100F1000200555F8265045EA0304CE1000F12005BF
:100F200045F82640F0BD00BFFEE7000010B54FF0C9
:100F30000121064800F007F938B90121034800F003
:100F400089FB0349014800F06FF810BD00540040D0
:100F50000010000108B520208DF800004FF440700B
:100F600000F046FC03208DF801008DF802000120FE
:100F70008DF80300684600F0FFFB012211020248D1
:100F800000F0F4F808BD00000054004021B10288D0
:100F900042F48062028004E002884FF6FF331A4078
:100FA0000280704770B5024600240025002300200F
:100FB000958A138B1B0445EA030626F07F4404EA56
:100FC00001068E4201D1012000E0002070BD00002A
:100FD00070B504460D4616460121204600F024FB5C
:100FE00000222946204600F0EDFA0121204600F0BB
:100FF00031FB0649204600F089F820B932462946DF
:1010000003A0FFF757F9002070BD00000200001098
:101010004144443A307825582025732D636F6E6E15
:1010200065637465640A0000002221F07F42D343A7
:101030008382704721B1028842F00102028004E0FD
:1010400002884FF6FE731A400280704721B18288F1
:1010500042F40062828004E082884FF2FF731A40FB
:101060008280704721B1828842F48052828004E0FD
:1010700082884EF6FF731A408280704710B504468E
:101080001348844209D10121480500F0DDFB00210D
:101090004FF4001000F0D8FB18E00E48844209D14C
:1010A0000121880500F0D0FB00214FF4800000F002
:1010B000CBFB0BE00848844208D10121C80500F0B1
:1010C000C3FB00214FF4000000F0BEFB10BD000088
:1010D0000054004000580040005C004021B10288EC
:1010E00042F48072028004E002884FF6FF631A40E7
:1010F0000280704721B1028842F40072028004E04D
:1011000002884FF6FF531A40028070470CB5024622
:10111000002000230193009300920B0F019321F014
:101120007F41019B1BB1009B1433009303E0090C2A
:10113000009B18330093009B1B680B400BB10120F0
:1011400000E000200CBD30B502460020002394884A
:1011500001F0E06504EA154321F07F41948A0C40D8
:1011600014B10BB1012000E0002030BD1AB183881A
:101170000B43838002E083888B43838070470000A9
:101180002DE9FF4704460D460026B1460427DFF847
:10119000CC80A6884FF6C0700640684600F084FBFD
:1011A000DDF808802E48B8FBF0F01FFA80F946EA17
:1011B0000906A68020884FF6FE7108402080002690
:1011C0002849286888420CD828684000B8FBF0F00D
:1011D00087B2042F00DA04273E4309F1010020847E
:1011E00027E0E8884BF6FF71884206D1286800EBBB
:1011F0004000B8FBF0F087B209E0286800EBC001BE
:1012000001EB0010B8FBF0F087B247F48047C7F35A
:101210000B0008B947F0010747F4004006434FF4BC
:10122000967009FB00F04FF47A7190FBF1F0401CCE
:101230002084A683208840F00100208026884FF675
:10124000F5300640A8886989084306432680A889A6
:10125000298908432081BDE8FF87000000127A0039
:1012600040420F00A0860100F0B587B005460E464B
:1012700017463446C74885426CD1A6426AD1672CCE
:1012800020D10121022000F0BFFA02208DF80800D1
:1012900001208DF80A00C020019001208DF80B007C
:1012A00002208DF8090001A9BB48FFF7D1FD0422F7
:1012B0000621B948FFF714FE04220721B648FFF7BC
:1012C0000FFE2DE1892C21D10121022000F09CFA92
:1012D00002208DF8080001208DF80A004FF44070BC
:1012E000019001208DF80B0002208DF8090001A962
:1012F000A948FFF7ADFD04220821A748FFF7F0FD3C
:1013000004220921A448FFF7EBFD09E1692CD8D19B
:101310000121022000F078FA02208DF80800012057
:101320008DF80A004FF41070019001208DF80B0029
:1013300002208DF8090001A99748FFF789FD0422D2
:1013400006219548FFF7CCFD042209219248FFF7BA
:10135000C7FDE5E0914885426BD1A64269D1B12C29
:1013600021D10121022000F04FFA02208DF808005F
:1013700001208DF80A004FF44060019001208DF8A3
:101380000B0002208DF8090001A98348FFF760FDDA
:1013900004220A218048FFF7A3FD04220B217E4886
:1013A000FFF79EFDBCE0F02C20D10121202000F0B1
:1013B0002BFA02208DF8080001208DF80A00032086
:1013C000019001208DF80B0002208DF8090001A981
:1013D0007348FFF73DFD042200217148FFF780FDAF
:1013E000042201216E48FFF77BFD99E0F42C8CD19B
:1013F0000121202000F008FA02208DF808000120C9
:101400008DF80A000320019001208DF80B000220C6
:101410008DF8090001A96248FFF71AFD0422002196
:101420005F48FFF75DFD042201215D48FFF758FD8D
:1014300076E05C48854273D1A64271D1A42C36D1A6
:101440000121084600F0E0F90121022000F0DCF95A
:1014500002208DF8080001208DF80A00000201909A
:1014600001208DF80B0002208DF8090001A94E48DB
:10147000FFF7EEFC02208DF8080001208DF80A002D
:101480001020019001208DF80B0002208DF809003A
:1014900001A94148FFF7DCFC042208214248FFF77C
:1014A0001FFD042211463C48FFF71AFD38E0A92C25
:1014B00036D10121084600F0A7F90121042000F0EF
:1014C000A3F902208DF8080001208DF80A0000021F
:1014D000019001208DF80B0002208DF8090001A970
:1014E0003148FFF7B5FC02208DF8080001208DF887
:1014F0000A004002019001208DF80B0002208DF8B7
:10150000090001A92948FFF7A3FC04220821264865
:10151000FFF7E6FC042209212448FFF7E1FC00BFA5
:101520001C48854204D10121480500F07DF90EE0F8
:101530001A48854204D10121880500F075F906E0BA
:101540001848854203D10121C80500F06DF92846ED
:10155000FFF794FD4FF48060ADF816000001ADF880
:10156000180003974BF6FF70ADF812000020ADF89D
:1015700010000120ADF8140003A92846FFF700FE73
:1015800001212846FFF756FD0021284600F040F8CB
:1015900007B0F0BD00540040000402400058004075
:1015A00000140240005C00400000024000080240BD
:1015B00012B141F0010101E001F0FE01018270472A
:1015C0000182704770B505460E46144664B9002284
:1015D00031462846FFF7ECFF00BF0B492846FFF7CE
:1015E000E1FC0028F9D00DE0012C0BD1012231469D
:1015F0002846FFF7DDFF00BF04492846FFF7D2FC6D
:101600000028F9D070BD000082000700020003002E
:1016100021B1028842F40042028003E00288C2F352
:101620000E0202807047000070B504460D46294640
:101630002046FFF7ABFC29462046FFF74FFD00BFD1
:1016400003492046FFF7AEFC0028F9D070BD00002A
:101650000100030070B504460D4600BF0549204651
:10166000FFF7A0FC0028F9D129462046FFF742FDEC
:1016700070BD00008400070070B504460D46294681
:101680002046FFF79DFF00BF06492046FFF78AFC72
:101690000028F9D000BF04492046FFF737FD002895
:1016A000F9D070BD80000700800000102DE9F041E6
:1016B0000746884614461D46069E01213846FFF718
:1016C000B3FF002241463846FFF77CFF21463846EB
:1016D000FFF7D2FF01213846FFF7A6FF002241465F
:1016E0003846FFF76FFF04E016F8011B3846FFF796
:1016F000C3FF281EA5F10101CDB2F5D10121384665
:10170000FFF7A8FFBDE8F08110B545F2555000F095
:1017100029F8062000F01AF84FF4C87000F01CF801
:1017200000F00CF800F002F810BD00004CF6CC40C0
:101730000149086070470000003000404AF6AA20C6
:1017400001490860704700000030004001494860CE
:101750007047000000300040014988607047000079
:101760000030004001490860704700000030004030
:1017700000BFFEE77047000070B5002100230F2274
:10178000C4781CB3174C246804F4E064C4F5E06426
:10179000C4F30721C1F10404E3B20A4144789C4038
:1017A000E1B28478144021430C07210E0E4C0578D9
:1017B0006155047804F01F050124AC4005786D11D3
:1017C000AD0005F1E025C5F8004109E0047804F01A
:1017D0001F050124AC40054D0678761145F82640DA
:1017E00070BD00000CED00E000E400E080E100E0EE
:1017F00002490143024A1160704700000000FA05E7
:101800000CED00E07047000029B1064A126802435F
:10181000044B1A6004E0034A12688243014B1A60C9
:10182000704700003038024029B1064A126802436E
:10183000044B1A6004E0034A12688243014B1A60A9
:10184000704700004038024029B1064A126802433E
:10185000044B1A6004E0034A12688243014B1A6089
:10186000704700002038024029B1064A126802433E
:10187000044B1A6004E0034A12688243014B1A6069
:10188000704700004438024029B1064A12680243FA
:10189000044B1A6004E0034A12688243014B1A6049
:1018A00070470000243802402DE9F0410021002358
:1018B00000240226002502220227DFF8A4C1DCF85A
:1018C00000C00CF00C0131B1042909D008290CD05A
:1018D0000C297CD148E0DFF88CC1C0F800C089E059
:1018E000DFF884C1C0F800C084E0DFF874C1ACF157
:1018F000040CDCF800C0CCF38055DFF864C1ACF117
:10190000040CDCF800C00CF03F0275B1DFF858C1E0
:10191000BCFBF2FCDFF84881A8F10408D8F800808D
:10192000C8F388180CFB08F40DE0DFF838C1BCFBE5
:10193000F2FCDFF82C81A8F10408D8F80080C8F385
:1019400088180CFB08F4DFF818C1ACF1040CDCF8C3
:1019500000C0CCF3014C0CF1010C4FEA4C06B4FB77
:10196000F6FCC0F800C045E0DFF8F4C0ACF1040CB0
:10197000DCF800C0CCF38055DFF8E4C0ACF1040C17
:10198000DCF800C00CF03F0275B1DFF8DCC0BCFB36
:10199000F2FCDFF8CC80A8F10408D8F80080C8F386
:1019A00088180CFB08F40DE0DFF8B8C0BCFBF2FCB3
:1019B000DFF8AC80A8F10408D8F80080C8F38818D4
:1019C0000CFB08F4DFF898C0ACF1040C00E00CE06C
:1019D000DCF800C0CCF3027C0CF1010C4FEA4C07A0
:1019E000B4FBF7FCC0F800C004E0DFF878C0C0F832
:1019F00000C000BF00BFDFF868C0DCF800C00CF01A
:101A0000F0010909DFF864C01CF80130D0F800C00B
:101A10002CFA03FCC0F804C0DFF844C0DCF800C0B6
:101A20000CF4E051890ADFF844C01CF80130D0F80A
:101A300004C02CFA03FCC0F808C0DFF824C0DCF8AE
:101A400000C00CF46041490BDFF820C01CF80130E5
:101A5000D0F804C02CFA03FCC0F80CC0BDE8F0813B
:101A6000083802400024F40000127A0044000020EC
:101A700010B5002000F054F800F086F910BD000009
:101A8000F0B503461446802B01DA402900DBF0BD97
:101A90002148007920B10CB9012000E00020044663
:101AA000012C1CD1CD1701EB5575ED1003EBC515BD
:101AB0001A4E755D0A46CE1701EB5676F610A1EB6D
:101AC000C6070126BE403543EEB20846CD1701EBEE
:101AD0005575ED1003EBC515104F7E551AE0CD1767
:101AE00001EB5575ED1003EBC5150C4E755D0A46FF
:101AF000CE1701EB5676F610A1EBC6070126BE40C5
:101B0000B5430846CE1701EB5676F61003EBC61622
:101B1000024FBD5500BFBAE736000020E2000020AA
:101B200010B504460CB9002000E0FF2002464FF437
:101B300080610248FEF795FC10BD0000E200002025
:101B4000014A1080518070473600002010B501F026
:101B5000B1FB54A278215548FFF73AFA40F6C41475
:101B600000E0641E002CFCD1AE220021782001F0A0
:101B7000B3FB20220021782001F0AEFB10220021CF
:101B8000782001F0A9FBB0220021782001F0A4FB0D
:101B9000C8220021782001F09FFB00221146782006
:101BA00001F09AFB10220021782001F095FB4022E1
:101BB0000021782001F090FB81220021782001F0A3
:101BC0008BFBFF220021782001F086FBA12200215F
:101BD000782001F081FBA6220021782001F07CFB17
:101BE000A8220021782001F077FB3F2200217820F5
:101BF00001F072FBA4220021782001F06DFBD322BA
:101C00000021782001F068FB00221146782001F0C5
:101C100063FBD5220021782001F05EFBF022002139
:101C2000782001F059FBD9220021782001F054FBE3
:101C300022220021782001F04FFBDA2200217820B7
:101C400001F04AFB12220021782001F045FBDB2243
:101C50000021782001F040FB20220021782001F0B3
:101C60003BFB8D220021782001F036FB142200215D
:101C7000782001F031FBAF220021782001F02CFB0D
:101C80002E220021782001F027FB0020FFF748FFDB
:101C900000F07AF800200649088048800120487149
:101CA00010BD00005353443133303600005400401F
:101CB000360000202DE9F04307460C4690462648A2
:101CC000008821780844802805DA23484088617814
:101CD0000844402802DB0020BDE8F083002530E006
:101CE000A7F12000617800FB0150616831F8109085
:101CF000002622E009FA06F000F4004058B1164A26
:101D000052882A4491B2144A1288324490B2424610
:101D1000FFF7B6FE10E0B8F1000F01D1012300E09B
:101D200000231A460C4B5B882B4499B20A4B1B8844
:101D3000334498B2FFF7A4FE761C2078B042D9D87D
:101D40006D1C6078A842CBD80348008821780844ED
:101D5000014908803846BFE73600002070B50446C8
:101D60000D4616460AE0207832462946FFF7A2FFC4
:101D70002178884201D0207870BD641C207800282A
:101D8000F1D12078F8E7000010B500241BE004F141
:101D9000B000C2B20021782001F09EFA0022114664
:101DA000782001F099FA10220021782001F094FAAD
:101DB0000648802101FB04020B464021782001F0F7
:101DC0009FFA601CC4B2082CE1DB10BDE2000020C9
:101DD0007047000030B500228B071C0F0F2303FA59
:101DE00004F20B4B8C1053F824309343084C8D10A5
:101DF00044F8253023468C1053F824308C07240FE8
:101E000000FA04F42343024C8D1044F8253030BD11
:101E1000083801400CB5002001900090414800684E
:101E200040F480303F49086000BF3E48006800F43D
:101E3000003000900198401C0190009818B901985A
:101E4000B0F5A04FF1D13748006800F4003010B170
:101E50000120009001E0002000900098012860D14E
:101E600030484030006840F080502E4940310860D2
:101E70002D48006840F440402B490860294808304C
:101E800000682849083108600846006840F40040AE
:101E900008600846006840F4A05008602348091F05
:101EA0000860081F006840F08070091F086000BFCC
:101EB0001C48006800F000700028F9D01A4800683B
:101EC00040F480301849086000BF1748406800F4AB
:101ED00080300028F9D01448006840F400301249DE
:101EE000086000BF1048406800F400300028F9D0B6
:101EF00040F205700E4908600A480830006820F07A
:101F000003000849083108600846006840F00200F4
:101F1000086000BF03480830006800F00C00082883
:101F2000F8D10CBD0038024000700040085A4077DC
:101F3000003C024070B500F0DFF8254800684FF41F
:101F40007A72B0FBF2F1481EB0F1807F01D301201C
:101F50001BE0481E4FF0E022506150170F2200286E
:101F600007DA13071D0E1B4B00F00F04241F1D552D
:101F700003E013071C0E184B1C5400BF00204FF049
:101F8000E0229061072010610020F8B100BF00BF7F
:101F900000BF00BF00BFBFF34F8F00BF00BF00BF37
:101FA0000C480C38006800F4E0600C490843001D40
:101FB00008490C39086000BF00BF00BFBFF34F8F56
:101FC00000BF00BF00BF00E000BFFDE770BD000024
:101FD0000000002018ED00E000E400E00000FA0539
:101FE00000B500F09FF800BD10B51548006840F43A
:101FF0007000134908601348006840F0010011495F
:10200000086000200F49083108600E4800680E493A
:1020100008400C4908600D48091D0860081F006849
:1020200020F48020091F0860002006490C31086058
:10203000FFF7F0FE4FF0006001498039086010BDE5
:1020400088ED00E000380240FFFFF6FE103000246B
:1020500021B1028842F00102028004E002884FF6BA
:10206000FE731A40028070470146486A7047416219
:102070007047000000220288184B98420ED0184B7F
:1020800098420BD0B0F1804F08D0164B984205D043
:10209000154B984202D0154B984204D14FF68F73DE
:1020A0001A404B881A43124B984207D0114B984262
:1020B00004D04FF6FF431A400B891A4302804B6845
:1020C000C3620B880385054B984202D0044B9842AB
:1020D00001D18B7A0386012383827047000001407F
:1020E000000401400004004000080040000C0040D3
:1020F00000100040001400400EB501211020FFF731
:1021000093FB5920ADF800004FF6FF70019069462F
:102110000348FFF7AFFF01210148FFF799FF0EBD0C
:1021200000100040704700001CB500200190009096
:1021300040F22551FE4800F010FC00282ED0FD484A
:10214000007880B90020019009E00020FA499DF84C
:10215000042088549DF80400401CC0B201909DF8F2
:102160000400FF28F1DBF249091D0988CAB2F149D0
:102170000878411CEF4B1970EF490A540846FEF7E6
:1021800051F93B2804D80D21EB48FEF72FF930B95F
:102190000020E8490870E9A0FEF78CF812E3EBA1F3
:1021A000E548FEF72DF90028F8D0E9A1E248FEF74E
:1021B00017F9E8499DF8002041F822000EE0E4A15B
:1021C0000020FEF70DF99DF80010491CC9B20091DE
:1021D000E04A42F821000020D6490870DD489DF809
:1021E000001050F821000028E9D1DA480168DAA08F
:1021F000FEF760F8D7484168D7A0FEF75BF8D548EE
:102200008168D5A0FEF756F8D248C168D2A0FEF783
:1022100051F8D0480169D0A0FEF74CF8CD4841698B
:10222000CDA0FEF747F8CB488169CBA0FEF742F876
:10223000C8494868C9A1FEF71DF9E8B1C5498868D1
:10224000C6A1FEF717F9B8B1C249C868C3A1FEF725
:1022500011F988B1BF490869C0A1FEF70BF958B15F
:10226000BC494869BDA1FEF705F928B1B94988699B
:10227000BAA1FEF7FFF868B90120BA490860142135
:102280000020FFF75DFC0122B749B8A0FFF766FD0B
:10229000FFF77AFDAF494868B7A1FEF7EBF8E8B160
:1022A000AC498868B4A1FEF7E5F8B8B1A949C86897
:1022B000B1A1FEF7DFF888B1A6490869AEA1FEF723
:1022C000D9F858B1A3494869ABA1FEF7D3F828B1B2
:1022D000A0498869A8A1FEF7CDF860B90020A149FE
:1022E00008601421FFF72CFC01229F49A5A0FFF7ED
:1022F00035FDFFF749FD97494868A5A1FEF7BAF8F3
:10230000E8B194498868A2A1FEF7B4F8B8B1914940
:10231000C8689FA1FEF7AEF888B18E4908699CA1F4
:10232000FEF7A8F858B18B49486999A1FEF7A2F8C1
:1023300028B18849886996A1FEF79CF870B90120F8
:1023400088491C3108601E210020FFF7F9FB01229B
:10235000854991A0FFF702FDFFF716FD7D4948680A
:1023600090A1FEF787F8E8B17A4988688DA1FEF759
:1023700081F8B8B17749C8688AA1FEF77BF888B1BF
:102380007449086987A1FEF775F858B17149486921
:1023900084A1FEF76FF828B16E49886981A1FEF724
:1023A00069F868B900206F491C3108601E21FFF7E9
:1023B000C7FB01226C497EA0FFF7D0FCFFF7E4FCCD
:1023C000644948687DA1FEF755F8E8B1614988681D
:1023D0007AA1FEF74FF8B8B15E49C86877A1FEF759
:1023E00049F888B15B49086974A1FEF743F858B110
:1023F0005849486971A1FEF73DF828B155498869E7
:102400006EA1FEF737F870B90120564938310860DF
:1024100028210020FFF794FB0122534969A0FFF710
:102420009DFCFFF7B1FC4B49486869A1FEF722F813
:10243000E8B14849886866A1FEF71CF8B8B145497B
:10244000C86863A1FEF716F888B14249086960A11F
:10245000FEF710F858B13F4948695DA1FEF70AF848
:1024600028B13C4988695AA1FEF704F868B90020F0
:102470003C49383108602821FFF762FB01223A49C4
:1024800056A0FFF76BFCFFF77FFC3249486856A166
:10249000FDF7F0FFE8B12F49886853A1FDF7EAFF87
:1024A000B8B12C49C86850A1FDF7E4FF88B12949AB
:1024B00008694DA1FDF7DEFF58B1264948694AA1D8
:1024C000FDF7D8FF28B12349886947A1FDF7D2FF5E
:1024D00070B901202349091D086014213C20FFF731
:1024E0002FFB0122204942A0FFF738FCFFF74CFCEC
:1024F0001849486841A1FDF7BDFFB8B11549886882
:102500003EA1FDF7B7FF88B11249C8683BA1FDF7AE
:10251000B1FF58B10F49086938A1FDF7ABFF28B1E9
:102520000C49486935A1FDF7A5FF6DE074E0000096
:10253000004400403C000020E40400200A455252C0
:102540004F525F4255464645520000002B0D0A008F
:102550002B0000002005002025730A004C45443163
:102560005F4F4E00808240421C0000204C454431A9
:102570003A4F4E20000000004C4544315F4F464624
:10258000000000004C4544313A4F46460000000030
:102590004C4544325F4F4E004C4544323A4F4E203A
:1025A000000000004C4544325F4F464600000000EA
:1025B0004C4544323A4F4646000000004C454433F7
:1025C0005F4F4E004C4544333A4F4E200000000010
:1025D0004C4544335F4F4646000000004C454433B1
:1025E0003A4F4646000000004C4544345F4F4E00D1
:1025F0004C4544343A4F4E20000000004C454434D2
:102600005F4F46460000000030B16F498869AFF265
:102610001401FDF72FFF68B900206C4908601421F0
:102620003C20FFF78DFA012269496AA0FFF796FB6B
:10263000FFF7AAFB6449486869A1FDF71BFFE8B1F1
:102640006149886866A1FDF715FFB8B15E49C868A1
:1026500063A1FDF70FFF88B15B49086960A1FDF731
:1026600009FF58B1584948695DA1FDF703FF28B13A
:10267000554988695AA1FDF7FDFE68B90120534903
:1026800008601E213C20FFF75BFA0122504956A04A
:10269000FFF764FBFFF778FB4B49486855A1FDF74E
:1026A000E9FEE8B14849886852A1FDF7E3FEB8B1F8
:1026B0004549C8684FA1FDF7DDFE88B14249086968
:1026C0004CA1FDF7D7FE58B13F49486949A1FDF734
:1026D000D1FE28B13C49886946A1FDF7CBFE68B917
:1026E00000203A4908601E213C20FFF729FA012208
:1026F000374943A0FFF732FBFFF746FB32494868F2
:1027000042A1FDF7B7FEE8B12F4988683FA1FDF768
:10271000B1FEB8B12C49C8683CA1FDF7ABFE88B149
:102720002949086939A1FDF7A5FE58B1264948692C
:1027300036A1FDF79FFE28B12349886933A1FDF733
:1027400099FE68B901202149086028213C20FFF743
:10275000F7F901221E492FA0FFF700FBFFF714FB3A
:10276000194948682EA1FDF785FEE8B11649886829
:102770002BA1FDF77FFEB8B11349C86828A1FDF76A
:1027800079FE88B11049086925A1FDF773FE58B19B
:102790000D49486922A1FDF76DFE28B10A498869F3
:1027A0001FA1FDF767FE68B90020084908602821CD
:1027B0003C20FFF7C5F9012205491CA0FFF7CEFA1E
:1027C000FFF7E2FA1CBD0000200500208482404291
:1027D0001C0000204C4544343A4F4646000000009F
:1027E0004C4544355F4F4E004C4544353A4F4E20E2
:1027F000000000004C4544355F4F46460000000095
:102800004C4544353A4F4646000000004C4544369E
:102810005F4F4E004C4544363A4F4E2000000000BA
:102820004C4544365F4F4646000000004C45443658
:102830003A4F46460000000021B1828942F400521E
:10284000828104E082894DF6FF731A4082817047CD
:1028500010B504463248844208D101211020FFF708
:1028600013F800211020FFF70FF857E02D4884429D
:1028700009D101214804FEF7E7FF00214FF40030A1
:10288000FEF7E2FF4AE02848844209D1012188048A
:10289000FEF7DAFF00214FF48020FEF7D5FF3DE080
:1028A0002248844209D10121C804FEF7CDFF00214E
:1028B0004FF40020FEF7C8FF30E01D48844209D1E4
:1028C00001210805FEF7C0FF00214FF48010FEF73C
:1028D000BBFF23E01748844208D101212020FEF7E6
:1028E000D3FF00212020FEF7CFFF17E012488442DB
:1028F00009D101218807FEF7A7FF00214FF0804092
:10290000FEF7A2FF0AE00D48844207D101214005ED
:10291000FEF79AFF00216005FEF796FF10BD00004C
:10292000001001400044004000480040004C0040BE
:10293000005000400014014000780040007C00403E
:1029400002460020B1F5007F00D100BF13880B4084
:102950000BB1012000E00020704770B50246002452
:1029600000230025002040F66A16B14200D100BFC6
:10297000C1F3421501F01F03012606FA03F3012DEE
:1029800002D19689334006E0022D02D1168A3340E7
:1029900001E0968A33400C12012606FA04F41688E8
:1029A000344013B10CB1012000E0002070BDF0B53F
:1029B0000346002400260025002040F66A17B9428D
:1029C00000D100BF1846C1F3421401F01F060127D1
:1029D00007FA06F5012C01D10C3004E0022C01D1DC
:1029E000103000E014301AB107682F43076002E08E
:1029F0000768AF430760F0BD2DE9FF4705460E4667
:102A00000024A14600BFA046B08900B100BF2C8AB7
:102A100024F44054F08804432C82AC8941F20C60C9
:102A20008443B08831890843718908430443AC81E9
:102A3000AC8A24F44074B0890443AC826846FEF743
:102A400033FF2048854202D01F48854202D1DDF87D
:102A50000C9001E0DDF80890A88900F4004040B136
:102A600009EBC90000EB091031684900B0FBF1F730
:102A700007E009EBC90000EB091031688900B0FBE1
:102A8000F1F76420B7FBF0F004012009642101FB99
:102A90001078A88900F4004040B1322000EBC80053
:102AA000B0FBF1F000F00700044308E0322000EB37
:102AB00008106421B0FBF1F000F00F0004432C81FA
:102AC000BDE8FF8700100140001401402DE9F04FE0
:102AD00087B005460E4617469846DDE911ABDDF88E
:102AE00040903446FB4885424ED1B4424CD1A02C94
:102AF00024D101210846FEF787FE25208DF8180015
:102B000002208DF8140000208DF816004FF4C060EC
:102B1000049000208DF8170002208DF8150004A9FC
:102B2000ED48FEF795F907220921EB48FEF7D8F9A1
:102B300007220A21E848FEF7D3F9E7E1A12CFCD1EE
:102B400001210220FEF760FE25208DF818000220EA
:102B50008DF8140000208DF81600C020049000208D
:102B60008DF8170002208DF8150004A9DB48FEF748
:102B70006FF907220621D948FEF7B2F9072211465C
:102B8000D648FEF7ADF9C1E1D54885424DD1B442F2
:102B90004BD1A22C23D101210846FEF735FE262079
:102BA0008DF8180002208DF8140000208DF8160012
:102BB0000C20049000208DF8170002208DF81500DD
:102BC00004A9C548FEF744F907220221C248FEF7CE
:102BD00087F907220321C048FEF782F996E1A32C6A
:102BE000ABD101210820FEF70FFE26208DF818003A
:102BF00002208DF8140000208DF81600602004904B
:102C000000208DF8170002208DF8150004A9B548A2
:102C1000FEF71EF907220521B248FEF761F90722E7
:102C20000621B048FEF75CF970E1AF48854277D1E4
:102C3000B44275D1A52C24D101210220FEF7E4FD78
:102C400027208DF8180002208DF8140000208DF840
:102C500016004FF44060049000208DF81700022009
:102C60008DF8150004A99D48FEF7F2F807220A2105
:102C70009A48FEF735F907220B219848FEF730F9FC
:102C800044E1A62C24D101210420FEF7BDFD27201C
:102C90008DF8180002208DF8140000208DF8160021
:102CA0004FF44060049000208DF8170002208DF84A
:102CB000150004A98D48FEF7CBF807220A218B489E
:102CC000FEF70EF907220B218848FEF709F91DE1EE
:102CD000A72CA9D101210820FEF796FD27208DF809
:102CE000180002208DF8140000208DF816004FF413
:102CF0004070049000208DF8170002208DF8150018
:102D000004A97848FEF7A4F8072208217548FEF7C1
:102D1000E7F8072209217348FEF7E2F8F6E0FFE73B
:102D2000734885424ED1B4424CD1A82C23D1012105
:102D30000846FEF769FD34208DF8180002208DF852
:102D4000140000208DF816000320049000208DF858
:102D5000170002208DF8150004A95F48FEF778F8E7
:102D6000082200215C48FEF7BBF8082201215A48DE
:102D7000FEF7B6F8CAE0A92CA9D101210420FEF77C
:102D800043FD34208DF8180002208DF81400002037
:102D90008DF816004FF44060049000208DF8170065
:102DA00002208DF8150004A95048FEF751F80822BA
:102DB0000A214E48FEF794F808220B214B48FEF7F3
:102DC0008FF8A3E04B48854231D1B4422FD1B12CCA
:102DD0002CD101210420FEF717FD01210820FEF768
:102DE00013FD35208DF8180002208DF81400002006
:102DF0008DF81600A81404900420049000208DF88B
:102E0000170002208DF8150004A93848FEF720F8B5
:102E100004A93448FEF71CF808220C213348FEF7B9
:102E20005FF8082202212F48FEF75AF86EE0324878
:102E3000854265D1B44263D1A52C23D10121042060
:102E4000FEF7E2FC47208DF8180002208DF81400F0
:102E500000208DF81600C020049000208DF8170087
:102E600002208DF8150004A92048FDF7F1FF082283
:102E700006211E48FEF734F8082207211B48FEF7FA
:102E80002FF843E0A62C41D101214020FEF7BCFCE5
:102E900047208DF8180002208DF8140000208DF8CE
:102EA00016004FF48440049000208DF81700022093
:102EB0008DF8150004A91148FDF7CAFF08220E215C
:102EC0000E48FEF70DF8082209210C48FEF708F815
:102ED0001CE015E000100140000002400004024028
:102EE00000440040000C024000480040000802403E
:102EF000004C004000500040001401400018024007
:102F00003948854201D1B44200D000BF37488542DC
:102F100004D101211020FEF7A7FC36E03448854299
:102F200004D101214804FEF77FFC2EE031488542A0
:102F300004D101218804FEF777FC26E02E48854263
:102F400004D10121C804FEF76FFC1EE02B48854226
:102F500004D101210805FEF767FC16E028488542E8
:102F600004D101212020FEF77FFC0EE01E4885429F
:102F700004D101218807FEF757FC06E0214885426D
:102F800003D101214005FEF74FFC2846FFF760FC06
:102F90000097ADF80C80ADF80A90ADF808A0ADF838
:102FA00006B01398ADF8040069462846FFF724FDE3
:102FB000012240F225512846FFF7F9FC012128465D
:102FC000FFF73AFC4FF4E060FEF712FC03208DF8A7
:102FD00019008DF81A0001208DF81B0006A8FEF7D5
:102FE000CBFB07B0BDE8F08F007800400010014037
:102FF0000044004000480040004C004000500040A9
:1030000000140140007C0040C1F308028280704738
:1030100013B504469DF804102046FFF7F5FF00BFE6
:1030200080212046FFF78CFC0028F9D01CBD00BF92
:10303000FEE7000010B52DED048BB0EE408AF0EEF7
:10304000608A002404E09FED090B00F013F8641C73
:10305000204600F083F941EC190B53EC182B00F0DB
:10306000A7F9F0D3BDEC048B10BD000000000000F8
:1030700000408F4010B52DED048BB0EE408AF0EE8D
:10308000608A00210948FEF7F2FF00BF0748FEF7FB
:10309000EBFF044600F079F941EC190B53EC182BC7
:1030A00000F086F9F2D3BDEC048B10BD0010004097
:1030B00070B504460D46E1B20248FFF7A9FF20466D
:1030C00070BD0000004400401FB5012000210B46E8
:1030D0000246CDE9001044F281014A48FDF740FE66
:1030E000012000210B460A46CDE900100146464862
:1030F000FDF736FEFEF71EFF00200C23CDE9003061
:10310000029003464FF41652A32103903F48FFF765
:10311000DDFCFEF71BFDFDF731FCFDF71BFFFDF7A6
:103120008DFDFDF76DFBFEF7EFFA00210846FEF777
:1031300007FD0122364937A0FEF710FE1E210520AB
:10314000FEF7FEFC0122384938A0FEF707FEFEF725
:103150001BFE9FED390BFFF76DFFFEF789FC002189
:103160000846FEF7EDFC0122294935A0FEF7F6FDE1
:103170000A210020FEF7E4FC0122254935A0FEF7D4
:10318000EDFD14210020FEF7DBFC0122204935A0D3
:10319000FEF7E4FD1E210020FEF7D2FC01221C49AF
:1031A00033A0FEF7DBFD28210020FEF7C9FC012239
:1031B000174932A0FEF7D2FD14213C20FEF7C0FCD7
:1031C0000122134930A0FEF7C9FD1E213C20FEF765
:1031D000B7FC01220E492FA0FEF7C0FD28213C209C
:1031E000FEF7AEFC01220A492DA0FEF7B7FDFEF75F
:1031F000CBFD05E09FED2D0BFFF71CFFFEF79EFAC0
:10320000F8E70000000402400010024000440040C3
:103210001C00002048454C4C4F2053544D3332463F
:103220003434365A452000002400002048454C4CD8
:103230004F20574F524C44000000000000409F4078
:1032400048454C4C4F2053544D3332463434365A53
:10325000450000003A29203D3E203A29203D3E20ED
:103260003A2900004C4544313A4F464600000000E0
:103270004C4544323A4F4646000000004C4544332A
:103280003A4F4646000000004C4544343A4F46460B
:10329000000000004C4544353A4F4646000000000F
:1032A0004C4544363A4F46460000000000000000FE
:1032B0000000594010B5054C00E0641E002CFCD104
:1032C000034A89210348FDF7CFFF10BD90D00300CA
:1032D000801A0600005400407CB505460C46164690
:1032E0008DF804408DF8056001A802232246294686
:1032F00000900248FEF7DAF97CBD0000005400405F
:103300002DE9F041C2B007460D4690461E468DF8A5
:103310000850002405E018F8041002AA601C11549B
:10332000C4B2B442F7DB02A80090701CC3B22A46B4
:1033300039460348FEF7BAF942B0BDE8F081000013
:1033400000540040491058BFC1F140415B1058BFC4
:10335000C3F140438B42EFF30080704710F000420E
:1033600048BF4042B0FA80F310FA03F10AD0C3F12B
:103370001D0303F580634FEA415002EB035202EB59
:10338000D12170474FF000007047B0FA80F310FA77
:1033900003F10AD0C3F11D0303F580634FEA4150E6
:1033A0004FEA035202EBD12170474FF00000704703
:1033B00051EA030C17D41CF5801F58BFBCF5801FC1
:1033C00000F10680994218BF704708BF90427047CD
:1033D00007D711F5801F58BF13F5801F19D49942E4
:1033E0007047894270471CF5801F08D5BCF5801FC7
:1033F000F7D58B4218BF704708BF824270474FF421
:10340000001C1CEB410F38BF1CEB430F01D28B4259
:10341000704770B500F008F8922449004FF0005151
:103420004FF08053FFF78EBF0EF1020E2EF0030E09
:103430005EF8046B364205D4012A43EB030515F50B
:10344000001F12D8012841EB010C1CF5001F0CD8FD
:103450000ED14FEAD17C15F5001F0CEB4C0C0CF192
:10346000020C08BF4CEBD37C04E04FF0080C01E0E9
:103470004FEAD37C0CEB4C0526FA05F606F007065E
:10348000B6F1040C06D20EEB860CBDE870404CF091
:10349000010C6047DFE80CF0090B02024FF000411D
:1034A0004FF00000A1F5002170BD1946104601281B
:1034B00051EB010418BFD4F5001484BF002001F0C3
:1034C000004170BD4FF04070E1EE100A70470000FF
:1034D00000000000000000000000000000000000EC
:1034E000000000100010001000100010001000007C
:1034F0000010000000000028002800280000000044
:103500000000000000000000000000240024007CF7
:1035100000240048007C00480048000000000038FB
:1035200000540050003800140054005400380010BB
:1035300000000020005400580030002800540014FF
:1035400000080000000000100028002800100034CF
:103550000048004800340000000000100010001077
:103560000000000000000000000000000000000853
:10357000001000200020002000200020002000106B
:1035800000080020001000080008000800080008DB
:103590000008001000200010003800100028000073
:1035A000000000000000000000000000000000100B
:1035B0000010007C0010001000000000000000005F
:1035C00000000000000000000000000000100010DB
:1035D00000100000000000000000000000380000A3
:1035E00000000000000000000000000000000000DB
:1035F000000000000010000000000008000800109B
:103600000010001000100020002000000000003812
:1036100000440044005400440044004400380000CA
:1036200000000010003000500010001000100010CA
:1036300000100000000000380044004400040008AE
:1036400000100020007C000000000038004400044E
:1036500000180004000400440038000000000008C6
:103660000018002800280048007C0008000800001E
:103670000000007C0040004000780004000400448A
:10368000003800000000003800440040007800448A
:1036900000440044003800000000007C00040008E2
:1036A0000010001000200020002000000000003862
:1036B0000044004400380044004400440038000046
:1036C00000000038004400440044003C0004004472
:1036D00000380000000000000000001000000000A2
:1036E00000000000001000000000000000000000CA
:1036F000001000000000000000100010001000008A
:103700000000000C003000400030000C0000000001
:103710000000000000000000007C0000007C0000B1
:10372000000000000000000000000060001800041D
:103730000018006000000000000000380044000491
:103740000008001000100000001000000000003809
:103750000044004C0054005C004000400038000071
:10376000000000100028002800280028007C0044E9
:103770000044000000000078004400440078004449
:10378000004400440078000000000038004400407D
:10379000004000400040004400380000000000707D
:1037A0000048004400440044004400480070000009
:1037B0000000007C00400040007C004000400040D1
:1037C000007C00000000007C0040004000780040C9
:1037D000004000400040000000000038004400406D
:1037E0000040005C00440044003800000000004439
:1037F00000440044007C00440044004400440000B5
:103800000000003800100010001000100010001020
:10381000003800000000000400040004000400045C
:10382000000400440038000000000044004800503C
:1038300000600050004800480044000000000040C4
:10384000004000400040004000400040007C00007C
:1038500000000044006C006C00540044004400442C
:103860000044000000000044006400640054005460
:10387000004C004C004400000000003800440044AC
:103880000044004400440044003800000000007878
:103890000044004400440078004000400040000024
:1038A0000000003800440044004400440044005438
:1038B0000038000400000078004400440044007810
:1038C0000048004800440000000000380044004068
:1038D0000030000800040044003800000000007CB4
:1038E0000010001000100010001000100010000068
:1038F00000000044004400440044004400440044EC
:103900000038000000000044004400440028002863
:103910000028001000100000000000440044005483
:1039200000540054006C00280028000000000044EF
:103930000028002800100010002800280044000083
:10394000000000440044002800280010001000106F
:10395000001000000000007C0004000800100010AF
:1039600000200040007C0000000000180010001043
:1039700000100010001000100010001000180020AF
:1039800000200010001000100010000800080000C7
:103990000000003000100010001000100010001097
:1039A0000010001000300010002800280044000023
:1039B0000000000000000000000000000000000007
:1039C00000000000000000000000000000FE0020D9
:1039D00000100000000000000000000000000000D7
:1039E00000000000000000380044003C0044004C8F
:1039F0000034000000000040004000580064004413
:103A0000004400640058000000000000000000387E
:103A10000044004000400044003800000000000462
:103A200000040034004C00440044004C003400000A
:103A300000000000000000380044007C004000440A
:103A4000003800000000000C0010007C0010001086
:103A50000010001000100000000000000000003402
:103A6000004C00440044004C003400040078004046
:103A7000004000580064004400440044004400003A
:103A80000000001000000070001000100010001076
:103A90000010000000000010000000700010001076
:103AA000001000100010001000E00040004000482E
:103AB000005000600050004800440000000000700A
:103AC0000010001000100010001000100010000086
:103AD000000000000000007800540054005400541E
:103AE0000054000000000000000000580064004482
:103AF00000440044004400000000000000000038C2
:103B0000004400440044004400380000000000006D
:103B10000000005800640044004400640058004065
:103B20000040000000000034004C00440044004C01
:103B3000003400040004000000000058006400404D
:103B4000004000400040000000000000000000387D
:103B5000004400300008004400380000000000204D
:103B60000020007800200020002000200018000025
:103B70000000000000000044004400440044004CE9
:103B80000034000000000000000000440044002851
:103B90000028002800100000000000000000005471
:103BA00000540054006C00280028000000000000B1
:103BB000000000440028001000100028004400000D
:103BC000000000000000004400440028002800100D
:103BD00000100010006000000000007C00080010D1
:103BE00000200040007C00000000001800100010C1
:103BF000001000200020001000100010001800101D
:103C00000010001000100010001000100010001034
:103C10000010003000100010001000080008001014
:103C20000010001000300000000000000074004C84
:103C30000000000000000000000000000000000084
:103C40000000000000000000000000000000000074
:103C50000000000000000000000000000000000064
:103C6000000C000C000C000C000C000C000C000CF4
:103C7000000C000C000C0000000C000C0000000008
:103C800000000000001B001B001B001B001B0000AD
:103C90000000000000000000000000000000000024
:103CA00000000000000000008019801980198019B0
:103CB000C07FC07F80190033C07FC07F00330033D6
:103CC000003300330000000000000000001E003F31
:103CD000807580650074003C001E000780058065CB
:103CE00080658075003F001E000400040000000095
:103CF000007000D840D8C0D880D900730006000CEE
:103D0000801BC036C066C046C006800300000000AD
:103D100000000000001E003F003300330033001E8F
:103D2000000CC03CC066806380618063C03E801C24
:103D30000000000000000000000C000C000C000C53
:103D4000000C000000000000000000000000000067
:103D500000000000000000000000800000010003DF
:103D6000000600060004000C000C000C000C000C07
:103D7000000C000400060006000300018000002083
:103D800000100018000C000C0004000600060006DD
:103D90000006000600060004000C000C00180010CD
:103DA00000200000000C002D003F001E003300002A
:103DB0000000000000000000000000000000000003
:103DC000000000000000000000000000000C000CDB
:103DD000000C000CC0FFC0FF000C000C000C000C1D
:103DE00000000000000000000000000000000000D3
:103DF00000000000000000000000000000000000C3
:103E000000000000000C000C00040004000800008A
:103E100000000000000000000000000000000000A2
:103E2000001E001E00000000000000000000000056
:103E30000000000000000000000000000000000082
:103E4000000000000000000000000000000C000C5A
:103E50000000000000000000000300030003000653
:103E6000000600060006000C000C000C000C0018F8
:103E7000001800180000000000000000001E003FB5
:103E80000033806180618061806D806D80618061C0
:103E900080610033003F001E0000000000000000B1
:103EA0000006000E001E0036002600060006000672
:103EB00000060006000600060006000600000000DE
:103EC00000000000001E003F80738061806180015F
:103ED00000030006000C001800300060807F807F27
:103EE0000000000000000000001C003E00630063B2
:103EF0000003000E000E00038001800180618073CA
:103F0000003F001E00000000000000000006000E40
:103F1000000E001E001E0016003600360066807F70
:103F2000807F000600060006000000000000000080
:103F3000007F007F006000600060006E007F806393
:103F40008001800180618073003F001E000000003E
:103F500000000000001E003F803380610060006EA2
:103F6000007F80738061806180618033003F001E2C
:103F70000000000000000000807F807F80010003BF
:103F8000000300060006000C000C000C00080018DE
:103F9000001800180000000000000000001E003F94
:103FA0008063806180610021001E003F806180612C
:103FB00080618061003F001E0000000000000000E2
:103FC000001E003F00738061806180618073803FCC
:103FD000801D800180610073003F001E0000000012
:103FE000000000000000000000000000000C000CB9
:103FF000000000000000000000000000000C000CA9
:1040000000000000000000000000000000000000B0
:104010000000000C000C0000000000000000000088
:10402000000C000C00040004000800000000000068
:10403000000080008003000E003800600038000E91
:10404000800380000000000000000000000000006D
:104050000000000000000000807F807F0000000062
:10406000807F807F00000000000000000000000052
:104070000000000000000000000000400070001C74
:10408000000780010007001C0070004000000000D5
:104090000000000000000000001F803FC071C060F1
:1040A000C000C00180030007000E000C000C0000DF
:1040B000000C000C0000000000000000001E003F8B
:1040C000803180718063806F806D806D806F8067CC
:1040D00000600032003E001C0000000000000000F4
:1040E000000E000E001B001B001B001B80318031E6
:1040F000803F803F8031C060C060C0600000000031
:1041000000000000007C007E006300630063006329
:10411000007E007E0063806180618063007F007E9E
:104120000000000000000000001E003F80318061A0
:1041300000600060006000600060006080618031AD
:10414000003F001E0000000000000000007C007F17
:1041500000638063806180618061806180618061D3
:1041600000630063007E007C00000000000000008F
:10417000807F807F0060006000600060007F007FC3
:104180000060006000600060807F807F00000000B1
:1041900000000000807F807F0060006000600060A1
:1041A000007F007F006000600060006000600060D1
:1041B0000000000000000000001E003F8031806110
:1041C0000060006000608063806380618061803196
:1041D000803F001E00000000000000008061806140
:1041E0008061806180618061807F807F806180618B
:1041F000806180618061806100000000000000003B
:10420000003F003F000C000C000C000C000C000CE8
:10421000000C000C000C000C003F003F00000000F0
:104220000000000080018001800180018001800188
:10423000800180018001806180618073003F001EE9
:104240000000000000000000C060806100630066A4
:104250000066006C0078007C006600660063806188
:104260008061C0600000000000000000006000608D
:10427000006000600060006000600060006000603E
:1042800000600060807F807F000000000000000070
:10429000C071C071C07BC07AC06AC06AC06EC064A1
:1042A000C060C060C060C060C060C060000000004E
:1042B0000000000080718071807980798079806D44
:1042C000806D806D806580678067806780638063B4
:1042D0000000000000000000001E003F003380616D
:1042E0008061806180618061806180618061003374
:1042F000003F001E0000000000000000007E007F64
:1043000080638061806180618063007F007E0060E7
:10431000006000600060006000000000000000001D
:10432000001E003F00338061806180618061806198
:104330008061806580670033803F401E0000000080
:1043400000000000007E007F8063806180618063E8
:10435000007F007E00660063006380618061C06052
:104360000000000000000000000E001F80318031BE
:1043700000300038001E00078003806180618031BA
:10438000003F001E0000000000000000C0FFC0FF52
:10439000000C000C000C000C000C000C000C000CBD
:1043A000000C000C000C000C0000000000000000DD
:1043B00080618061806180618061806180618061F5
:1043C0008061806180618073003F001E00000000FA
:1043D00000000000C060C060C0608031803180316A
:1043E000001B001B001B001B000E000E000E000433
:1043F0000000000000000000C0C0C0C0C0C0C0C0BD
:10440000C0C0C0CC804C804C805E80528052807393
:10441000806180610000000000000000C0C080607A
:1044200080610033003B001E000C000C001E001FCA
:10443000003B80718061C0C00000000000000000EF
:10444000C0C08061806100330033001E001E000C7C
:10445000000C000C000C000C000C000C0000000014
:1044600000000000803F803F800100030003000641
:10447000000C000C0018001800300060807F807F66
:10448000000000000000000F000F000C000C000CEA
:10449000000C000C000C000C000C000C000C000CBC
:1044A000000C000C000C000F000F0000001800189A
:1044B0000018000C000C000C000C000600060006A2
:1044C0000006000300030003000000000000001EBF
:1044D000001E000600060006000600060006000694
:1044E0000006000600060006000600060006001E84
:1044F000001E0000000C000C001E001200330033F0
:1045000080618061000000000000000000000000E9
:10451000000000000000000000000000000000009B
:10452000000000000000000000000000000000008B
:10453000000000000000E0FF00000000003800184C
:10454000000C00000000000000000000000000005F
:10455000000000000000000000000000000000005B
:104560000000000000000000001F803F806180010B
:10457000801F803F80618063807FC0380000000022
:10458000000000000060006000600060006E007FBE
:10459000807380618061806180618073007F006EC4
:1045A000000000000000000000000000000000000B
:1045B000001E003F80738061006000608061807336
:1045C000003F001E0000000000000000800180018C
:1045D00080018001801D803F8073806180618061E7
:1045E00080618073803F801D00000000000000009B
:1045F0000000000000000000001E003F007380610A
:10460000807F807F00608071003F001E00000000FE
:1046100000000000C007C00F000C000C807F807FEE
:10462000000C000C000C000C000C000C000C000C2A
:104630000000000000000000000000000000801DDD
:10464000803F807380618061806180618073803F82
:10465000801D80018063007F003E000000600060DC
:1046600000600060006F807F807180618061806188
:1046700080618061806180610000000000000000B6
:104680000006000600000000003E003E0006000696
:1046900000060006000600060006000600000000F6
:1046A00000000006000600000000003E003E00067C
:1046B00000060006000600060006000600060006CA
:1046C0000046007E003C000000600060006000606A
:1046D000806100630066006C007C0076006300630C
:1046E0008061C0600000000000000000003E003E4D
:1046F000000600060006000600060006000600068A
:104700000006000600060006000000000000000091
:10471000000000000000000080DDC0FFC0CEC0CC63
:10472000C0CCC0CCC0CCC0CCC0CCC0CC0000000041
:10473000000000000000000000000000006F807F0B
:104740008071806180618061806180618061806151
:104750000000000000000000000000000000000059
:10476000001E003F80738061806180618061807382
:10477000003F001E000000000000000000000000DC
:104780000000006E007F80738061806180618061C5
:104790008073007F006E00600060006000600000B9
:1047A000000000000000801D803F807380618061F8
:1047B000806180618073803F801D80018001800165
:1047C0008001000000000000000000000067803F42
:1047D0000039003000300030003000300030003050
:1047E00000000000000000000000000000000000C9
:1047F000001E803F80610060007F803F80018061FB
:10480000007F001E00000000000000000000000803
:1048100000180018007F007F00180018001800180A
:1048200000180018801F800F00000000000000002A
:1048300000000000000000008061806180618061F4
:104840008061806180618063807F803D0000000026
:10485000000000000000000000000000C060803187
:1048600080318031001B001B001B000E000E000673
:104870000000000000000000000000000000000038
:1048800080DD80DD80DD0055005500550077007724
:1048900000220022000000000000000000000000D4
:1048A00000000000806100330033001E000C000C8B
:1048B000001E003300338061000000000000000093
:1048C000000000000000806180618031003300330F
:1048D000001B001B001B000E000E000E001C007CC5
:1048E000007000000000000000000000C07FC07FDA
:1048F000800100030006000C00180030C07FC07F5C
:10490000000000000000800380070006000600068B
:1049100000060006000E001C001C000E000600062B
:104920000006000600068007800300060006000659
:104930000006000600060006000600060006000647
:104940000006000600060006000600060006003805
:10495000003C000C000C000C000C000C000E0007CA
:104960000007000E000C000C000C000C000C003CBA
:1049700000380000000000000000000000000000FF
:104980008038807F00470000000000000000000029
:104990000000000000000000000000000000000017
:1049A0000000000000000000000000000000000007
:1049B00000000000000000000000000000000000F7
:1049C00000000000000000000000E003E003E0033E
:1049D000E003E003E003E003E003C003C003C00121
:1049E000C001C001C001C001000000000000E003E0
:1049F000E003E003000000000000000000003C1E97
:104A00003C1E3C1E3C1E3C1E3C1E3C1E000000008A
:104A10000000000000000000000000000000000096
:104A20000000000000000000000000000000000086
:104A30000000CE01CE03DE039E039C039C07FF3FD4
:104A4000FF7F3807380F780F780F780EFFFFFFFFD2
:104A5000F01EF01CE01CE03CE03DE03900000000EE
:104A6000000000000000FC03FE0FEE1FE01EE01E31
:104A7000E01EE01EE01FE00FE007F003FC01FE0176
:104A8000FE01FE01FE01FE01FE01FE3DFC3FF00FB6
:104A9000E001E001000000000000033E07F78FE79F
:104AA0008EE79EE3BCE3B8E7F8E7F0F7E03FC0012C
:104AB000FF03FF07F307F30FF31EF33CF338F3781C
:104AC0007FF03FE000000000000000000000E00771
:104AD000F80F780F781F781F781F780FF00FE00F0E
:104AE000801FC37FC3FBE7F3F7F1F7F0FFF07FF020
:104AF0003EF87F7CFF3FEF1F000000000000000039
:104B00000000E003E003E003E003E003C003C001B2
:104B10000000000000000000000000000000000095
:104B20000000000000000000000000000000000085
:104B30000000000000003F007C00F001E001C00325
:104B4000C00780078007800F000F000F000F000FC5
:104B5000000F000F800F80078007C007C003E0012F
:104B6000F0017C003F000F000000007E001FC00726
:104B7000C003E001F001F000F000F80078007800D8
:104B80007800780078007800F800F000F000F0017C
:104B9000E001C003C007001F007E00780000E003B2
:104BA000C003C001CE39FF3F7F3F20037003F807E9
:104BB000780F3C1F380600000000000000000000D5
:104BC00000000000000000000000000000000000E5
:104BD0000000000000000000000000000000C00114
:104BE000C001C001C001C001C001C001FFFFFFFF43
:104BF000C001C001C001C001C001C001000000002F
:104C000000000000000000000000000000000000A4
:104C10000000000000000000000000000000000094
:104C20000000000000000000E003E003E003E003F8
:104C3000E001E001E001C00180030000000000008D
:104C40000000000000000000000000000000000064
:104C5000FE3FFE3F000000000000000000000000DA
:104C60000000000000000000000000000000000044
:104C70000000000000000000000000000000000034
:104C80000000000000000000000000000000000024
:104C9000E003E003E003E003000000000000000088
:104CA00000000F000F001E001E003C003C007800BA
:104CB0007800F000F000E001E001C003C0038007CD
:104CC0008007000F000F001E001E003C003C007813
:104CD000007800F00000F007F80F7C1F3E3E1E3CFD
:104CE0001F7C1F7C0F780F780F780F780F780F7864
:104CF0000F781F7C1F7C1E3C3E3E7C1FF80FF00788
:104D000000000000000000000000F000F007F03F8D
:104D1000F03FF001F001F001F001F001F001F001CD
:104D2000F001F001F001F001F001F001F001F001FB
:104D3000FF3FFF3F00000000000000000000E00F08
:104D4000F83F7C3C3C003E003E003E003C003C0006
:104D50007C00F800F001E003C0078007000F001E90
:104D6000003E003CFE3FFE3F00000000000000004F
:104D70000000F00FF81F7C1C3E003E003E003C008F
:104D80003C00F800F00FF80F7C003E001E001E00F3
:104D90001E001E003E007C1CF81FE01F00000000EB
:104DA0000000000000007800F800F800F801F803A7
:104DB000F807F807780F781E781E783C78787878AE
:104DC000FFFFFFFF78007800780078007800780017
:104DD00000000000000000000000FC1FFC1FFC1F82
:104DE000001E001E001E001E001EE01FF81FFC001B
:104DF0007C003E003E001E003E003E003C007C1C4D
:104E0000F81FE01F00000000000000000000FC018F
:104E1000FE078E0F001F001E003E003C003CF83DC8
:104E2000FC3F3E7F1F7E0F3C0F3C0F3C0F3C0F3E74
:104E30001F1E3E1FFC0FF0030000000000000000DA
:104E40000000FF3FFF3FFF3F0F001E001E003C0021
:104E500038007800F000F000E001E001C003C0037A
:104E60008007800F800F000F001F001F0000000050
:104E7000000000000000F807FC0F3E1F1E1E1E3E33
:104E80001E3E1E1E3C1FF80FF007F80FFC1E3E3E94
:104E90001F3C1F7C0F7C0F7C1F3C3E3FFC1FF0071C
:104EA00000000000000000000000F007F80F7C1E6A
:104EB0003E3C1E3C1F7C1F7C1F7C1F7C1F3C3F3EDA
:104EC000FF1FEF071F001E001E003E003C00F838C9
:104ED000F03FE01F000000000000000000000000A4
:104EE00000000000000000000000E003E003E00319
:104EF000E0030000000000000000000000000000CF
:104F0000E003E003E003E003000000000000000015
:104F10000000000000000000000000000000E003AE
:104F2000E003E003E00300000000000000000000D8
:104F300000000000E003E003E003E003E001E00123
:104F4000E001C0038003000000000000000000003A
:104F5000000003000F003F00FC00F003C00F003F03
:104F600000FE003FC00FF003FC003F000F000300F5
:104F70000000000000000000000000000000000031
:104F80000000000000000000000000000000FFFF23
:104F9000FFFF000000000000FFFFFFFF0000000017
:104FA0000000000000000000000000000000000001
:104FB0000000000000000000000000E000F8007E9B
:104FC000801FE007F8017E001F007E00F801E00767
:104FD000801F007E00F800E00000000000000000DC
:104FE0000000F01FFC3F3E381F381F381E001E0017
:104FF0003C007800F000E001C003C003C007C00718
:10500000000000000000C007C007C007000000004B
:10501000000000000000F803FE0F1E1F0F3E7F3C43
:10502000FF78EF79C773C7F38FF38FF38FF39FF395
:105030009FF3FF73FF7BF779003C1C1FFC0FF80305
:105040000000000000000000000000000000000060
:10505000E003E003F007F007F007780F780F7C0E0D
:105060003C1E3C1E3E3CFE3FFF3F1F780F780FF07A
:1050700007F007F000000000000000000000000042
:1050800000000000F83FFC3F3E3C1E3C1E3C1E3C26
:105090003E3C7C3CF03FF83F7E3C1F3C1F3C0F3CBD
:1050A0000F3C1F3CFE3FF83F0000000000000000E6
:1050B0000000000000000000FF01FF07871F003E06
:1050C000003C007C00780078007800780078007C54
:1050D000007C003E003F831FFF07FF01000000002F
:1050E000000000000000000000000000F07FFC7FD6
:1050F0007E781F781F780F780F780F780F780F78E9
:105100000F780F780F781F781E787E78F87FE07F11
:10511000000000000000000000000000000000008F
:10512000FF3FFF3F003E003E003E003E003E003E8F
:10513000FE3FFE3F003E003E003E003E003E003E81
:10514000FF3FFF3F000000000000000000000000E3
:1051500000000000FF1FFF1F001E001E001E001E9B
:10516000001E001EFF1FFF1F001E001E001E001E4F
:10517000001E001E001E001E0000000000000000B7
:105180000000000000000000FE03FF0F871F003E2C
:10519000007C007C007800F800F87FF87FF80F783A
:1051A0000F7C0F7C0F3E8F1FFF0FFE0300000000DF
:1051B0000000000000000000000000001F7C1F7CB9
:1051C0001F7C1F7C1F7C1F7C1F7C1F7CFF7FFF7F41
:1051D0001F7C1F7C1F7C1F7C1F7C1F7C1F7C1F7CF7
:1051E00000000000000000000000000000000000BF
:1051F000FF3FFF3FE003E003E003E003E003E003E1
:10520000E003E003E003E003E003E003E003E00386
:10521000FF3FFF3F00000000000000000000000012
:1052200000000000FC1FFC1F7C007C007C007C0058
:105230007C007C007C007C007C007C007C00780092
:105240007800F838F03FC03F000000000000000088
:1052500000000000000000001F3C1E3C3C3C783C6D
:10526000F03CE03DE03FC03F803FC03FE03FF03DCD
:10527000F03C783C7C3C3E3C1F3C0F3C0000000076
:10528000000000000000000000000000003E003EA2
:10529000003E003E003E003E003E003E003E003E1E
:1052A000003E003E003E003E003E003EFF3FFF3F0E
:1052B00000000000000000000000000000000000EE
:1052C0001FF81FFC1FFC3FFE3FFE3FFE7FFF77FFE6
:1052D00077FFF7F7E7F7E7F3E7F3C7F307F007F030
:1052E00007F007F0000000000000000000000000D0
:1052F000000000000F7C0F7C0F7E0F7F0F7F8F7FE1
:105300008F7FCF7FEF7BEF79FF79FF78FF787F7812
:105310003F783F781F781F780000000000000000F1
:105320000000000000000000F007FC1F3E3E1F7C54
:105330000F780F780FF80FF80FF80FF80FF80FF835
:105340000F780F781F7C3E3EFC1FF0070000000026
:10535000000000000000000000000000FC3FFF3FD4
:105360001F3E0F3E0F3E0F3E0F3E1F3E3F3EFC3F97
:10537000F03F003E003E003E003E003E003E003E4C
:10538000000000000000000000000000000000001D
:10539000F007FC1F3E3E1F7C0F780F780FF80FF8C8
:1053A0000FF80FF80FF80FF80F780F781F7C3E3EBC
:1053B000FC1FF8077C003F000F0003000000000006
:1053C00000000000F03FFC3F7E3C3E3C1E3C1E3C8B
:1053D0003E3C3C3CFC3CF03FE03FF03DF83C7C3C3C
:1053E0003E3C1E3C1F3C0F3C000000000000000043
:1053F0000000000000000000FC07FE1F0E3E003C05
:10540000003C003C003EC01FF80FFE037F001F0061
:105410000F000F001F203E3CFC3FF01F000000006B
:10542000000000000000000000000000FFFFFFFF80
:10543000E003E003E003E003E003E003E003E00354
:10544000E003E003E003E003E003E003E003E00344
:10545000000000000000000000000000000000004C
:105460000F7C0F7C0F7C0F7C0F7C0F7C0F7C0F7CE4
:105470000F7C0F7C0F7C0F7C0F7C1E3C1E3C3E3E45
:10548000FC1FF0070000000000000000000000000A
:105490000000000007F007F007F80F780F7C1E3CB3
:1054A0001E3C1E3E3C1E3C1F781F780FF80FF00775
:1054B000F007F007E003E003000000000000000038
:1054C000000000000000000003E003F003F007F01C
:1054D000E7F3E7F3E7F3E773F77BF77FFF7F7F7F80
:1054E0007F7F7E7F7E3F3E3E3E3E3E3E0000000090
:1054F00000000000000000000000000007F80F7C22
:105500001E3E3E3E3C1FF80FF007E007E003E003BD
:10551000F007F80F7C0F7C1E3E3C1F780F780FF0D1
:10552000000000000000000000000000000000007B
:1055300007F807780F7C1E3C1E3E3C1F780FF80FC3
:10554000F007E003E003E003E003E003E003E0032F
:10555000E003E00300000000000000000000000085
:1055600000000000FF7FFF7F0F001F003E007C0057
:10557000F800F000E001E003C007800F000F001EFC
:10558000003E007CFF7FFF7F000000000000000065
:105590000000FF07800780078007800780078007DB
:1055A00080078007800780078007800780078007C3
:1055B00080078007800780078007800780078007B3
:1055C000FF07FF07000000780078003C003C001E49
:1055D000001E000F000F80078007C003C003E0011A
:1055E000E001F000F000780078003C003C001E0074
:1055F0001E000F000F0007000000F07FF000F00019
:10560000F000F000F000F000F000F000F000F0001A
:10561000F000F000F000F000F000F000F000F0000A
:10562000F000F000F000F000F07FF07F0000C0001C
:10563000C001C001E003E003F007F0077807780F2E
:10564000380F3C1E3C1E1E3C1E3C0F380F7807785E
:10565000000000000000000000000000000000004A
:10566000000000000000000000000000000000003A
:10567000000000000000000000000000000000002A
:10568000000000000000000000000000FFFFFFFF1E
:10569000000000000000F00000000000000000001A
:1056A00000000000000000000000000000000000FA
:1056B00000000000000000000000000000000000EA
:1056C00000000000000000000000000000000000DA
:1056D000000000000000F80FFC3F7C3C3E003E0054
:1056E0003E00FE07FE1F3E3E3E7C3E783E7C7E7CBA
:1056F000FF3FCF1F00000000000000000000003C42
:10570000003C003C003C003C003CF83DFE3F3E3F7E
:105710001F3E0F3C0F3C0F3C0F3C0F3C0F3C1F3C0F
:105720001E3C3E3FFC3FF03B00000000000000003C
:105730000000000000000000000000000000FE0368
:10574000FF0F871F003E003E003C007C007C007C79
:10575000003C003E003E871FFF0FFE0300000000DC
:105760000000000000001F001F001F001F001F009E
:105770001F00FF07FF1F3F3E1F3C1F7C1F7C1F7C3D
:105780001F781F781F7C1F7C3F3C7F3EFF1FDF0F71
:105790000000000000000000000000000000000009
:1057A000000000000000F803FC0F3E1F1E3E1F3CDF
:1057B0001F7CFF7FFF7F007C007C003C003E071FBA
:1057C000FF0FFE0300000000000000000000FF01CA
:1057D000E103C003C007C007C007FF7FFF7FC0070A
:1057E000C007C007C007C007C007C007C007C00781
:1057F000C007C007C007C00700000000000000008D
:105800000000000000000000000000000000EF07A2
:10581000FF1F7F3E1F3C1F7C1F7C1F781F781F7857
:105820001F7C1F7C3F3C7F3EFF1FDF0F1E001E00C2
:105830001E007C38F83F003C003C003C003C003C33
:10584000003CFC3DFE3F9E3F1F3F1F3E1F3C1F3C58
:105850001F3C1F3C1F3C1F3C1F3C1F3C1F3C1F3C70
:1058600000000000000000000000F001F001000056
:10587000000000000000E07FE07FE001E001E001C7
:10588000E001E001E001E001E001E001E001E00110
:10589000E001E00100000000000000000000F8004E
:1058A000F8000000000000000000F83FF83FF8009A
:1058B000F800F800F800F800F800F800F800F80028
:1058C000F800F800F800F800F800F800F000F071B7
:1058D000E07F003C003C003C003C003C003C1F3CA6
:1058E0003E3C7C3CF83CF03DE03DC03FC03FE03FEB
:1058F000F03DF83C7C3C3E3C1F3C1F3C000000005F
:10590000000000000000F07FF001F001F001F00164
:10591000F001F001F001F001F001F001F001F001FF
:10592000F001F001F001F001F001F001F001F001EF
:105930000000000000000000000000000000000067
:105940000000000000009EF7FFFFFFFFFFFFE7FBE6
:10595000E7F9C7F1C7F1C7F1C7F1C7F1C7F1C7F15F
:10596000C7F1C7F1000000000000000000000000C7
:1059700000000000000000000000FC3DFE3F9E3FD4
:105980001F3F1F3E1F3C1F3C1F3C1F3C1F3C1F3C3A
:105990001F3C1F3C1F3C1F3C00000000000000009B
:1059A0000000000000000000000000000000F00700
:1059B000FC1F3E3E1F3C1F7C0F780F780F780F783E
:1059C0000F781F7C1F3C3E3EFC1FF00700000000CC
:1059D00000000000000000000000000000000000C7
:1059E0000000F83DFE3F3E3F1F3E0F3C0F3C0F3C8A
:1059F0000F3C0F3C0F3C1F3C1E3E3E3FFC3FF83F20
:105A0000003C003C003C003C003C0000000000006A
:105A1000000000000000EE07FE1F7E3E1E3C1E7CC4
:105A20001E781E781E781E781E781E7C3E7C7E3E78
:105A3000FE1FDE0F1E001E001E001E001E000000C6
:105A4000000000000000000000007F1FFF1FE71F94
:105A5000C71F871F001F001F001F001F001F001F00
:105A6000001F001F001F001F0000000000000000BA
:105A70000000000000000000000000000000FC0723
:105A8000FE1F0E1E003E003E003FE01FFC07FE0012
:105A90003E001E001E003E3CFC3FF01F00000000C8
:105AA00000000000000000000000000080078007E8
:105AB0008007FF7FFF7F80078007800780078007C0
:105AC00080078007800780078007C007FF03FF016A
:105AD00000000000000000000000000000000000C6
