:020000040800F2
:10000000900600206D0200080D0900084506000852
:10001000090900080B050008150F00080000000082
:10002000000000000000000000000000190B0008A4
:100030000F050008000000000F0900083D0C000833
:10004000870200088702000887020008870200086C
:10005000870200088702000887020008870200085C
:10006000870200088702000887020008870200084C
:10007000870200088702000887020008870200083C
:10008000870200088702000887020008870200082C
:10009000870200088702000887020008870200081C
:1000A000870200088702000887020008870200080C
:1000B00087020008870200088702000887020008FC
:1000C00087020008870200088702000887020008EC
:1000D00087020008870200088702000887020008DC
:1000E00087020008870200088702000887020008CC
:1000F00087020008870200088702000887020008BC
:1001000087020008870200088702000887020008AB
:10011000870200088702000887020008870200089B
:10012000870200088702000887020008870200088B
:10013000870200080000000000000000870200089D
:10014000870200088702000887020008870200086B
:10015000870200088702000887020008870200085B
:10016000870200088702000887020008870200084B
:1001700087020008870200088702000800000000CC
:1001800000000000870200080000000000000000DE
:10019000870200080000000000000000870200083D
:1001A00000000000000000000000000087020008BE
:1001B00087020008870200088702000887020008FB
:1001C0008702000800F002F800F041F80AA090E869
:1001D000000C82448344AAF10107DA4501D100F002
:1001E00036F8AFF2090EBAE80F0013F0010F18BF8E
:1001F000FB1A43F001031847EC0D00000C0E000041
:10020000103A24BF78C878C1FAD8520724BF30C842
:1002100030C144BF04680C60704700000023002414
:1002200000250026103A28BF78C1FBD8520728BF06
:1002300030C148BF0B607047782900F077800020FC
:1002400070471FB500F0B4FE1FBD10B510BD00F023
:1002500023F91146FFF7F5FF00F092FE00F041F997
:1002600003B4FFF7F2FF03BC00F048F909488047E8
:1002700009480047FEE7FEE7FEE7FEE7FEE7FEE788
:10028000FEE7FEE7FEE7FEE704480549054A064BA0
:1002900070470000410C0008C501000890000020D4
:1002A0009006002090020020900200200FB4044924
:1002B00010B503AA029800F0C1F810BC5DF814FB59
:1002C000180000202DE9F0410E460446002020626F
:1002D0002046E168884730B3252805D0D4E90121BC
:1002E0009047206A401CF2E7E168204600278847D3
:1002F000050018D0A5F14100192802D820354FF487
:1003000000673246294620462760FFF795FF40B137
:10031000012804D0F61D26F007060836D8E7361D5A
:10032000D6E72846DAE7206ABDE8F08170B50446D2
:100330000D4621461068AFF300802188090502D5DB
:100340000F4A7A4402E00E4A7A440E32002104F148
:10035000240305E000F00F060009965D5E54491C79
:100360000028F7D120780023000704D5702D02D093
:1003700009B1022311322046BDE8704000F005B8F3
:10038000740C00007047704770472DE9F0470D4628
:1003900099469246044600F124080168880604D56F
:1003A000E06921F01001216000E00120A84201DD98
:1003B000471B00E00027A1697A1902EB0900081A1F
:1003C000A0612078C00602D42046AFF3008000264A
:1003D00008E0D4E901211AF806009047206A401C81
:1003E000761C20624E45F4DB2078C0060AD52046F4
:1003F000AFF3008006E0D4E9012130209047206A65
:10040000401C2062381EA7F10107F4DC07E0D4E9A4
:10041000012118F805009047206A401C2062281E20
:10042000A5F10105F3DC2046AFF30080207800063B
:1004300002D50220BDE8F0870120FBE7074B70B52D
:100440000D467B4400F011F80446284600F020F8E1
:1004500010B14FF0FF3070BD204670BD2B0B000077
:1004600001694A1C02610878704700B58FB0CDE978
:1004700001310021059105497944CDE90310114668
:100480006846FFF71FFF0FB000BD0000E5FFFFFF4C
:10049000007B00F080007047754600F02BF8AE46F8
:1004A00005006946534620F00700854618B020B580
:1004B000FFF7EAFEBDE820404FF000064FF00007CE
:1004C0004FF000084FF0000B21F00701AC46ACE8FC
:1004D000C009ACE8C009ACE8C009ACE8C0098D4669
:1004E000704710B50446AFF300802046BDE81040C9
:1004F000FFF7B6BE004870472C00002001491820C5
:10050000ABBEFEE726000200704700BFFEE7704763
:100510001CB50121022000F0FBF901208DF8040038
:1005200000208DF8060044F28100009000208DF834
:10053000070002208DF805006946094800F012F80E
:1005400001221146064800F078F801228021044873
:1005500000F073F801229103014800F06EF81CBD11
:1005600000040240F0B50A4600210023002400BF29
:100570003DE0012505FA01F3156805EA03049C42F4
:1005800034D105684F000326BE40B5430560157998
:100590004E00B5400668354305601579012D02D03F
:1005A0001579022D16D185684F000326BE40B5434C
:1005B000856055794E00B54086683543856045684D
:1005C00001268E40B5434560456896798E40B6B2A7
:1005D00035434560C5684F000326BE40B543C5603E
:1005E000D5794E00B540C6683543C560491C102911
:1005F000BFD3F0BDF0B5002300244D07ED0E02FA85
:1006000005F3CE1000F1200555F826504E07F70EE1
:100610000F26BE40B543CF1000F1200646F8275004
:10062000CE1000F1200555F8265045EA0304CE10FF
:1006300000F1200545F82640F0BD0AB1018300E035
:100640004183704700BFFEE721B1028842F4806217
:10065000028004E002884FF6FF331A4002807047A0
:1006600070B502460024002500230020958A138BD4
:100670001B0445EA030626F07F4404EA01068E4285
:1006800001D1012000E0002070BD21B1028842F0BC
:100690000102028004E002884FF6FE731A400280D5
:1006A000704721B1028842F48072028004E002881F
:1006B0004FF6FF631A400280704721B1028842F46E
:1006C0000072028004E002884FF6FF531A40028055
:1006D00070470CB50246002000230193009300925E
:1006E0000B0F019321F07F41019B1BB1009B143341
:1006F000009303E0090C009B18330093009B1B68D8
:100700000B400BB1012000E000200CBD2DE9FF479C
:1007100004460D460026B1460427DFF8CC80A688A3
:100720004FF6C0700640684600F012F9DDF8088008
:100730002E48B8FBF0F01FFA80F946EA0906A680B9
:1007400020884FF6FE71084020800026284928683E
:1007500088420CD828684000B8FBF0F087B2042F1C
:1007600000DA04273E4309F10100208427E0E888ED
:100770004BF6FF71884206D1286800EB4000B8FBB9
:10078000F0F087B209E0286800EBC00101EB00102F
:10079000B8FBF0F087B247F48047C7F30B0008B905
:1007A00047F0010747F4004006434FF4967009FBF9
:1007B00000F04FF47A7190FBF1F0401C2084A68386
:1007C000208840F00100208026884FF6F530064052
:1007D000A8886989084306432680A889298908438F
:1007E0002081BDE8FF87000000127A0040420F0020
:1007F000A086010000B587B00121480500F098F8F7
:100800000121022000F084F802208DF81800012058
:100810008DF81A004FF44070059001208DF81B00F0
:1008200002208DF8190005A91648FFF79BFE042247
:1008300008211448FFF7DEFE042209211148FFF7C2
:10084000D9FE4FF48060ADF80E000001ADF8100045
:100850000D4801904BF6FF70ADF80A000020ADF88E
:1008600008000120ADF80C0001A90848FFF74EFF71
:1008700001210648FFF709FF01210448FFF7E4FEC4
:1008800007B000BD00040240A086010000540040F3
:1008900070B505460C46012421E001212846FFF7EA
:1008A00000FF00BF0F492846FFF7DAFE0028F9D005
:1008B00000222146284600F01FF801212846FFF7B4
:1008C000FCFE642000F044FB07492846FFF701FFC7
:1008D00018B1214605A0FFF7E9FC601CC4B2FF2C4B
:1008E000DBDB70BD01000300020000104144443A0C
:1008F000307825582000000012B141F0010101E0DC
:1009000001F0FE010182704700BFFEE770477047AB
:1009100029B1064A12680243044B1A6004E0034AF4
:1009200012688243014B1A60704700003038024061
:1009300029B1064A12680243044B1A6004E0034AD4
:1009400012688243014B1A60704700004038024031
:100950002DE9F04100210023002402260025022277
:100960000227DFF8A4C1DCF800C00CF00C0131B1A3
:10097000042909D008290CD00C297CD148E0DFF8E3
:100980008CC1C0F800C089E0DFF884C1C0F800C0A5
:1009900084E0DFF874C1ACF1040CDCF800C0CCF3E7
:1009A0008055DFF864C1ACF1040CDCF800C00CF039
:1009B0003F0275B1DFF858C1BCFBF2FCDFF848819B
:1009C000A8F10408D8F80080C8F388180CFB08F4D4
:1009D0000DE0DFF838C1BCFBF2FCDFF82C81A8F198
:1009E0000408D8F80080C8F388180CFB08F4DFF876
:1009F00018C1ACF1040CDCF800C0CCF3014C0CF1D4
:100A0000010C4FEA4C06B4FBF6FCC0F800C045E010
:100A1000DFF8F4C0ACF1040CDCF800C0CCF3805576
:100A2000DFF8E4C0ACF1040CDCF800C00CF03F02CD
:100A300075B1DFF8DCC0BCFBF2FCDFF8CC80A8F1BC
:100A40000408D8F80080C8F388180CFB08F40DE0FF
:100A5000DFF8B8C0BCFBF2FCDFF8AC80A8F10408FA
:100A6000D8F80080C8F388180CFB08F4DFF898C0A9
:100A7000ACF1040C00E00CE0DCF800C0CCF3027C2C
:100A80000CF1010C4FEA4C07B4FBF7FCC0F800C0B6
:100A900004E0DFF878C0C0F800C000BF00BFDFF896
:100AA00068C0DCF800C00CF0F0010909DFF864C090
:100AB0001CF80130D0F800C02CFA03FCC0F804C0C8
:100AC000DFF844C0DCF800C00CF4E051890ADFF81C
:100AD00044C01CF80130D0F804C02CFA03FCC0F864
:100AE00008C0DFF824C0DCF800C00CF46041490BFA
:100AF000DFF820C01CF80130D0F804C02CFA03FC49
:100B0000C0F80CC0BDE8F081083802400024F400B1
:100B100000127A001C000020704700000CB5002075
:100B2000019000904148006840F480303F490860DF
:100B300000BF3E48006800F4003000900198401C5F
:100B40000190009818B90198B0F5A04FF1D137483D
:100B5000006800F4003010B10120009001E0002096
:100B600000900098012860D130484030006840F083
:100B700080502E49403108602D48006840F44040C4
:100B80002B49086029480830006828490831086066
:100B90000846006840F4004008600846006840F4D9
:100BA000A05008602348091F0860081F006840F033
:100BB0008070091F086000BF1C48006800F00070CA
:100BC0000028F9D01A48006840F4803018490860BD
:100BD00000BF1748406800F480300028F9D014485E
:100BE000006840F400301249086000BF10484068B7
:100BF00000F400300028F9D040F205700E4908607A
:100C00000A480830006820F00300084908310860ED
:100C10000846006840F00200086000BF0348083042
:100C2000006800F00C000828F8D10CBD0038024024
:100C300000700040085A4077003C024070470000B6
:100C400010B51548006840F4700013490860134857
:100C5000006840F001001149086000200F49083188
:100C600008600E4800680E4908400C4908600D48AD
:100C7000091D0860081F006820F48020091F086013
:100C8000002006490C310860FFF748FF4FF0006074
:100C900001498039086010BD88ED00E0003802404D
:100CA000FFFFF6FE1030002421B1028842F001025D
:100CB000028004E002884FF6FE731A4002807047FB
:100CC0000146486A7047416270470000002202886E
:100CD000184B98420ED0184B98420BD0B0F1804F71
:100CE00008D0164B984205D0154B984202D0154BB0
:100CF000984204D14FF68F731A404B881A43124B17
:100D0000984207D0114B984204D04FF6FF431A4047
:100D10000B891A4302804B68C3620B880385054B1D
:100D2000984202D0044B984201D18B7A038601236A
:100D3000838270470000014000040140000400402D
:100D400000080040000C004000100040001400406B
:100D50000EB501211020FFF7EBFD5320ADF8000088
:100D60004FF6FF70019069460348FFF7AFFF01217E
:100D70000148FFF799FF0EBD0010004000B587B095
:100D800001214804FFF7D4FD01210820FFF7C0FD31
:100D900002208DF8180000208DF81A0060200590C0
:100DA00000208DF81B0002208DF8190005A91348BA
:100DB000FFF7D8FB072205211048FFF71BFC07228D
:100DC00006210E48FFF716FC4FF416500190002044
:100DD000ADF810000C20ADF80E000020ADF80C00AE
:100DE000ADF80A00ADF8080001A9054800F024F8A4
:100DF0000121034800F006F807B000BD000C0240D6
:100E00000044004021B1828942F40052828104E012
:100E100082894DF6FF731A40828170470246002096
:100E2000B1F5007F00D100BF13880B400BB101204A
:100E300000E00020704700002DE9FF4705460E4600
:100E40000024A14600BFA046B08900B100BF2C8A93
:100E500024F44054F08804432C82AC8941F20C60A5
:100E60008443B08831890843718908430443AC81C5
:100E7000AC8A24F44074B0890443AC826846FFF71E
:100E800067FD2048854202D01F48854202D1DDF827
:100E90000C9001E0DDF80890A88900F4004040B112
:100EA00009EBC90000EB091031684900B0FBF1F70C
:100EB00007E009EBC90000EB091031688900B0FBBD
:100EC000F1F76420B7FBF0F004012009642101FB75
:100ED0001078A88900F4004040B1322000EBC8002F
:100EE000B0FBF1F000F00700044308E0322000EB13
:100EF00008106421B0FBF1F000F00F0004432C81D6
:100F0000BDE8FF870010014000140140C1F3080252
:100F10008280704700BFFEE701B59DF800100548CC
:100F2000FFF7F4FF00BF80210248FFF777FF00289A
:100F3000F9D008BD0044004070B50446002504E027
:100F40004FF47A7000F004F86D1CA542F8D370BD20
:100F500010B5044600210548FFF7B5FE00BF034861
:100F6000FFF7AEFEA042FAD310BD00000010004013
:100F700070B504460D46E0B2FFF7CEFF204670BDC7
:100F8000FFF7C6FAFFF7E4FEFFF7F8FEFFF732FCC3
:100F900008E0054801780548FFF77AFC4FF47A70BD
:100FA000FFF7CAFFF5E700000000002000540040F2
:100FB0004FF04070E1EE100A704730313233343573
:100FC0003637383941424344454640305800303185
:100FD00032333435363738396162636465664030A0
:100FE0007800000004100008000000202C00000021
:100FF00000020008301000082C00002064060000E9
:101000001C020008000000000000000000000000BA
:1010100000000000000000000000000000000000D0
:10102000000000000102030401020304060708098E
:040000050800026D80
:00000001FF
