:020000040800F2
:100000007006002065020008B708000859040008BF
:10001000B30800081F0300089D0E00080000000040
:10002000000000000000000000000000C50A0008F9
:100030002303000800000000B9080008E90B0008CD
:100040007F0200087F0200087F0200087F0200088C
:100050007F0200087F0200087F0200087F0200087C
:100060007F0200087F0200087F0200087F0200086C
:100070007F0200087F0200087F0200087F0200085C
:100080007F0200087F0200087F0200087F0200084C
:100090007F0200087F0200087F0200087F0200083C
:1000A0007F0200087F0200087F0200087F0200082C
:1000B0007F0200087F0200087F0200087F0200081C
:1000C0007F0200087F0200087F0200087F0200080C
:1000D0007F0200087F0200087F0200087F020008FC
:1000E0007F0200087F0200087F0200087F020008EC
:1000F0007F0200087F0200087F0200087F020008DC
:100100007F0200087F0200087F0200087F020008CB
:100110007F0200087F0200087F0200087F020008BB
:100120007F0200087F0200087F0200087F020008AB
:100130007F02000800000000000000007F020008AD
:100140007F0200087F0200087F0200087F0200088B
:100150007F0200087F0200087F0200087F0200087B
:100160007F0200087F0200087F0200087F0200086B
:100170007F0200087F0200087F02000800000000E4
:10018000000000007F0200080000000000000000E6
:100190007F02000800000000000000007F0200084D
:1001A0000000000000000000000000007F020008C6
:1001B0007F0200087F0200087F0200087F0200081B
:1001C0007F02000800F002F800F03CF80AA090E876
:1001D000000C82448344AAF10107DA4501D100F002
:1001E00031F8AFF2090EBAE80F0013F0010F18BF93
:1001F000FB1A43F001031847480D0000680D00008A
:10020000103A24BF78C878C1FAD8520724BF30C842
:1002100030C144BF04680C60704700000023002414
:1002200000250026103A28BF78C1FBD8520728BF06
:1002300030C148BF0B6070471FB500F07BFE1FBD8B
:1002400010B510BD00F031F81146FFF7F5FF00F0D2
:1002500043FE00F04FF803B4FFF7F2FF03BC00F0D9
:1002600057F800000948804709480047FEE7FEE7C5
:10027000FEE7FEE7FEE7FEE7FEE7FEE7FEE7FEE756
:1002800004480549054A064B70470000ED0B00087D
:10029000C5010008700000207006002070020020D8
:1002A00070020020704770477047754600F02CF8C8
:1002B000AE4605006946534620F00700854618B053
:1002C00020B5FFF7DDFFBDE820404FF000064FF0FE
:1002D00000074FF000084FF0000B21F00701AC467B
:1002E000ACE8C009ACE8C009ACE8C009ACE8C0099A
:1002F0008D46704710B50446AFF300802046BDE838
:100300001040FFF7A8BF0000004870471000002011
:1003100001491820ABBEFEE726000200704700BF6F
:10032000FEE770471CB50121022000F0C7FA01204A
:100330008DF8040000208DF8060044F28100009042
:1003400000208DF8070002208DF805006946094855
:1003500000F012F801221146064800F078F8012258
:100360008021044800F073F801229103014800F055
:100370006EF81CBD00040240F0B50A4600210023BF
:10038000002400BF3DE0012505FA01F3156805EAE8
:1003900003049C4234D105684F000326BE40B54398
:1003A000056015794E00B54006683543056015793E
:1003B000012D02D01579022D16D185684F00032634
:1003C000BE40B543856055794E00B54086683543DB
:1003D0008560456801268E40B5434560456896793D
:1003E0008E40B6B235434560C5684F000326BE4017
:1003F000B543C560D5794E00B540C6683543C56084
:10040000491C1029BFD3F0BDF0B5002300244D07CF
:10041000ED0E02FA05F3CE1000F1200555F8265036
:100420004E07F70E0F26BE40B543CF1000F1200651
:1004300046F82750CE1000F1200555F8265045EA21
:100440000304CE1000F1200545F82640F0BD0AB1A6
:10045000018300E04183704700BFFEE721B10288BD
:1004600042F48062028004E002884FF6FF331A40B3
:100470000280704770B5024600240025002300204A
:10048000958A138B1B0445EA030626F07F4404EA91
:1004900001068E4201D1012000E0002070BD21B193
:1004A000028842F00102028004E002884FF6FE73E7
:1004B0001A4002807047000000B587B0012148054E
:1004C00000F00CFA0121022000F0F8F902208DF86A
:1004D000180001208DF81A004FF44070059001209B
:1004E0008DF81B0003208DF8190005A91648FFF7A9
:1004F00043FF042208211448FFF786FF0422092144
:100500001148FFF781FF4FF48060ADF80E00000145
:10051000ADF810000D4801904BF6FF70ADF80A00E1
:100520000020ADF808000120ADF80C0001A9084832
:1005300000F028F801210648FFF7B1FF0121044827
:10054000FFF78CFF07B000BD00040240A086010049
:100550000054004021B1028842F48072028004E01D
:1005600002884FF6FF631A400280704721B102886B
:1005700042F40072028004E002884FF6FF531A40F2
:10058000028070472DE9FF4704460D460026B1461C
:100590000427DFF8CC80A6884FF6C0700640684676
:1005A00000F0ACF9DDF808802E48B8FBF0F01FFA37
:1005B00080F946EA0906A68020884FF6FE710840B9
:1005C000208000262849286888420CD828684000E6
:1005D000B8FBF0F087B2042F00DA04273E4309F19C
:1005E0000100208427E0E8884BF6FF71884206D19D
:1005F000286800EB4000B8FBF0F087B209E02868FB
:1006000000EBC00101EB0010B8FBF0F087B247F43B
:100610008047C7F30B0008B947F0010747F40040D3
:1006200006434FF4967009FB00F04FF47A7190FB8B
:10063000F1F0401C2084A683208840F00100208037
:1006400026884FF6F5300640A88869890843064396
:100650002680A889298908432081BDE8FF870000FA
:1006600000127A0040420F00A086010012B141F052
:10067000010101E001F0FE01018270470182704733
:1006800070B505460C4664B9002229460C48FFF7B0
:10069000EDFF00BF0B490A48FFF7ECFE0028F9D038
:1006A0000DE0012C0BD1012229460548FFF7DEFFA2
:1006B00000BF05490248FFF7DDFE0028F9D070BDF4
:1006C00000540040820007000200030010B5012121
:1006D0000748FFF7C3FE01210548FFF73BFF00BFB6
:1006E00004490348FFF7C6FE0028F9D010BD0000FA
:1006F000005400400100030010B501210148FFF73C
:1007000035FF10BD0054004010B504462146054891
:10071000FFF7B4FF00BF04490248FFF7ABFE002813
:10072000F9D010BD00540040840007002DE9F041CD
:1007300007460D4616461C46FFF7C8FF00213846FF
:10074000FFF79EFF2846FFF7DFFFFFF7BFFF0021FF
:100750003846FFF795FF03E014F8010BFFF7D4FFCD
:10076000301EA6F10101CEB2F6D1FFF7C5FFBDE8FC
:10077000F08110B5642000F093FB302000F044F8C5
:10078000052000F08DFB302000F03EF8052000F041
:1007900087FB302000F038F8052000F081FB202096
:1007A00000F032F8052000F07BFB282000F02CF848
:1007B000052000F075FB082000F026F8052000F069
:1007C0006FFB012000F020F8052000F069FB0620F7
:1007D00000F01AF8052000F063FB0C2000F014F87C
:1007E000052000F05DFB10BD70B506460C46012EDD
:1007F00003D104F17F00C5B202E004F1BF00C5B22D
:10080000284600F001F870BDF8B5044604F0F00584
:10081000F02000EA041645F00C008DF8000045F0C9
:1008200008008DF8010046F00C008DF8020046F03B
:1008300008008DF803006B46042200214E20FFF7CC
:1008400075FFF8BD10B5044603E014F8010B00F085
:1008500004F820780028F8D110BDF8B5044604F05B
:10086000F005F02000EA041645F00D008DF80000B8
:1008700045F009008DF8010046F00D008DF80200EA
:1008800046F009008DF803006B46042200214E203B
:10089000FFF74CFFF8BD10B50020FFF7B5FF0220B1
:1008A00000F0FEFA0120FFF7AFFF022000F0F8FA97
:1008B00010BD00BFFEE770477047000029B1064A2F
:1008C00012680243044B1A6004E0034A1268824330
:1008D000014B1A60704700003038024029B1064AC7
:1008E00012680243044B1A6004E0034A1268824310
:1008F000014B1A6070470000403802402DE9F0417A
:100900000021002300240226002502220227DFF80E
:10091000A4C1DCF800C00CF00C0131B1042909D0ED
:1009200008290CD00C297CD148E0DFF88CC1C0F834
:1009300000C089E0DFF884C1C0F800C084E0DFF8BF
:1009400074C1ACF1040CDCF800C0CCF38055DFF8C6
:1009500064C1ACF1040CDCF800C00CF03F0275B1CE
:10096000DFF858C1BCFBF2FCDFF84881A8F10408AD
:10097000D8F80080C8F388180CFB08F40DE0DFF805
:1009800038C1BCFBF2FCDFF82C81A8F10408D8F8D0
:100990000080C8F388180CFB08F4DFF818C1ACF12C
:1009A000040CDCF800C0CCF3014C0CF1010C4FEA54
:1009B0004C06B4FBF6FCC0F800C045E0DFF8F4C01C
:1009C000ACF1040CDCF800C0CCF38055DFF8E4C0D7
:1009D000ACF1040CDCF800C00CF03F0275B1DFF89C
:1009E000DCC0BCFBF2FCDFF8CC80A8F10408D8F82E
:1009F0000080C8F388180CFB08F40DE0DFF8B8C0DD
:100A0000BCFBF2FCDFF8AC80A8F10408D8F8008049
:100A1000C8F388180CFB08F4DFF898C0ACF1040C9C
:100A200000E00CE0DCF800C0CCF3027C0CF1010C1F
:100A30004FEA4C07B4FBF7FCC0F800C004E0DFF855
:100A400078C0C0F800C000BF00BFDFF868C0DCF8A5
:100A500000C00CF0F0010909DFF864C01CF8013097
:100A6000D0F800C02CFA03FCC0F804C0DFF844C082
:100A7000DCF800C00CF4E051890ADFF844C01CF82F
:100A80000130D0F804C02CFA03FCC0F808C0DFF82D
:100A900024C0DCF800C00CF46041490BDFF820C032
:100AA0001CF80130D0F804C02CFA03FCC0F80CC0CC
:100AB000BDE8F081083802400024F40000127A00FA
:100AC00000000020704700000CB50020019000904D
:100AD0004148006840F480303F49086000BF3E480C
:100AE000006800F4003000900198401C01900098CC
:100AF00018B90198B0F5A04FF1D13748006800F45B
:100B0000003010B10120009001E00020009000981A
:100B1000012860D130484030006840F080502E49B4
:100B2000403108602D48006840F440402B4908607F
:100B300029480830006828490831086008460068DC
:100B400040F4004008600846006840F4A050086087
:100B50002348091F0860081F006840F08070091FC3
:100B6000086000BF1C48006800F000700028F9D041
:100B70001A48006840F480301849086000BF1748E0
:100B8000406800F480300028F9D01448006840F430
:100B900000301249086000BF1048406800F400307F
:100BA0000028F9D040F205700E4908600A48083064
:100BB000006820F003000849083108600846006812
:100BC00040F00200086000BF03480830006800F0F1
:100BD0000C000828F8D10CBD00380240007000401D
:100BE000085A4077003C02407047000010B5154895
:100BF000006840F47000134908601348006840F032
:100C000001001149086000200F49083108600E48B2
:100C100000680E4908400C4908600D48091D08602D
:100C2000081F006820F48020091F08600020064982
:100C30000C310860FFF748FF4FF000600149803930
:100C4000086010BD88ED00E000380240FFFFF6FEAE
:100C50001030002421B1028842F00102028004E039
:100C600002884FF6FE731A40028070470146486AB8
:100C7000704741627047000000220288184B98427A
:100C80000ED0184B98420BD0B0F1804F08D0164BC5
:100C9000984205D0154B984202D0154B984204D18A
:100CA0004FF68F731A404B881A43124B984207D065
:100CB000114B984204D04FF6FF431A400B891A4358
:100CC00002804B68C3620B880385054B984202D0B3
:100CD000044B984201D18B7A0386012383827047AB
:100CE00000000140000401400004004000080040F2
:100CF000000C004000100040001400400EB501211F
:100D00001020FFF7EBFD5320ADF800004FF6FF7009
:100D1000019069460348FFF7AFFF01210148FFF743
:100D200099FF0EBD0010004000B587B001214804B6
:100D3000FFF7D4FD01210820FFF7C0FD02208DF848
:100D4000180000208DF81A006020059000208DF812
:100D50001B0002208DF8190005A91348FFF70CFBB2
:100D6000072205211048FFF74FFB072206210E48F6
:100D7000FFF74AFB4FF4165001900020ADF8100029
:100D80000C20ADF80E000020ADF80C00ADF80A0004
:100D9000ADF8080001A9054800F016F80121034844
:100DA00000F006F807B000BD000C0240004400400F
:100DB00021B1828942F40052828104E082894DF699
:100DC000FF731A40828170472DE9FF4705460E46A2
:100DD0000024A14600BFA046B08900B100BF2C8A04
:100DE00024F44054F08804432C82AC8941F20C6016
:100DF0008443B08831890843718908430443AC8136
:100E0000AC8A24F44074B0890443AC826846FFF78E
:100E100075FD2048854202D01F48854202D1DDF889
:100E20000C9001E0DDF80890A88900F4004040B182
:100E300009EBC90000EB091031684900B0FBF1F77C
:100E400007E009EBC90000EB091031688900B0FB2D
:100E5000F1F76420B7FBF0F004012009642101FBE5
:100E60001078A88900F4004040B1322000EBC8009F
:100E7000B0FBF1F000F00700044308E0322000EB83
:100E800008106421B0FBF1F000F00F0004432C8146
:100E9000BDE8FF87001001400014014000BFFEE7DD
:100EA00070B50446002504E04FF47A7000F004F8B1
:100EB0006D1CA542F8D370BD10B50446002105484D
:100EC000FFF7D7FE00BF0348FFF7D0FEA042FAD3DA
:100ED00010BD000000100040FFF724FAFFF7ECFA05
:100EE000FFF70CFFFFF720FFFFF743FC4FF47A708A
:100EF000FFF7D6FF13E0FFF7CEFC01210846FFF70E
:100F000073FC07A0FFF79EFC01210220FFF76CFC99
:100F100006A0FFF797FC4FF47A70FFF7C1FFEAE7EE
:100F200053544D3332202020000000006C636431A4
:100F3000363032004FF04070E1EE100A704700008A
:100F4000600F0008000000201000000000020008F0
:100F5000700F000810000020600600001C0200084E
:100F6000000000000102030401020304060708094F
:040000050800026588
:00000001FF
